{
  "contractName": "AddressImpl",
  "abi": [
    {
      "anonymous": false,
      "inputs": [
        {
          "indexed": false,
          "internalType": "string",
          "name": "data",
          "type": "string"
        }
      ],
      "name": "CallReturnValue",
      "type": "event"
    },
    {
      "inputs": [],
      "name": "sharedAnswer",
      "outputs": [
        {
          "internalType": "string",
          "name": "",
          "type": "string"
        }
      ],
      "stateMutability": "view",
      "type": "function"
    },
    {
      "stateMutability": "payable",
      "type": "receive"
    },
    {
      "inputs": [
        {
          "internalType": "address",
          "name": "account",
          "type": "address"
        }
      ],
      "name": "isContract",
      "outputs": [
        {
          "internalType": "bool",
          "name": "",
          "type": "bool"
        }
      ],
      "stateMutability": "view",
      "type": "function"
    },
    {
      "inputs": [
        {
          "internalType": "address payable",
          "name": "receiver",
          "type": "address"
        },
        {
          "internalType": "uint256",
          "name": "amount",
          "type": "uint256"
        }
      ],
      "name": "sendValue",
      "outputs": [],
      "stateMutability": "nonpayable",
      "type": "function"
    },
    {
      "inputs": [
        {
          "internalType": "address",
          "name": "target",
          "type": "address"
        },
        {
          "internalType": "bytes",
          "name": "data",
          "type": "bytes"
        }
      ],
      "name": "functionCall",
      "outputs": [],
      "stateMutability": "nonpayable",
      "type": "function"
    },
    {
      "inputs": [
        {
          "internalType": "address",
          "name": "target",
          "type": "address"
        },
        {
          "internalType": "bytes",
          "name": "data",
          "type": "bytes"
        },
        {
          "internalType": "uint256",
          "name": "value",
          "type": "uint256"
        }
      ],
      "name": "functionCallWithValue",
      "outputs": [],
      "stateMutability": "payable",
      "type": "function"
    },
    {
      "inputs": [
        {
          "internalType": "address",
          "name": "target",
          "type": "address"
        },
        {
          "internalType": "bytes",
          "name": "data",
          "type": "bytes"
        }
      ],
      "name": "functionStaticCall",
      "outputs": [],
      "stateMutability": "nonpayable",
      "type": "function"
    },
    {
      "inputs": [
        {
          "internalType": "address",
          "name": "target",
          "type": "address"
        },
        {
          "internalType": "bytes",
          "name": "data",
          "type": "bytes"
        }
      ],
      "name": "functionDelegateCall",
      "outputs": [],
      "stateMutability": "nonpayable",
      "type": "function"
    }
  ],
  "bytecode": "0x608060405234801561001057600080fd5b50611493806100206000396000f3fe6080604052600436106100745760003560e01c8063a0b5ffb01161004e578063a0b5ffb0146101e5578063c21d36f31461028b578063ee33b7e214610331578063fc40cf73146103d75761007b565b8063162790551461008057806324a084df146100e75780632a011594146101425761007b565b3661007b57005b600080fd5b34801561008c57600080fd5b506100cf600480360360208110156100a357600080fd5b81019080803573ffffffffffffffffffffffffffffffffffffffff169060200190929190505050610467565b60405180821515815260200191505060405180910390f35b3480156100f357600080fd5b506101406004803603604081101561010a57600080fd5b81019080803573ffffffffffffffffffffffffffffffffffffffff16906020019092919080359060200190929190505050610479565b005b6101e36004803603606081101561015857600080fd5b81019080803573ffffffffffffffffffffffffffffffffffffffff1690602001909291908035906020019064010000000081111561019557600080fd5b8201836020820111156101a757600080fd5b803590602001918460018302840111640100000000831117156101c957600080fd5b909192939192939080359060200190929190505050610487565b005b3480156101f157600080fd5b506102896004803603604081101561020857600080fd5b81019080803573ffffffffffffffffffffffffffffffffffffffff1690602001909291908035906020019064010000000081111561024557600080fd5b82018360208201111561025757600080fd5b8035906020019184600183028401116401000000008311171561027957600080fd5b909192939192939050505061064c565b005b34801561029757600080fd5b5061032f600480360360408110156102ae57600080fd5b81019080803573ffffffffffffffffffffffffffffffffffffffff169060200190929190803590602001906401000000008111156102eb57600080fd5b8201836020820111156102fd57600080fd5b8035906020019184600183028401116401000000008311171561031f57600080fd5b909192939192939050505061080f565b005b34801561033d57600080fd5b506103d56004803603604081101561035457600080fd5b81019080803573ffffffffffffffffffffffffffffffffffffffff1690602001909291908035906020019064010000000081111561039157600080fd5b8201836020820111156103a357600080fd5b803590602001918460018302840111640100000000831117156103c557600080fd5b90919293919293905050506109d2565b005b3480156103e357600080fd5b506103ec610b95565b6040518080602001828103825283818151815260200191508051906020019080838360005b8381101561042c578082015181840152602081019050610411565b50505050905090810190601f1680156104595780820380516001836020036101000a031916815260200191505b509250505060405180910390f35b600061047282610c33565b9050919050565b6104838282610c46565b5050565b60606104d88585858080601f016020809104026020016040519081016040528093929190818152602001838380828437600081840152601f19601f8201169050808301925050505050505084610d80565b90507fe518073da644d0626295bee74d5d5c51447a33857c62913bb30f35e2fba3db7c81806020019051602081101561051057600080fd5b810190808051604051939291908464010000000082111561053057600080fd5b8382019150602082018581111561054657600080fd5b825186600182028301116401000000008211171561056357600080fd5b8083526020830192505050908051906020019080838360005b8381101561059757808201518184015260208101905061057c565b50505050905090810190601f1680156105c45780820380516001836020036101000a031916815260200191505b506040525050506040518080602001828103825283818151815260200191508051906020019080838360005b8381101561060b5780820151818401526020810190506105f0565b50505050905090810190601f1680156106385780820380516001836020036101000a031916815260200191505b509250505060405180910390a15050505050565b606061069c8484848080601f016020809104026020016040519081016040528093929190818152602001838380828437600081840152601f19601f82011690508083019250505050505050610daf565b90507fe518073da644d0626295bee74d5d5c51447a33857c62913bb30f35e2fba3db7c8180602001905160208110156106d457600080fd5b81019080805160405193929190846401000000008211156106f457600080fd5b8382019150602082018581111561070a57600080fd5b825186600182028301116401000000008211171561072757600080fd5b8083526020830192505050908051906020019080838360005b8381101561075b578082015181840152602081019050610740565b50505050905090810190601f1680156107885780820380516001836020036101000a031916815260200191505b506040525050506040518080602001828103825283818151815260200191508051906020019080838360005b838110156107cf5780820151818401526020810190506107b4565b50505050905090810190601f1680156107fc5780820380516001836020036101000a031916815260200191505b509250505060405180910390a150505050565b606061085f8484848080601f016020809104026020016040519081016040528093929190818152602001838380828437600081840152601f19601f82011690508083019250505050505050610df9565b90507fe518073da644d0626295bee74d5d5c51447a33857c62913bb30f35e2fba3db7c81806020019051602081101561089757600080fd5b81019080805160405193929190846401000000008211156108b757600080fd5b838201915060208201858111156108cd57600080fd5b82518660018202830111640100000000821117156108ea57600080fd5b8083526020830192505050908051906020019080838360005b8381101561091e578082015181840152602081019050610903565b50505050905090810190601f16801561094b5780820380516001836020036101000a031916815260200191505b506040525050506040518080602001828103825283818151815260200191508051906020019080838360005b83811015610992578082015181840152602081019050610977565b50505050905090810190601f1680156109bf5780820380516001836020036101000a031916815260200191505b509250505060405180910390a150505050565b6060610a228484848080601f016020809104026020016040519081016040528093929190818152602001838380828437600081840152601f19601f82011690508083019250505050505050610e26565b90507fe518073da644d0626295bee74d5d5c51447a33857c62913bb30f35e2fba3db7c818060200190516020811015610a5a57600080fd5b8101908080516040519392919084640100000000821115610a7a57600080fd5b83820191506020820185811115610a9057600080fd5b8251866001820283011164010000000082111715610aad57600080fd5b8083526020830192505050908051906020019080838360005b83811015610ae1578082015181840152602081019050610ac6565b50505050905090810190601f168015610b0e5780820380516001836020036101000a031916815260200191505b506040525050506040518080602001828103825283818151815260200191508051906020019080838360005b83811015610b55578082015181840152602081019050610b3a565b50505050905090810190601f168015610b825780820380516001836020036101000a031916815260200191505b509250505060405180910390a150505050565b60008054600181600116156101000203166002900480601f016020809104026020016040519081016040528092919081815260200182805460018160011615610100020316600290048015610c2b5780601f10610c0057610100808354040283529160200191610c2b565b820191906000526020600020905b815481529060010190602001808311610c0e57829003601f168201915b505050505081565b600080823b905060008111915050919050565b80471015610cbc576040517f08c379a000000000000000000000000000000000000000000000000000000000815260040180806020018281038252601d8152602001807f416464726573733a20696e73756666696369656e742062616c616e636500000081525060200191505060405180910390fd5b60008273ffffffffffffffffffffffffffffffffffffffff168260405180600001905060006040518083038185875af1925050503d8060008114610d1c576040519150601f19603f3d011682016040523d82523d6000602084013e610d21565b606091505b5050905080610d7b576040517f08c379a000000000000000000000000000000000000000000000000000000000815260040180806020018281038252603a81526020018061133f603a913960400191505060405180910390fd5b505050565b6060610da684848460405180606001604052806029815260200161139f60299139610e53565b90509392505050565b6060610df183836040518060400160405280601e81526020017f416464726573733a206c6f772d6c6576656c2063616c6c206661696c65640000815250610ffc565b905092915050565b6060610e1e83836040518060600160405280602581526020016113c860259139611014565b905092915050565b6060610e4b83836040518060600160405280602781526020016113ed60279139611143565b905092915050565b606082471015610eae576040517f08c379a00000000000000000000000000000000000000000000000000000000081526004018080602001828103825260268152602001806113796026913960400191505060405180910390fd5b610eb785610c33565b610f29576040517f08c379a000000000000000000000000000000000000000000000000000000000815260040180806020018281038252601d8152602001807f416464726573733a2063616c6c20746f206e6f6e2d636f6e747261637400000081525060200191505060405180910390fd5b600060608673ffffffffffffffffffffffffffffffffffffffff1685876040518082805190602001908083835b60208310610f795780518252602082019150602081019050602083039250610f56565b6001836020036101000a03801982511681845116808217855250505050505090500191505060006040518083038185875af1925050503d8060008114610fdb576040519150601f19603f3d011682016040523d82523d6000602084013e610fe0565b606091505b5091509150610ff0828286611272565b92505050949350505050565b606061100b8484600085610e53565b90509392505050565b606061101f84610c33565b611074576040517f08c379a000000000000000000000000000000000000000000000000000000000815260040180806020018281038252602481526020018061143a6024913960400191505060405180910390fd5b600060608573ffffffffffffffffffffffffffffffffffffffff16856040518082805190602001908083835b602083106110c357805182526020820191506020810190506020830392506110a0565b6001836020036101000a038019825116818451168082178552505050505050905001915050600060405180830381855afa9150503d8060008114611123576040519150601f19603f3d011682016040523d82523d6000602084013e611128565b606091505b5091509150611138828286611272565b925050509392505050565b606061114e84610c33565b6111a3576040517f08c379a00000000000000000000000000000000000000000000000000000000081526004018080602001828103825260268152602001806114146026913960400191505060405180910390fd5b600060608573ffffffffffffffffffffffffffffffffffffffff16856040518082805190602001908083835b602083106111f257805182526020820191506020810190506020830392506111cf565b6001836020036101000a038019825116818451168082178552505050505050905001915050600060405180830381855af49150503d8060008114611252576040519150601f19603f3d011682016040523d82523d6000602084013e611257565b606091505b5091509150611267828286611272565b925050509392505050565b6060831561128257829050611337565b6000835111156112955782518084602001fd5b816040517f08c379a00000000000000000000000000000000000000000000000000000000081526004018080602001828103825283818151815260200191508051906020019080838360005b838110156112fc5780820151818401526020810190506112e1565b50505050905090810190601f1680156113295780820380516001836020036101000a031916815260200191505b509250505060405180910390fd5b939250505056fe416464726573733a20756e61626c6520746f2073656e642076616c75652c20726563697069656e74206d61792068617665207265766572746564416464726573733a20696e73756666696369656e742062616c616e636520666f722063616c6c416464726573733a206c6f772d6c6576656c2063616c6c20776974682076616c7565206661696c6564416464726573733a206c6f772d6c6576656c207374617469632063616c6c206661696c6564416464726573733a206c6f772d6c6576656c2064656c65676174652063616c6c206661696c6564416464726573733a2064656c65676174652063616c6c20746f206e6f6e2d636f6e7472616374416464726573733a207374617469632063616c6c20746f206e6f6e2d636f6e7472616374a2646970667358221220c0cd58b4152911b462be0beaf3ca992f09a230d5f779030ed3627966f46c1fb264736f6c63430007050033",
  "immutableReferences": {},
  "source": "// SPDX-License-Identifier: MIT\n\npragma solidity >=0.6.0 <0.8.0;\n\nimport \"../utils/Address.sol\";\n\ncontract AddressImpl {\n    string public sharedAnswer;\n\n    event CallReturnValue(string data);\n\n    function isContract(address account) external view returns (bool) {\n        return Address.isContract(account);\n    }\n\n    function sendValue(address payable receiver, uint256 amount) external {\n        Address.sendValue(receiver, amount);\n    }\n\n    function functionCall(address target, bytes calldata data) external {\n        bytes memory returnData = Address.functionCall(target, data);\n        emit CallReturnValue(abi.decode(returnData, (string)));\n    }\n\n    function functionCallWithValue(address target, bytes calldata data, uint256 value) external payable {\n        bytes memory returnData = Address.functionCallWithValue(target, data, value);\n        emit CallReturnValue(abi.decode(returnData, (string)));\n    }\n\n    function functionStaticCall(address target, bytes calldata data) external {\n        bytes memory returnData = Address.functionStaticCall(target, data);\n        emit CallReturnValue(abi.decode(returnData, (string)));\n    }\n\n    function functionDelegateCall(address target, bytes calldata data) external {\n        bytes memory returnData = Address.functionDelegateCall(target, data);\n        emit CallReturnValue(abi.decode(returnData, (string)));\n    }\n\n    // sendValue's tests require the contract to hold Ether\n    receive () external payable { }\n}\n",
  "sourcePath": "/home/darkdark/block_projs/rome_stuff/Test-Ground.io/contracts/openzeppelin-contracts/contracts/mocks/AddressImpl.sol",
  "compiler": {
    "name": "solc",
    "version": "0.7.5+commit.eb77ed08.Emscripten.clang"
  },
  "schemaVersion": "3.3.2",
  "updatedAt": "2021-01-26T06:59:49.183Z",
  "devdoc": {
    "kind": "dev",
    "methods": {},
    "version": 1
  },
  "userdoc": {
    "kind": "user",
    "methods": {},
    "version": 1
  }
}