{
  "contractName": "Create2Impl",
  "abi": [
    {
      "stateMutability": "payable",
      "type": "receive"
    },
    {
      "inputs": [
        {
          "internalType": "uint256",
          "name": "value",
          "type": "uint256"
        },
        {
          "internalType": "bytes32",
          "name": "salt",
          "type": "bytes32"
        },
        {
          "internalType": "bytes",
          "name": "code",
          "type": "bytes"
        }
      ],
      "name": "deploy",
      "outputs": [],
      "stateMutability": "nonpayable",
      "type": "function"
    },
    {
      "inputs": [
        {
          "internalType": "uint256",
          "name": "value",
          "type": "uint256"
        },
        {
          "internalType": "bytes32",
          "name": "salt",
          "type": "bytes32"
        }
      ],
      "name": "deployERC1820Implementer",
      "outputs": [],
      "stateMutability": "nonpayable",
      "type": "function"
    },
    {
      "inputs": [
        {
          "internalType": "bytes32",
          "name": "salt",
          "type": "bytes32"
        },
        {
          "internalType": "bytes32",
          "name": "codeHash",
          "type": "bytes32"
        }
      ],
      "name": "computeAddress",
      "outputs": [
        {
          "internalType": "address",
          "name": "",
          "type": "address"
        }
      ],
      "stateMutability": "view",
      "type": "function"
    },
    {
      "inputs": [
        {
          "internalType": "bytes32",
          "name": "salt",
          "type": "bytes32"
        },
        {
          "internalType": "bytes32",
          "name": "codeHash",
          "type": "bytes32"
        },
        {
          "internalType": "address",
          "name": "deployer",
          "type": "address"
        }
      ],
      "name": "computeAddressWithDeployer",
      "outputs": [
        {
          "internalType": "address",
          "name": "",
          "type": "address"
        }
      ],
      "stateMutability": "pure",
      "type": "function"
    }
  ],
  "bytecode": "0x608060405234801561001057600080fd5b50610713806100206000396000f3fe6080604052600436106100435760003560e01c8063076c37b21461004f578063481286e614610094578063562994811461010357806366cfa057146101925761004a565b3661004a57005b600080fd5b34801561005b57600080fd5b506100926004803603604081101561007257600080fd5b81019080803590602001909291908035906020019092919050505061026e565b005b3480156100a057600080fd5b506100d7600480360360408110156100b757600080fd5b8101908080359060200190929190803590602001909291905050506102a1565b604051808273ffffffffffffffffffffffffffffffffffffffff16815260200191505060405180910390f35b34801561010f57600080fd5b506101666004803603606081101561012657600080fd5b810190808035906020019092919080359060200190929190803573ffffffffffffffffffffffffffffffffffffffff1690602001909291905050506102b5565b604051808273ffffffffffffffffffffffffffffffffffffffff16815260200191505060405180910390f35b34801561019e57600080fd5b5061026c600480360360608110156101b557600080fd5b810190808035906020019092919080359060200190929190803590602001906401000000008111156101e657600080fd5b8201836020820111156101f857600080fd5b8035906020019184600183028401116401000000008311171561021a57600080fd5b91908080601f016020809104026020016040519081016040528093929190818152602001838380828437600081840152601f19601f8201169050808301925050505050505091929192905050506102cb565b005b61029c8282604051806020016102839061052c565b6020820181038252601f19601f820116604052506102dc565b505050565b60006102ad8383610486565b905092915050565b60006102c284848461049b565b90509392505050565b6102d68383836102dc565b50505050565b60008084471015610355576040517f08c379a000000000000000000000000000000000000000000000000000000000815260040180806020018281038252601d8152602001807f437265617465323a20696e73756666696369656e742062616c616e636500000081525060200191505060405180910390fd5b6000835114156103cd576040517f08c379a00000000000000000000000000000000000000000000000000000000081526004018080602001828103825260208152602001807f437265617465323a2062797465636f6465206c656e677468206973207a65726f81525060200191505060405180910390fd5b8383516020850187f59050600073ffffffffffffffffffffffffffffffffffffffff168173ffffffffffffffffffffffffffffffffffffffff16141561047b576040517f08c379a00000000000000000000000000000000000000000000000000000000081526004018080602001828103825260198152602001807f437265617465323a204661696c6564206f6e206465706c6f790000000000000081525060200191505060405180910390fd5b809150509392505050565b600061049383833061049b565b905092915050565b60008060ff60f81b83868660405160200180857effffffffffffffffffffffffffffffffffffffffffffffffffffffffffffff191681526001018473ffffffffffffffffffffffffffffffffffffffff1660601b81526014018381526020018281526020019450505050506040516020818303038152906040528051906020012090508060001c9150509392505050565b6101a48061053a8339019056fe608060405234801561001057600080fd5b50610184806100206000396000f3fe608060405234801561001057600080fd5b506004361061002b5760003560e01c8063249cb3fa14610030575b600080fd5b61007c6004803603604081101561004657600080fd5b8101908080359060200190929190803573ffffffffffffffffffffffffffffffffffffffff169060200190929190505050610092565b6040518082815260200191505060405180910390f35b600080600084815260200190815260200160002060008373ffffffffffffffffffffffffffffffffffffffff1673ffffffffffffffffffffffffffffffffffffffff16815260200190815260200160002060009054906101000a900460ff166100fe576000801b610146565b60405160200180807f455243313832305f4143434550545f4d414749430000000000000000000000008152506014019050604051602081830303815290604052805190602001205b90509291505056fea26469706673582212207dcd1b6029d458dc87ade7ba62eb3b8d00e6ebe18ef9895362f7f2c923cc64d664736f6c63430007050033a2646970667358221220f97613ca9424eafb2742e4327a2ef760c38ffe4e27adf7b644375ed24cc1db4464736f6c63430007050033",
  "immutableReferences": {},
  "source": "// SPDX-License-Identifier: MIT\n\npragma solidity >=0.6.0 <0.8.0;\n\nimport \"../utils/Create2.sol\";\nimport \"../introspection/ERC1820Implementer.sol\";\n\ncontract Create2Impl {\n    function deploy(uint256 value, bytes32 salt, bytes memory code) public {\n        Create2.deploy(value, salt, code);\n    }\n\n    function deployERC1820Implementer(uint256 value, bytes32 salt) public {\n        // solhint-disable-next-line indent\n        Create2.deploy(value, salt, type(ERC1820Implementer).creationCode);\n    }\n\n    function computeAddress(bytes32 salt, bytes32 codeHash) public view returns (address) {\n        return Create2.computeAddress(salt, codeHash);\n    }\n\n    function computeAddressWithDeployer(bytes32 salt, bytes32 codeHash, address deployer) public pure returns (address) {\n        return Create2.computeAddress(salt, codeHash, deployer);\n    }\n\n    receive() external payable {}\n}\n",
  "sourcePath": "/home/darkdark/block_projs/rome_stuff/Test-Ground.io/contracts/openzeppelin-contracts/contracts/mocks/Create2Impl.sol",
  "compiler": {
    "name": "solc",
    "version": "0.7.5+commit.eb77ed08.Emscripten.clang"
  },
  "schemaVersion": "3.3.2",
  "updatedAt": "2021-01-26T07:38:25.245Z",
  "devdoc": {
    "kind": "dev",
    "methods": {},
    "version": 1
  },
  "userdoc": {
    "kind": "user",
    "methods": {},
    "version": 1
  }
}