{
  "contractName": "DummyImplementation",
  "abi": [
    {
      "inputs": [],
      "name": "text",
      "outputs": [
        {
          "internalType": "string",
          "name": "",
          "type": "string"
        }
      ],
      "stateMutability": "view",
      "type": "function"
    },
    {
      "inputs": [],
      "name": "value",
      "outputs": [
        {
          "internalType": "uint256",
          "name": "",
          "type": "uint256"
        }
      ],
      "stateMutability": "view",
      "type": "function"
    },
    {
      "inputs": [
        {
          "internalType": "uint256",
          "name": "",
          "type": "uint256"
        }
      ],
      "name": "values",
      "outputs": [
        {
          "internalType": "uint256",
          "name": "",
          "type": "uint256"
        }
      ],
      "stateMutability": "view",
      "type": "function"
    },
    {
      "inputs": [],
      "name": "initializeNonPayable",
      "outputs": [],
      "stateMutability": "nonpayable",
      "type": "function"
    },
    {
      "inputs": [],
      "name": "initializePayable",
      "outputs": [],
      "stateMutability": "payable",
      "type": "function"
    },
    {
      "inputs": [
        {
          "internalType": "uint256",
          "name": "_value",
          "type": "uint256"
        }
      ],
      "name": "initializeNonPayableWithValue",
      "outputs": [],
      "stateMutability": "nonpayable",
      "type": "function"
    },
    {
      "inputs": [
        {
          "internalType": "uint256",
          "name": "_value",
          "type": "uint256"
        }
      ],
      "name": "initializePayableWithValue",
      "outputs": [],
      "stateMutability": "payable",
      "type": "function"
    },
    {
      "inputs": [
        {
          "internalType": "uint256",
          "name": "_value",
          "type": "uint256"
        },
        {
          "internalType": "string",
          "name": "_text",
          "type": "string"
        },
        {
          "internalType": "uint256[]",
          "name": "_values",
          "type": "uint256[]"
        }
      ],
      "name": "initialize",
      "outputs": [],
      "stateMutability": "nonpayable",
      "type": "function"
    },
    {
      "inputs": [],
      "name": "get",
      "outputs": [
        {
          "internalType": "bool",
          "name": "",
          "type": "bool"
        }
      ],
      "stateMutability": "pure",
      "type": "function"
    },
    {
      "inputs": [],
      "name": "version",
      "outputs": [
        {
          "internalType": "string",
          "name": "",
          "type": "string"
        }
      ],
      "stateMutability": "pure",
      "type": "function"
    },
    {
      "inputs": [],
      "name": "reverts",
      "outputs": [],
      "stateMutability": "pure",
      "type": "function"
    }
  ],
  "bytecode": "0x608060405234801561001057600080fd5b50610783806100206000396000f3fe60806040526004361061009c5760003560e01c80635e383d21116100645780635e383d211461021a5780636d4ce63c14610269578063763e2831146102965780639fba1f9a146102d1578063d31f8b6b146102db578063e79f5bee146104415761009c565b80631f1bd692146100a1578063227367d5146101315780633bccbbc9146101485780633fa4f2451461015f57806354fd4d501461018a575b600080fd5b3480156100ad57600080fd5b506100b661046f565b6040518080602001828103825283818151815260200191508051906020019080838360005b838110156100f65780820151818401526020810190506100db565b50505050905090810190601f1680156101235780820380516001836020036101000a031916815260200191505b509250505060405180910390f35b34801561013d57600080fd5b5061014661050d565b005b34801561015457600080fd5b5061015d610517565b005b34801561016b57600080fd5b5061017461058d565b6040518082815260200191505060405180910390f35b34801561019657600080fd5b5061019f610593565b6040518080602001828103825283818151815260200191508051906020019080838360005b838110156101df5780820151818401526020810190506101c4565b50505050905090810190601f16801561020c5780820380516001836020036101000a031916815260200191505b509250505060405180910390f35b34801561022657600080fd5b506102536004803603602081101561023d57600080fd5b81019080803590602001909291905050506105d0565b6040518082815260200191505060405180910390f35b34801561027557600080fd5b5061027e6105f4565b60405180821515815260200191505060405180910390f35b3480156102a257600080fd5b506102cf600480360360208110156102b957600080fd5b81019080803590602001909291905050506105fd565b005b6102d9610607565b005b3480156102e757600080fd5b5061043f600480360360608110156102fe57600080fd5b81019080803590602001909291908035906020019064010000000081111561032557600080fd5b82018360208201111561033757600080fd5b8035906020019184600183028401116401000000008311171561035957600080fd5b91908080601f016020809104026020016040519081016040528093929190818152602001838380828437600081840152601f19601f820116905080830192505050505050509192919290803590602001906401000000008111156103bc57600080fd5b8201836020820111156103ce57600080fd5b803590602001918460208302840111640100000000831117156103f057600080fd5b919080806020026020016040519081016040528093929190818152602001838360200280828437600081840152601f19601f820116905080830192505050505050509192919290505050610611565b005b61046d6004803603602081101561045757600080fd5b810190808035906020019092919050505061064b565b005b60018054600181600116156101000203166002900480601f0160208091040260200160405190810160405280929190818152602001828054600181600116156101000203166002900480156105055780601f106104da57610100808354040283529160200191610505565b820191906000526020600020905b8154815290600101906020018083116104e857829003601f168201915b505050505081565b600a600081905550565b600061058b576040517f08c379a000000000000000000000000000000000000000000000000000000000815260040180806020018281038252601c8152602001807f44756d6d79496d706c656d656e746174696f6e2072657665727465640000000081525060200191505060405180910390fd5b565b60005481565b60606040518060400160405280600281526020017f5631000000000000000000000000000000000000000000000000000000000000815250905090565b600281815481106105e057600080fd5b906000526020600020016000915090505481565b60006001905090565b8060008190555050565b6064600081905550565b82600081905550816001908051906020019061062e929190610655565b5080600290805190602001906106459291906106e3565b50505050565b8060008190555050565b828054600181600116156101000203166002900490600052602060002090601f01602090048101928261068b57600085556106d2565b82601f106106a457805160ff19168380011785556106d2565b828001600101855582156106d2579182015b828111156106d15782518255916020019190600101906106b6565b5b5090506106df9190610730565b5090565b82805482825590600052602060002090810192821561071f579160200282015b8281111561071e578251825591602001919060010190610703565b5b50905061072c9190610730565b5090565b5b80821115610749576000816000905550600101610731565b509056fea264697066735822122002e4e243a2746192852efe3e1347aaf55bef626b770617ee6edccade349561b064736f6c63430007050033",
  "immutableReferences": {},
  "source": "// SPDX-License-Identifier: MIT\n\npragma solidity >=0.6.0 <0.8.0;\n\nabstract contract Impl {\n  function version() public pure virtual returns (string memory); \n}\n\ncontract DummyImplementation {\n  uint256 public value;\n  string public text;\n  uint256[] public values;\n\n  function initializeNonPayable() public {\n    value = 10;\n  }\n\n  function initializePayable() public payable {\n    value = 100;\n  }\n\n  function initializeNonPayableWithValue(uint256 _value) public {\n    value = _value;\n  }\n\n  function initializePayableWithValue(uint256 _value) public payable {\n    value = _value;\n  }\n\n  function initialize(uint256 _value, string memory _text, uint256[] memory _values) public {\n    value = _value;\n    text = _text;\n    values = _values;\n  }\n\n  function get() public pure returns (bool) {\n    return true;\n  }\n\n  function version() public pure virtual returns (string memory) {\n    return \"V1\";\n  }\n\n  function reverts() public pure {\n    require(false, \"DummyImplementation reverted\");\n  }\n}\n\ncontract DummyImplementationV2 is DummyImplementation {\n  function migrate(uint256 newVal) public payable {\n    value = newVal;\n  }\n\n  function version() public pure override returns (string memory) {\n    return \"V2\";\n  }\n}\n",
  "sourcePath": "/home/darkdark/block_projs/rome_stuff/Test-Ground.io/contracts/openzeppelin-contracts/contracts/mocks/DummyImplementation.sol",
  "compiler": {
    "name": "solc",
    "version": "0.7.5+commit.eb77ed08.Emscripten.clang"
  },
  "schemaVersion": "3.3.2",
  "updatedAt": "2021-01-11T01:25:06.124Z",
  "devdoc": {
    "kind": "dev",
    "methods": {},
    "version": 1
  },
  "userdoc": {
    "kind": "user",
    "methods": {},
    "version": 1
  }
}