{
  "contractName": "EnumerableUintSetMock",
  "abi": [
    {
      "anonymous": false,
      "inputs": [
        {
          "indexed": false,
          "internalType": "bool",
          "name": "result",
          "type": "bool"
        }
      ],
      "name": "OperationResult",
      "type": "event"
    },
    {
      "inputs": [
        {
          "internalType": "uint256",
          "name": "value",
          "type": "uint256"
        }
      ],
      "name": "contains",
      "outputs": [
        {
          "internalType": "bool",
          "name": "",
          "type": "bool"
        }
      ],
      "stateMutability": "view",
      "type": "function"
    },
    {
      "inputs": [
        {
          "internalType": "uint256",
          "name": "value",
          "type": "uint256"
        }
      ],
      "name": "add",
      "outputs": [],
      "stateMutability": "nonpayable",
      "type": "function"
    },
    {
      "inputs": [
        {
          "internalType": "uint256",
          "name": "value",
          "type": "uint256"
        }
      ],
      "name": "remove",
      "outputs": [],
      "stateMutability": "nonpayable",
      "type": "function"
    },
    {
      "inputs": [],
      "name": "length",
      "outputs": [
        {
          "internalType": "uint256",
          "name": "",
          "type": "uint256"
        }
      ],
      "stateMutability": "view",
      "type": "function"
    },
    {
      "inputs": [
        {
          "internalType": "uint256",
          "name": "index",
          "type": "uint256"
        }
      ],
      "name": "at",
      "outputs": [
        {
          "internalType": "uint256",
          "name": "",
          "type": "uint256"
        }
      ],
      "stateMutability": "view",
      "type": "function"
    }
  ],
  "bytecode": "0x608060405234801561001057600080fd5b50610535806100206000396000f3fe608060405234801561001057600080fd5b50600436106100575760003560e01c80631003e2d21461005c5780631f7b6d321461008a5780634cc82215146100a8578063c34052e0146100d6578063e0886f901461011a575b600080fd5b6100886004803603602081101561007257600080fd5b810190808035906020019092919050505061015c565b005b6100926101b1565b6040518082815260200191505060405180910390f35b6100d4600480360360208110156100be57600080fd5b81019080803590602001909291905050506101c2565b005b610102600480360360208110156100ec57600080fd5b8101908080359060200190929190505050610217565b60405180821515815260200191505060405180910390f35b6101466004803603602081101561013057600080fd5b8101908080359060200190929190505050610234565b6040518082815260200191505060405180910390f35b600061017282600061025190919063ffffffff16565b90507fed9840e0775590557ad736875d96c95cf1458b766335f74339951a32c82a9e338160405180821515815260200191505060405180910390a15050565b60006101bd600061026b565b905090565b60006101d882600061028090919063ffffffff16565b90507fed9840e0775590557ad736875d96c95cf1458b766335f74339951a32c82a9e338160405180821515815260200191505060405180910390a15050565b600061022d82600061029a90919063ffffffff16565b9050919050565b600061024a8260006102b490919063ffffffff16565b9050919050565b6000610263836000018360001b6102ce565b905092915050565b60006102798260000161033e565b9050919050565b6000610292836000018360001b61034f565b905092915050565b60006102ac836000018360001b610437565b905092915050565b60006102c3836000018361045a565b60001c905092915050565b60006102da8383610437565b610333578260000182908060018154018082558091505060019003906000526020600020016000909190919091505582600001805490508360010160008481526020019081526020016000208190555060019050610338565b600090505b92915050565b600081600001805490509050919050565b6000808360010160008481526020019081526020016000205490506000811461042b576000600182039050600060018660000180549050039050600086600001828154811061039a57fe5b90600052602060002001549050808760000184815481106103b757fe5b90600052602060002001819055506001830187600101600083815260200190815260200160002081905550866000018054806103ef57fe5b60019003818190600052602060002001600090559055866001016000878152602001908152602001600020600090556001945050505050610431565b60009150505b92915050565b600080836001016000848152602001908152602001600020541415905092915050565b6000818360000180549050116104bb576040517f08c379a00000000000000000000000000000000000000000000000000000000081526004018080602001828103825260228152602001806104de6022913960400191505060405180910390fd5b8260000182815481106104ca57fe5b906000526020600020015490509291505056fe456e756d657261626c655365743a20696e646578206f7574206f6620626f756e6473a26469706673582212205883eb32be72a8803152289ff8fcc0dab39c9fbb90e49383a1eafe0c91bc4e8864736f6c63430007050033",
  "immutableReferences": {},
  "source": "// SPDX-License-Identifier: MIT\n\npragma solidity >=0.6.0 <0.8.0;\n\nimport \"../utils/EnumerableSet.sol\";\n\n// Bytes32Set\ncontract EnumerableBytes32SetMock {\n    using EnumerableSet for EnumerableSet.Bytes32Set;\n\n    event OperationResult(bool result);\n\n    EnumerableSet.Bytes32Set private _set;\n\n    function contains(bytes32 value) public view returns (bool) {\n        return _set.contains(value);\n    }\n\n    function add(bytes32 value) public {\n        bool result = _set.add(value);\n        emit OperationResult(result);\n    }\n\n    function remove(bytes32 value) public {\n        bool result = _set.remove(value);\n        emit OperationResult(result);\n    }\n\n    function length() public view returns (uint256) {\n        return _set.length();\n    }\n\n    function at(uint256 index) public view returns (bytes32) {\n        return _set.at(index);\n    }\n}\n\n// AddressSet\ncontract EnumerableAddressSetMock {\n    using EnumerableSet for EnumerableSet.AddressSet;\n\n    event OperationResult(bool result);\n\n    EnumerableSet.AddressSet private _set;\n\n    function contains(address value) public view returns (bool) {\n        return _set.contains(value);\n    }\n\n    function add(address value) public {\n        bool result = _set.add(value);\n        emit OperationResult(result);\n    }\n\n    function remove(address value) public {\n        bool result = _set.remove(value);\n        emit OperationResult(result);\n    }\n\n    function length() public view returns (uint256) {\n        return _set.length();\n    }\n\n    function at(uint256 index) public view returns (address) {\n        return _set.at(index);\n    }\n}\n\n// UintSet\ncontract EnumerableUintSetMock {\n    using EnumerableSet for EnumerableSet.UintSet;\n\n    event OperationResult(bool result);\n\n    EnumerableSet.UintSet private _set;\n\n    function contains(uint256 value) public view returns (bool) {\n        return _set.contains(value);\n    }\n\n    function add(uint256 value) public {\n        bool result = _set.add(value);\n        emit OperationResult(result);\n    }\n\n    function remove(uint256 value) public {\n        bool result = _set.remove(value);\n        emit OperationResult(result);\n    }\n\n    function length() public view returns (uint256) {\n        return _set.length();\n    }\n\n    function at(uint256 index) public view returns (uint256) {\n        return _set.at(index);\n    }\n}\n",
  "sourcePath": "/home/darkdark/block_projs/rome_stuff/Test-Ground.io/contracts/openzeppelin-contracts/contracts/mocks/EnumerableSetMock.sol",
  "compiler": {
    "name": "solc",
    "version": "0.7.5+commit.eb77ed08.Emscripten.clang"
  },
  "schemaVersion": "3.3.2",
  "updatedAt": "2021-01-26T23:20:36.416Z",
  "devdoc": {
    "kind": "dev",
    "methods": {},
    "version": 1
  },
  "userdoc": {
    "kind": "user",
    "methods": {},
    "version": 1
  }
}