{
  "contractName": "ERC165InterfacesSupported",
  "abi": [
    {
      "inputs": [
        {
          "internalType": "bytes4[]",
          "name": "interfaceIds",
          "type": "bytes4[]"
        }
      ],
      "stateMutability": "nonpayable",
      "type": "constructor"
    },
    {
      "inputs": [],
      "name": "INTERFACE_ID_ERC165",
      "outputs": [
        {
          "internalType": "bytes4",
          "name": "",
          "type": "bytes4"
        }
      ],
      "stateMutability": "view",
      "type": "function"
    },
    {
      "inputs": [
        {
          "internalType": "bytes4",
          "name": "interfaceId",
          "type": "bytes4"
        }
      ],
      "name": "supportsInterface",
      "outputs": [
        {
          "internalType": "bool",
          "name": "",
          "type": "bool"
        }
      ],
      "stateMutability": "view",
      "type": "function"
    }
  ],
  "bytecode": "0x608060405234801561001057600080fd5b506040516103ce3803806103ce8339818101604052602081101561003357600080fd5b810190808051604051939291908464010000000082111561005357600080fd5b8382019150602082018581111561006957600080fd5b825186602082028301116401000000008211171561008657600080fd5b8083526020830192505050908051906020019060200280838360005b838110156100bd5780820151818401526020810190506100a2565b505050509050016040525050506100e06301ffc9a760e01b61012260201b60201c565b60005b815181101561011b5761010e8282815181106100fb57fe5b602002602001015161012260201b60201c565b80806001019150506100e3565b505061020d565b63ffffffff60e01b817bffffffffffffffffffffffffffffffffffffffffffffffffffffffff191614156101a1576040517f08c379a000000000000000000000000000000000000000000000000000000000815260040180806020018281038252602f81526020018061039f602f913960400191505060405180910390fd5b6001600080837bffffffffffffffffffffffffffffffffffffffffffffffffffffffff19167bffffffffffffffffffffffffffffffffffffffffffffffffffffffff1916815260200190815260200160002060006101000a81548160ff02191690831515021790555050565b6101838061021c6000396000f3fe608060405234801561001057600080fd5b50600436106100365760003560e01c806301ffc9a71461003b57806334d7006c1461009e575b600080fd5b6100866004803603602081101561005157600080fd5b8101908080357bffffffffffffffffffffffffffffffffffffffffffffffffffffffff191690602001909291905050506100db565b60405180821515815260200191505060405180910390f35b6100a6610142565b60405180827bffffffffffffffffffffffffffffffffffffffffffffffffffffffff1916815260200191505060405180910390f35b6000806000837bffffffffffffffffffffffffffffffffffffffffffffffffffffffff19167bffffffffffffffffffffffffffffffffffffffffffffffffffffffff1916815260200190815260200160002060009054906101000a900460ff169050919050565b6301ffc9a760e01b8156fea26469706673582212206b15d343f3433b339f9b8c9712a2adbdd2a3b5b4c33b11dd0c4859b4608c586064736f6c63430007050033455243313635496e7465726661636573537570706f727465643a20696e76616c696420696e74657266616365206964",
  "immutableReferences": {},
  "source": "// SPDX-License-Identifier: MIT\n\npragma solidity >=0.6.0 <0.8.0;\n\nimport \"../../introspection/IERC165.sol\";\n\n/**\n * https://eips.ethereum.org/EIPS/eip-214#specification\n * From the specification:\n * > Any attempts to make state-changing operations inside an execution instance with STATIC set to true will instead\n * throw an exception.\n * > These operations include [...], LOG0, LOG1, LOG2, [...]\n *\n * therefore, because this contract is staticcall'd we need to not emit events (which is how solidity-coverage works)\n * solidity-coverage ignores the /mocks folder, so we duplicate its implementation here to avoid instrumenting it\n */\ncontract SupportsInterfaceWithLookupMock is IERC165 {\n    /*\n     * bytes4(keccak256('supportsInterface(bytes4)')) == 0x01ffc9a7\n     */\n    bytes4 public constant INTERFACE_ID_ERC165 = 0x01ffc9a7;\n\n    /**\n     * @dev A mapping of interface id to whether or not it's supported.\n     */\n    mapping(bytes4 => bool) private _supportedInterfaces;\n\n    /**\n     * @dev A contract implementing SupportsInterfaceWithLookup\n     * implement ERC165 itself.\n     */\n    constructor () public {\n        _registerInterface(INTERFACE_ID_ERC165);\n    }\n\n    /**\n     * @dev Implement supportsInterface(bytes4) using a lookup table.\n     */\n    function supportsInterface(bytes4 interfaceId) public view override returns (bool) {\n        return _supportedInterfaces[interfaceId];\n    }\n\n    /**\n     * @dev Private method for registering an interface.\n     */\n    function _registerInterface(bytes4 interfaceId) internal {\n        require(interfaceId != 0xffffffff, \"ERC165InterfacesSupported: invalid interface id\");\n        _supportedInterfaces[interfaceId] = true;\n    }\n}\n\ncontract ERC165InterfacesSupported is SupportsInterfaceWithLookupMock {\n    constructor (bytes4[] memory interfaceIds) public {\n        for (uint256 i = 0; i < interfaceIds.length; i++) {\n            _registerInterface(interfaceIds[i]);\n        }\n    }\n}\n",
  "sourcePath": "/home/darkdark/block_projs/rome_stuff/Test-Ground.io/contracts/openzeppelin-contracts/contracts/mocks/ERC165/ERC165InterfacesSupported.sol",
  "compiler": {
    "name": "solc",
    "version": "0.7.5+commit.eb77ed08.Emscripten.clang"
  },
  "schemaVersion": "3.3.2",
  "updatedAt": "2021-01-30T22:26:31.058Z",
  "devdoc": {
    "kind": "dev",
    "methods": {
      "supportsInterface(bytes4)": {
        "details": "Implement supportsInterface(bytes4) using a lookup table."
      }
    },
    "version": 1
  },
  "userdoc": {
    "kind": "user",
    "methods": {},
    "version": 1
  }
}