{
  "contractName": "ERC20SnapshotMock",
  "abi": [
    {
      "inputs": [
        {
          "internalType": "string",
          "name": "name",
          "type": "string"
        },
        {
          "internalType": "string",
          "name": "symbol",
          "type": "string"
        },
        {
          "internalType": "address",
          "name": "initialAccount",
          "type": "address"
        },
        {
          "internalType": "uint256",
          "name": "initialBalance",
          "type": "uint256"
        }
      ],
      "stateMutability": "nonpayable",
      "type": "constructor"
    },
    {
      "anonymous": false,
      "inputs": [
        {
          "indexed": true,
          "internalType": "address",
          "name": "owner",
          "type": "address"
        },
        {
          "indexed": true,
          "internalType": "address",
          "name": "spender",
          "type": "address"
        },
        {
          "indexed": false,
          "internalType": "uint256",
          "name": "value",
          "type": "uint256"
        }
      ],
      "name": "Approval",
      "type": "event"
    },
    {
      "anonymous": false,
      "inputs": [
        {
          "indexed": false,
          "internalType": "uint256",
          "name": "id",
          "type": "uint256"
        }
      ],
      "name": "Snapshot",
      "type": "event"
    },
    {
      "anonymous": false,
      "inputs": [
        {
          "indexed": true,
          "internalType": "address",
          "name": "from",
          "type": "address"
        },
        {
          "indexed": true,
          "internalType": "address",
          "name": "to",
          "type": "address"
        },
        {
          "indexed": false,
          "internalType": "uint256",
          "name": "value",
          "type": "uint256"
        }
      ],
      "name": "Transfer",
      "type": "event"
    },
    {
      "inputs": [
        {
          "internalType": "address",
          "name": "owner",
          "type": "address"
        },
        {
          "internalType": "address",
          "name": "spender",
          "type": "address"
        }
      ],
      "name": "allowance",
      "outputs": [
        {
          "internalType": "uint256",
          "name": "",
          "type": "uint256"
        }
      ],
      "stateMutability": "view",
      "type": "function"
    },
    {
      "inputs": [
        {
          "internalType": "address",
          "name": "spender",
          "type": "address"
        },
        {
          "internalType": "uint256",
          "name": "amount",
          "type": "uint256"
        }
      ],
      "name": "approve",
      "outputs": [
        {
          "internalType": "bool",
          "name": "",
          "type": "bool"
        }
      ],
      "stateMutability": "nonpayable",
      "type": "function"
    },
    {
      "inputs": [
        {
          "internalType": "address",
          "name": "account",
          "type": "address"
        }
      ],
      "name": "balanceOf",
      "outputs": [
        {
          "internalType": "uint256",
          "name": "",
          "type": "uint256"
        }
      ],
      "stateMutability": "view",
      "type": "function"
    },
    {
      "inputs": [
        {
          "internalType": "address",
          "name": "account",
          "type": "address"
        },
        {
          "internalType": "uint256",
          "name": "snapshotId",
          "type": "uint256"
        }
      ],
      "name": "balanceOfAt",
      "outputs": [
        {
          "internalType": "uint256",
          "name": "",
          "type": "uint256"
        }
      ],
      "stateMutability": "view",
      "type": "function"
    },
    {
      "inputs": [],
      "name": "decimals",
      "outputs": [
        {
          "internalType": "uint8",
          "name": "",
          "type": "uint8"
        }
      ],
      "stateMutability": "view",
      "type": "function"
    },
    {
      "inputs": [
        {
          "internalType": "address",
          "name": "spender",
          "type": "address"
        },
        {
          "internalType": "uint256",
          "name": "subtractedValue",
          "type": "uint256"
        }
      ],
      "name": "decreaseAllowance",
      "outputs": [
        {
          "internalType": "bool",
          "name": "",
          "type": "bool"
        }
      ],
      "stateMutability": "nonpayable",
      "type": "function"
    },
    {
      "inputs": [
        {
          "internalType": "address",
          "name": "spender",
          "type": "address"
        },
        {
          "internalType": "uint256",
          "name": "addedValue",
          "type": "uint256"
        }
      ],
      "name": "increaseAllowance",
      "outputs": [
        {
          "internalType": "bool",
          "name": "",
          "type": "bool"
        }
      ],
      "stateMutability": "nonpayable",
      "type": "function"
    },
    {
      "inputs": [],
      "name": "name",
      "outputs": [
        {
          "internalType": "string",
          "name": "",
          "type": "string"
        }
      ],
      "stateMutability": "view",
      "type": "function"
    },
    {
      "inputs": [],
      "name": "symbol",
      "outputs": [
        {
          "internalType": "string",
          "name": "",
          "type": "string"
        }
      ],
      "stateMutability": "view",
      "type": "function"
    },
    {
      "inputs": [],
      "name": "totalSupply",
      "outputs": [
        {
          "internalType": "uint256",
          "name": "",
          "type": "uint256"
        }
      ],
      "stateMutability": "view",
      "type": "function"
    },
    {
      "inputs": [
        {
          "internalType": "uint256",
          "name": "snapshotId",
          "type": "uint256"
        }
      ],
      "name": "totalSupplyAt",
      "outputs": [
        {
          "internalType": "uint256",
          "name": "",
          "type": "uint256"
        }
      ],
      "stateMutability": "view",
      "type": "function"
    },
    {
      "inputs": [
        {
          "internalType": "address",
          "name": "recipient",
          "type": "address"
        },
        {
          "internalType": "uint256",
          "name": "amount",
          "type": "uint256"
        }
      ],
      "name": "transfer",
      "outputs": [
        {
          "internalType": "bool",
          "name": "",
          "type": "bool"
        }
      ],
      "stateMutability": "nonpayable",
      "type": "function"
    },
    {
      "inputs": [
        {
          "internalType": "address",
          "name": "sender",
          "type": "address"
        },
        {
          "internalType": "address",
          "name": "recipient",
          "type": "address"
        },
        {
          "internalType": "uint256",
          "name": "amount",
          "type": "uint256"
        }
      ],
      "name": "transferFrom",
      "outputs": [
        {
          "internalType": "bool",
          "name": "",
          "type": "bool"
        }
      ],
      "stateMutability": "nonpayable",
      "type": "function"
    },
    {
      "inputs": [],
      "name": "snapshot",
      "outputs": [],
      "stateMutability": "nonpayable",
      "type": "function"
    },
    {
      "inputs": [
        {
          "internalType": "address",
          "name": "account",
          "type": "address"
        },
        {
          "internalType": "uint256",
          "name": "amount",
          "type": "uint256"
        }
      ],
      "name": "mint",
      "outputs": [],
      "stateMutability": "nonpayable",
      "type": "function"
    },
    {
      "inputs": [
        {
          "internalType": "address",
          "name": "account",
          "type": "address"
        },
        {
          "internalType": "uint256",
          "name": "amount",
          "type": "uint256"
        }
      ],
      "name": "burn",
      "outputs": [],
      "stateMutability": "nonpayable",
      "type": "function"
    }
  ],
  "bytecode": "0x60806040523480156200001157600080fd5b506040516200242738038062002427833981810160405260808110156200003757600080fd5b81019080805160405193929190846401000000008211156200005857600080fd5b838201915060208201858111156200006f57600080fd5b82518660018202830111640100000000821117156200008d57600080fd5b8083526020830192505050908051906020019080838360005b83811015620000c3578082015181840152602081019050620000a6565b50505050905090810190601f168015620000f15780820380516001836020036101000a031916815260200191505b50604052602001805160405193929190846401000000008211156200011557600080fd5b838201915060208201858111156200012c57600080fd5b82518660018202830111640100000000821117156200014a57600080fd5b8083526020830192505050908051906020019080838360005b838110156200018057808201518184015260208101905062000163565b50505050905090810190601f168015620001ae5780820380516001836020036101000a031916815260200191505b50604052602001805190602001909291908051906020019092919050505083838160039080519060200190620001e69291906200075b565b508060049080519060200190620001ff9291906200075b565b506012600560006101000a81548160ff021916908360ff16021790555050506200023082826200023a60201b60201c565b5050505062000811565b600073ffffffffffffffffffffffffffffffffffffffff168273ffffffffffffffffffffffffffffffffffffffff161415620002de576040517f08c379a000000000000000000000000000000000000000000000000000000000815260040180806020018281038252601f8152602001807f45524332303a206d696e7420746f20746865207a65726f20616464726573730081525060200191505060405180910390fd5b620002f2600083836200041860201b60201c565b6200030e816002546200051360201b62000c091790919060201c565b6002819055506200036c816000808573ffffffffffffffffffffffffffffffffffffffff1673ffffffffffffffffffffffffffffffffffffffff168152602001908152602001600020546200051360201b62000c091790919060201c565b6000808473ffffffffffffffffffffffffffffffffffffffff1673ffffffffffffffffffffffffffffffffffffffff168152602001908152602001600020819055508173ffffffffffffffffffffffffffffffffffffffff16600073ffffffffffffffffffffffffffffffffffffffff167fddf252ad1be2c89b69c2b068fc378daa952ba7f163c4a11628f55a4df523b3ef836040518082815260200191505060405180910390a35050565b620004308383836200059c60201b62000c911760201c565b600073ffffffffffffffffffffffffffffffffffffffff168373ffffffffffffffffffffffffffffffffffffffff1614156200048d576200047782620005a160201b60201c565b620004876200060460201b60201c565b6200050e565b600073ffffffffffffffffffffffffffffffffffffffff168273ffffffffffffffffffffffffffffffffffffffff161415620004ea57620004d483620005a160201b60201c565b620004e46200060460201b60201c565b6200050d565b620004fb83620005a160201b60201c565b6200050c82620005a160201b60201c565b5b5b505050565b60008082840190508381101562000592576040517f08c379a000000000000000000000000000000000000000000000000000000000815260040180806020018281038252601b8152602001807f536166654d6174683a206164646974696f6e206f766572666c6f77000000000081525060200191505060405180910390fd5b8091505092915050565b505050565b62000601600660008373ffffffffffffffffffffffffffffffffffffffff1673ffffffffffffffffffffffffffffffffffffffff168152602001908152602001600020620005f5836200062860201b60201c565b6200067060201b60201c565b50565b6200062660076200061a6200070360201b60201c565b6200067060201b60201c565b565b60008060008373ffffffffffffffffffffffffffffffffffffffff1673ffffffffffffffffffffffffffffffffffffffff168152602001908152602001600020549050919050565b60006200068960096200070d60201b62000c961760201c565b905080620006a0846000016200071b60201b60201c565b1015620006fe5782600001819080600181540180825580915050600190039060005260206000200160009091909190915055826001018290806001815401808255809150506001900390600052602060002001600090919091909150555b505050565b6000600254905090565b600081600001549050919050565b6000808280549050141562000734576000905062000756565b816001838054905003815481106200074857fe5b906000526020600020015490505b919050565b828054600181600116156101000203166002900490600052602060002090601f016020900481019282620007935760008555620007df565b82601f10620007ae57805160ff1916838001178555620007df565b82800160010185558215620007df579182015b82811115620007de578251825591602001919060010190620007c1565b5b509050620007ee9190620007f2565b5090565b5b808211156200080d576000816000905550600101620007f3565b5090565b611c0680620008216000396000f3fe608060405234801561001057600080fd5b50600436106101005760003560e01c806370a08231116100975780639dc29fac116100665780639dc29fac146104ea578063a457c2d714610538578063a9059cbb1461059c578063dd62ed3e1461060057610100565b806370a08231146103c357806395d89b411461041b5780639711715a1461049e578063981b24d0146104a857610100565b8063313ce567116100d3578063313ce5671461028e57806339509351146102af57806340c10f19146103135780634ee2cd7e1461036157610100565b806306fdde0314610105578063095ea7b31461018857806318160ddd146101ec57806323b872dd1461020a575b600080fd5b61010d610678565b6040518080602001828103825283818151815260200191508051906020019080838360005b8381101561014d578082015181840152602081019050610132565b50505050905090810190601f16801561017a5780820380516001836020036101000a031916815260200191505b509250505060405180910390f35b6101d46004803603604081101561019e57600080fd5b81019080803573ffffffffffffffffffffffffffffffffffffffff1690602001909291908035906020019092919050505061071a565b60405180821515815260200191505060405180910390f35b6101f4610738565b6040518082815260200191505060405180910390f35b6102766004803603606081101561022057600080fd5b81019080803573ffffffffffffffffffffffffffffffffffffffff169060200190929190803573ffffffffffffffffffffffffffffffffffffffff16906020019092919080359060200190929190505050610742565b60405180821515815260200191505060405180910390f35b61029661081b565b604051808260ff16815260200191505060405180910390f35b6102fb600480360360408110156102c557600080fd5b81019080803573ffffffffffffffffffffffffffffffffffffffff16906020019092919080359060200190929190505050610832565b60405180821515815260200191505060405180910390f35b61035f6004803603604081101561032957600080fd5b81019080803573ffffffffffffffffffffffffffffffffffffffff169060200190929190803590602001909291905050506108e5565b005b6103ad6004803603604081101561037757600080fd5b81019080803573ffffffffffffffffffffffffffffffffffffffff169060200190929190803590602001909291905050506108f3565b6040518082815260200191505060405180910390f35b610405600480360360208110156103d957600080fd5b81019080803573ffffffffffffffffffffffffffffffffffffffff169060200190929190505050610963565b6040518082815260200191505060405180910390f35b6104236109ab565b6040518080602001828103825283818151815260200191508051906020019080838360005b83811015610463578082015181840152602081019050610448565b50505050905090810190601f1680156104905780820380516001836020036101000a031916815260200191505b509250505060405180910390f35b6104a6610a4d565b005b6104d4600480360360208110156104be57600080fd5b8101908080359060200190929190505050610a58565b6040518082815260200191505060405180910390f35b6105366004803603604081101561050057600080fd5b81019080803573ffffffffffffffffffffffffffffffffffffffff16906020019092919080359060200190929190505050610a89565b005b6105846004803603604081101561054e57600080fd5b81019080803573ffffffffffffffffffffffffffffffffffffffff16906020019092919080359060200190929190505050610a97565b60405180821515815260200191505060405180910390f35b6105e8600480360360408110156105b257600080fd5b81019080803573ffffffffffffffffffffffffffffffffffffffff16906020019092919080359060200190929190505050610b64565b60405180821515815260200191505060405180910390f35b6106626004803603604081101561061657600080fd5b81019080803573ffffffffffffffffffffffffffffffffffffffff169060200190929190803573ffffffffffffffffffffffffffffffffffffffff169060200190929190505050610b82565b6040518082815260200191505060405180910390f35b606060038054600181600116156101000203166002900480601f0160208091040260200160405190810160405280929190818152602001828054600181600116156101000203166002900480156107105780601f106106e557610100808354040283529160200191610710565b820191906000526020600020905b8154815290600101906020018083116106f357829003601f168201915b5050505050905090565b600061072e610727610ca4565b8484610cac565b6001905092915050565b6000600254905090565b600061074f848484610ea3565b6108108461075b610ca4565b61080b85604051806060016040528060288152602001611b1a60289139600160008b73ffffffffffffffffffffffffffffffffffffffff1673ffffffffffffffffffffffffffffffffffffffff16815260200190815260200160002060006107c1610ca4565b73ffffffffffffffffffffffffffffffffffffffff1673ffffffffffffffffffffffffffffffffffffffff168152602001908152602001600020546111649092919063ffffffff16565b610cac565b600190509392505050565b6000600560009054906101000a900460ff16905090565b60006108db61083f610ca4565b846108d68560016000610850610ca4565b73ffffffffffffffffffffffffffffffffffffffff1673ffffffffffffffffffffffffffffffffffffffff16815260200190815260200160002060008973ffffffffffffffffffffffffffffffffffffffff1673ffffffffffffffffffffffffffffffffffffffff16815260200190815260200160002054610c0990919063ffffffff16565b610cac565b6001905092915050565b6108ef8282611224565b5050565b600080600061094084600660008873ffffffffffffffffffffffffffffffffffffffff1673ffffffffffffffffffffffffffffffffffffffff1681526020019081526020016000206113eb565b91509150816109575761095285610963565b610959565b805b9250505092915050565b60008060008373ffffffffffffffffffffffffffffffffffffffff1673ffffffffffffffffffffffffffffffffffffffff168152602001908152602001600020549050919050565b606060048054600181600116156101000203166002900480601f016020809104026020016040519081016040528092919081815260200182805460018160011615610100020316600290048015610a435780601f10610a1857610100808354040283529160200191610a43565b820191906000526020600020905b815481529060010190602001808311610a2657829003601f168201915b5050505050905090565b610a55611542565b50565b6000806000610a688460076113eb565b9150915081610a7e57610a79610738565b610a80565b805b92505050919050565b610a93828261159a565b5050565b6000610b5a610aa4610ca4565b84610b5585604051806060016040528060258152602001611bac6025913960016000610ace610ca4565b73ffffffffffffffffffffffffffffffffffffffff1673ffffffffffffffffffffffffffffffffffffffff16815260200190815260200160002060008a73ffffffffffffffffffffffffffffffffffffffff1673ffffffffffffffffffffffffffffffffffffffff168152602001908152602001600020546111649092919063ffffffff16565b610cac565b6001905092915050565b6000610b78610b71610ca4565b8484610ea3565b6001905092915050565b6000600160008473ffffffffffffffffffffffffffffffffffffffff1673ffffffffffffffffffffffffffffffffffffffff16815260200190815260200160002060008373ffffffffffffffffffffffffffffffffffffffff1673ffffffffffffffffffffffffffffffffffffffff16815260200190815260200160002054905092915050565b600080828401905083811015610c87576040517f08c379a000000000000000000000000000000000000000000000000000000000815260040180806020018281038252601b8152602001807f536166654d6174683a206164646974696f6e206f766572666c6f77000000000081525060200191505060405180910390fd5b8091505092915050565b505050565b600081600001549050919050565b600033905090565b600073ffffffffffffffffffffffffffffffffffffffff168373ffffffffffffffffffffffffffffffffffffffff161415610d32576040517f08c379a0000000000000000000000000000000000000000000000000000000008152600401808060200182810382526024815260200180611b886024913960400191505060405180910390fd5b600073ffffffffffffffffffffffffffffffffffffffff168273ffffffffffffffffffffffffffffffffffffffff161415610db8576040517f08c379a0000000000000000000000000000000000000000000000000000000008152600401808060200182810382526022815260200180611ad26022913960400191505060405180910390fd5b80600160008573ffffffffffffffffffffffffffffffffffffffff1673ffffffffffffffffffffffffffffffffffffffff16815260200190815260200160002060008473ffffffffffffffffffffffffffffffffffffffff1673ffffffffffffffffffffffffffffffffffffffff168152602001908152602001600020819055508173ffffffffffffffffffffffffffffffffffffffff168373ffffffffffffffffffffffffffffffffffffffff167f8c5be1e5ebec7d5bd14f71427d1e84f3dd0314c0f7b2291e5b200ac8c7c3b925836040518082815260200191505060405180910390a3505050565b600073ffffffffffffffffffffffffffffffffffffffff168373ffffffffffffffffffffffffffffffffffffffff161415610f29576040517f08c379a0000000000000000000000000000000000000000000000000000000008152600401808060200182810382526025815260200180611b636025913960400191505060405180910390fd5b600073ffffffffffffffffffffffffffffffffffffffff168273ffffffffffffffffffffffffffffffffffffffff161415610faf576040517f08c379a0000000000000000000000000000000000000000000000000000000008152600401808060200182810382526023815260200180611a8d6023913960400191505060405180910390fd5b610fba83838361175e565b61102581604051806060016040528060268152602001611af4602691396000808773ffffffffffffffffffffffffffffffffffffffff1673ffffffffffffffffffffffffffffffffffffffff168152602001908152602001600020546111649092919063ffffffff16565b6000808573ffffffffffffffffffffffffffffffffffffffff1673ffffffffffffffffffffffffffffffffffffffff168152602001908152602001600020819055506110b8816000808573ffffffffffffffffffffffffffffffffffffffff1673ffffffffffffffffffffffffffffffffffffffff16815260200190815260200160002054610c0990919063ffffffff16565b6000808473ffffffffffffffffffffffffffffffffffffffff1673ffffffffffffffffffffffffffffffffffffffff168152602001908152602001600020819055508173ffffffffffffffffffffffffffffffffffffffff168373ffffffffffffffffffffffffffffffffffffffff167fddf252ad1be2c89b69c2b068fc378daa952ba7f163c4a11628f55a4df523b3ef836040518082815260200191505060405180910390a3505050565b6000838311158290611211576040517f08c379a00000000000000000000000000000000000000000000000000000000081526004018080602001828103825283818151815260200191508051906020019080838360005b838110156111d65780820151818401526020810190506111bb565b50505050905090810190601f1680156112035780820380516001836020036101000a031916815260200191505b509250505060405180910390fd5b5060008385039050809150509392505050565b600073ffffffffffffffffffffffffffffffffffffffff168273ffffffffffffffffffffffffffffffffffffffff1614156112c7576040517f08c379a000000000000000000000000000000000000000000000000000000000815260040180806020018281038252601f8152602001807f45524332303a206d696e7420746f20746865207a65726f20616464726573730081525060200191505060405180910390fd5b6112d36000838361175e565b6112e881600254610c0990919063ffffffff16565b60028190555061133f816000808573ffffffffffffffffffffffffffffffffffffffff1673ffffffffffffffffffffffffffffffffffffffff16815260200190815260200160002054610c0990919063ffffffff16565b6000808473ffffffffffffffffffffffffffffffffffffffff1673ffffffffffffffffffffffffffffffffffffffff168152602001908152602001600020819055508173ffffffffffffffffffffffffffffffffffffffff16600073ffffffffffffffffffffffffffffffffffffffff167fddf252ad1be2c89b69c2b068fc378daa952ba7f163c4a11628f55a4df523b3ef836040518082815260200191505060405180910390a35050565b60008060008411611464576040517f08c379a00000000000000000000000000000000000000000000000000000000081526004018080602001828103825260168152602001807f4552433230536e617073686f743a20696420697320300000000000000000000081525060200191505060405180910390fd5b61146e6009610c96565b8411156114e3576040517f08c379a000000000000000000000000000000000000000000000000000000000815260040180806020018281038252601d8152602001807f4552433230536e617073686f743a206e6f6e6578697374656e7420696400000081525060200191505060405180910390fd5b60006114fb858560000161181890919063ffffffff16565b9050836000018054905081141561151957600080925092505061153b565b600184600101828154811061152a57fe5b906000526020600020015492509250505b9250929050565b600061154e60096118c9565b600061155a6009610c96565b90507f8030e83b04d87bef53480e26263266d6ca66863aa8506aca6f2559d18aa1cb67816040518082815260200191505060405180910390a18091505090565b600073ffffffffffffffffffffffffffffffffffffffff168273ffffffffffffffffffffffffffffffffffffffff161415611620576040517f08c379a0000000000000000000000000000000000000000000000000000000008152600401808060200182810382526021815260200180611b426021913960400191505060405180910390fd5b61162c8260008361175e565b61169781604051806060016040528060228152602001611ab0602291396000808673ffffffffffffffffffffffffffffffffffffffff1673ffffffffffffffffffffffffffffffffffffffff168152602001908152602001600020546111649092919063ffffffff16565b6000808473ffffffffffffffffffffffffffffffffffffffff1673ffffffffffffffffffffffffffffffffffffffff168152602001908152602001600020819055506116ee816002546118df90919063ffffffff16565b600281905550600073ffffffffffffffffffffffffffffffffffffffff168273ffffffffffffffffffffffffffffffffffffffff167fddf252ad1be2c89b69c2b068fc378daa952ba7f163c4a11628f55a4df523b3ef836040518082815260200191505060405180910390a35050565b611769838383610c91565b600073ffffffffffffffffffffffffffffffffffffffff168373ffffffffffffffffffffffffffffffffffffffff1614156117b4576117a782611929565b6117af61197c565b611813565b600073ffffffffffffffffffffffffffffffffffffffff168273ffffffffffffffffffffffffffffffffffffffff1614156117ff576117f283611929565b6117fa61197c565b611812565b61180883611929565b61181182611929565b5b5b505050565b6000808380549050141561182f57600090506118c3565b600080848054905090505b8082101561188357600061184e8383611990565b90508486828154811061185d57fe5b906000526020600020015411156118765780915061187d565b6001810192505b5061183a565b6000821180156118ab57508385600184038154811061189e57fe5b9060005260206000200154145b156118bd5760018203925050506118c3565b81925050505b92915050565b6001816000016000828254019250508190555050565b600061192183836040518060400160405280601e81526020017f536166654d6174683a207375627472616374696f6e206f766572666c6f770000815250611164565b905092915050565b611979600660008373ffffffffffffffffffffffffffffffffffffffff1673ffffffffffffffffffffffffffffffffffffffff16815260200190815260200160002061197483610963565b6119d2565b50565b61198e6007611989610738565b6119d2565b565b6000600280838161199d57fe5b06600285816119a857fe5b0601816119b157fe5b04600283816119bc57fe5b04600285816119c757fe5b040101905092915050565b60006119de6009610c96565b9050806119ed84600001611a4f565b1015611a4a5782600001819080600181540180825580915050600190039060005260206000200160009091909190915055826001018290806001815401808255809150506001900390600052602060002001600090919091909150555b505050565b60008082805490501415611a665760009050611a87565b81600183805490500381548110611a7957fe5b906000526020600020015490505b91905056fe45524332303a207472616e7366657220746f20746865207a65726f206164647265737345524332303a206275726e20616d6f756e7420657863656564732062616c616e636545524332303a20617070726f766520746f20746865207a65726f206164647265737345524332303a207472616e7366657220616d6f756e7420657863656564732062616c616e636545524332303a207472616e7366657220616d6f756e74206578636565647320616c6c6f77616e636545524332303a206275726e2066726f6d20746865207a65726f206164647265737345524332303a207472616e736665722066726f6d20746865207a65726f206164647265737345524332303a20617070726f76652066726f6d20746865207a65726f206164647265737345524332303a2064656372656173656420616c6c6f77616e63652062656c6f77207a65726fa26469706673582212200265e09e7382c56e049902a32fee74f27bdf982fa474373866fcfbee24a9574464736f6c63430007050033",
  "immutableReferences": {},
  "source": "// SPDX-License-Identifier: MIT\n\npragma solidity >=0.6.0 <0.8.0;\n\nimport \"../token/ERC20/ERC20Snapshot.sol\";\n\n\ncontract ERC20SnapshotMock is ERC20Snapshot {\n    constructor(\n        string memory name,\n        string memory symbol,\n        address initialAccount,\n        uint256 initialBalance\n    ) public ERC20(name, symbol) {\n        _mint(initialAccount, initialBalance);\n    }\n\n    function snapshot() public {\n        _snapshot();\n    }\n\n    function mint(address account, uint256 amount) public {\n        _mint(account, amount);\n    }\n\n    function burn(address account, uint256 amount) public {\n        _burn(account, amount);\n    }\n}\n",
  "sourcePath": "/home/darkdark/block_projs/rome_stuff/Test-Ground.io/contracts/openzeppelin-contracts/contracts/mocks/ERC20SnapshotMock.sol",
  "compiler": {
    "name": "solc",
    "version": "0.7.5+commit.eb77ed08.Emscripten.clang"
  },
  "schemaVersion": "3.3.2",
  "updatedAt": "2021-01-25T23:00:30.005Z",
  "devdoc": {
    "kind": "dev",
    "methods": {
      "allowance(address,address)": {
        "details": "See {IERC20-allowance}."
      },
      "approve(address,uint256)": {
        "details": "See {IERC20-approve}. Requirements: - `spender` cannot be the zero address."
      },
      "balanceOf(address)": {
        "details": "See {IERC20-balanceOf}."
      },
      "balanceOfAt(address,uint256)": {
        "details": "Retrieves the balance of `account` at the time `snapshotId` was created."
      },
      "decimals()": {
        "details": "Returns the number of decimals used to get its user representation. For example, if `decimals` equals `2`, a balance of `505` tokens should be displayed to a user as `5,05` (`505 / 10 ** 2`). Tokens usually opt for a value of 18, imitating the relationship between Ether and Wei. This is the value {ERC20} uses, unless {_setupDecimals} is called. NOTE: This information is only used for _display_ purposes: it in no way affects any of the arithmetic of the contract, including {IERC20-balanceOf} and {IERC20-transfer}."
      },
      "decreaseAllowance(address,uint256)": {
        "details": "Atomically decreases the allowance granted to `spender` by the caller. This is an alternative to {approve} that can be used as a mitigation for problems described in {IERC20-approve}. Emits an {Approval} event indicating the updated allowance. Requirements: - `spender` cannot be the zero address. - `spender` must have allowance for the caller of at least `subtractedValue`."
      },
      "increaseAllowance(address,uint256)": {
        "details": "Atomically increases the allowance granted to `spender` by the caller. This is an alternative to {approve} that can be used as a mitigation for problems described in {IERC20-approve}. Emits an {Approval} event indicating the updated allowance. Requirements: - `spender` cannot be the zero address."
      },
      "name()": {
        "details": "Returns the name of the token."
      },
      "symbol()": {
        "details": "Returns the symbol of the token, usually a shorter version of the name."
      },
      "totalSupply()": {
        "details": "See {IERC20-totalSupply}."
      },
      "totalSupplyAt(uint256)": {
        "details": "Retrieves the total supply at the time `snapshotId` was created."
      },
      "transfer(address,uint256)": {
        "details": "See {IERC20-transfer}. Requirements: - `recipient` cannot be the zero address. - the caller must have a balance of at least `amount`."
      },
      "transferFrom(address,address,uint256)": {
        "details": "See {IERC20-transferFrom}. Emits an {Approval} event indicating the updated allowance. This is not required by the EIP. See the note at the beginning of {ERC20}. Requirements: - `sender` and `recipient` cannot be the zero address. - `sender` must have a balance of at least `amount`. - the caller must have allowance for ``sender``'s tokens of at least `amount`."
      }
    },
    "version": 1
  },
  "userdoc": {
    "kind": "user",
    "methods": {},
    "version": 1
  }
}