{
  "contractName": "Implementation4",
  "abi": [
    {
      "stateMutability": "nonpayable",
      "type": "fallback"
    },
    {
      "inputs": [],
      "name": "initialize",
      "outputs": [],
      "stateMutability": "nonpayable",
      "type": "function"
    },
    {
      "inputs": [
        {
          "internalType": "uint256",
          "name": "_number",
          "type": "uint256"
        }
      ],
      "name": "setValue",
      "outputs": [],
      "stateMutability": "nonpayable",
      "type": "function"
    },
    {
      "inputs": [],
      "name": "getValue",
      "outputs": [
        {
          "internalType": "uint256",
          "name": "",
          "type": "uint256"
        }
      ],
      "stateMutability": "view",
      "type": "function"
    }
  ],
  "bytecode": "0x608060405234801561001057600080fd5b50610232806100206000396000f3fe608060405234801561001057600080fd5b50600436106100455760003560e01c8063209652551461004f578063552410771461006d5780638129fc1c1461009b57610046565b5b60018081905550005b6100576100a5565b6040518082815260200191505060405180910390f35b6100996004803603602081101561008357600080fd5b81019080803590602001909291905050506100af565b005b6100a36100b9565b005b6000600154905090565b8060018190555050565b600060019054906101000a900460ff16806100d857506100d76101b7565b5b806100ee575060008054906101000a900460ff16155b610143576040517f08c379a000000000000000000000000000000000000000000000000000000000815260040180806020018281038252602e8152602001806101cf602e913960400191505060405180910390fd5b60008060019054906101000a900460ff161590508015610193576001600060016101000a81548160ff02191690831515021790555060016000806101000a81548160ff0219169083151502179055505b80156101b45760008060016101000a81548160ff0219169083151502179055505b50565b6000803090506000813b905060008114925050509056fe496e697469616c697a61626c653a20636f6e747261637420697320616c726561647920696e697469616c697a6564a2646970667358221220e6b1729bd9cb10126b999c96e7ed09b0410679207177068e1fa938881df3baa464736f6c63430007050033",
  "immutableReferences": {},
  "source": "// SPDX-License-Identifier: MIT\n\npragma solidity >=0.6.0 <0.8.0;\n\nimport \"../proxy/Initializable.sol\";\n\ncontract Implementation1 is Initializable {\n  uint internal _value;\n\n  function initialize() public initializer {\n  }\n\n  function setValue(uint _number) public {\n    _value = _number;\n  }\n}\n\ncontract Implementation2 is Initializable {\n  uint internal _value;\n\n  function initialize() public initializer {\n  }\n\n  function setValue(uint _number) public {\n    _value = _number;\n  }\n\n  function getValue() public view returns (uint) {\n    return _value;\n  }\n}\n\ncontract Implementation3 is Initializable {\n  uint internal _value;\n\n  function initialize() public initializer {\n  }\n\n  function setValue(uint _number) public {\n    _value = _number;\n  }\n\n  function getValue(uint _number) public view returns (uint) {\n    return _value + _number;\n  }\n}\n\ncontract Implementation4 is Initializable {\n  uint internal _value;\n\n  function initialize() public initializer {\n  }\n\n  function setValue(uint _number) public {\n    _value = _number;\n  }\n\n  function getValue() public view returns (uint) {\n    return _value;\n  }\n\n  // solhint-disable-next-line payable-fallback\n  fallback() external {\n    _value = 1;\n  }\n}\n",
  "sourcePath": "/home/darkdark/block_projs/rome_stuff/Test-Ground.io/contracts/openzeppelin-contracts/contracts/mocks/RegressionImplementation.sol",
  "compiler": {
    "name": "solc",
    "version": "0.7.5+commit.eb77ed08.Emscripten.clang"
  },
  "schemaVersion": "3.3.2",
  "updatedAt": "2021-01-26T07:38:25.401Z",
  "devdoc": {
    "kind": "dev",
    "methods": {},
    "version": 1
  },
  "userdoc": {
    "kind": "user",
    "methods": {},
    "version": 1
  }
}