{
  "contractName": "justStoreItStrategy",
  "abi": [
    {
      "inputs": [
        {
          "internalType": "address",
          "name": "coin",
          "type": "address"
        },
        {
          "internalType": "address",
          "name": "pool",
          "type": "address"
        }
      ],
      "stateMutability": "nonpayable",
      "type": "constructor"
    },
    {
      "inputs": [
        {
          "internalType": "uint256",
          "name": "amount",
          "type": "uint256"
        }
      ],
      "name": "deposit",
      "outputs": [],
      "stateMutability": "nonpayable",
      "type": "function"
    },
    {
      "inputs": [
        {
          "internalType": "uint256",
          "name": "amount",
          "type": "uint256"
        }
      ],
      "name": "withdraw",
      "outputs": [],
      "stateMutability": "nonpayable",
      "type": "function"
    },
    {
      "inputs": [],
      "name": "withdrawAll",
      "outputs": [
        {
          "internalType": "uint256",
          "name": "",
          "type": "uint256"
        }
      ],
      "stateMutability": "nonpayable",
      "type": "function"
    },
    {
      "inputs": [],
      "name": "totalBalance",
      "outputs": [
        {
          "internalType": "uint256",
          "name": "",
          "type": "uint256"
        }
      ],
      "stateMutability": "view",
      "type": "function"
    }
  ],
  "bytecode": "0x608060405234801561001057600080fd5b506040516106273803806106278339818101604052604081101561003357600080fd5b810190808051906020019092919080519060200190929190505050816000806101000a81548173ffffffffffffffffffffffffffffffffffffffff021916908373ffffffffffffffffffffffffffffffffffffffff16021790555080600160006101000a81548173ffffffffffffffffffffffffffffffffffffffff021916908373ffffffffffffffffffffffffffffffffffffffff1602179055505050610547806100e06000396000f3fe608060405234801561001057600080fd5b506004361061004c5760003560e01c80632e1a7d4d14610051578063853828b61461007f578063ad7a672f1461009d578063b6b55f25146100bb575b600080fd5b61007d6004803603602081101561006757600080fd5b81019080803590602001909291905050506100e9565b005b610087610235565b6040518082815260200191505060405180910390f35b6100a5610444565b6040518082815260200191505060405180910390f35b6100e7600480360360208110156100d157600080fd5b810190808035906020019092919050505061050e565b005b600160009054906101000a900473ffffffffffffffffffffffffffffffffffffffff1673ffffffffffffffffffffffffffffffffffffffff163373ffffffffffffffffffffffffffffffffffffffff161461014357600080fd5b60008054906101000a900473ffffffffffffffffffffffffffffffffffffffff1673ffffffffffffffffffffffffffffffffffffffff1663a9059cbb600160009054906101000a900473ffffffffffffffffffffffffffffffffffffffff16836040518363ffffffff1660e01b8152600401808373ffffffffffffffffffffffffffffffffffffffff16815260200182815260200192505050602060405180830381600087803b1580156101f657600080fd5b505af115801561020a573d6000803e3d6000fd5b505050506040513d602081101561022057600080fd5b81019080805190602001909291905050505050565b6000600160009054906101000a900473ffffffffffffffffffffffffffffffffffffffff1673ffffffffffffffffffffffffffffffffffffffff163373ffffffffffffffffffffffffffffffffffffffff161461029157600080fd5b60008054906101000a900473ffffffffffffffffffffffffffffffffffffffff1673ffffffffffffffffffffffffffffffffffffffff1663a9059cbb600160009054906101000a900473ffffffffffffffffffffffffffffffffffffffff1660008054906101000a900473ffffffffffffffffffffffffffffffffffffffff1673ffffffffffffffffffffffffffffffffffffffff166370a08231306040518263ffffffff1660e01b8152600401808273ffffffffffffffffffffffffffffffffffffffff16815260200191505060206040518083038186803b15801561037757600080fd5b505afa15801561038b573d6000803e3d6000fd5b505050506040513d60208110156103a157600080fd5b81019080805190602001909291905050506040518363ffffffff1660e01b8152600401808373ffffffffffffffffffffffffffffffffffffffff16815260200182815260200192505050602060405180830381600087803b15801561040557600080fd5b505af1158015610419573d6000803e3d6000fd5b505050506040513d602081101561042f57600080fd5b81019080805190602001909291905050505090565b60008060009054906101000a900473ffffffffffffffffffffffffffffffffffffffff1673ffffffffffffffffffffffffffffffffffffffff166370a08231306040518263ffffffff1660e01b8152600401808273ffffffffffffffffffffffffffffffffffffffff16815260200191505060206040518083038186803b1580156104ce57600080fd5b505afa1580156104e2573d6000803e3d6000fd5b505050506040513d60208110156104f857600080fd5b8101908080519060200190929190505050905090565b5056fea26469706673582212203e83d4e33f71a60464ef0becf390b64b58e1333b2d81258ebd1b3a30d9d56ba564736f6c63430007050033",
  "immutableReferences": {},
  "source": "import \"./IStrategy.sol\";\r\nimport \"./Pool.sol\";\r\nimport \"./openzeppelin-contracts/contracts/token/ERC20/ERC20.sol\";\r\nimport \"./openzeppelin-contracts/contracts/token/ERC20/IERC20.sol\";\r\n\r\n\r\ncontract justStoreItStrategy is IStrategy{\r\n\r\n    IERC20 Coin;\r\n    Pool MyPool;\r\n\r\n    constructor(address coin, address pool) {\r\n        Coin = IERC20(coin);\r\n        MyPool = Pool(pool);\r\n    }\r\n\r\n\r\n\r\n\r\n\r\n\r\n\r\n\r\n\r\n    function deposit(uint256 amount) external override{\r\n\r\n    }\r\n\r\n    // Controller | Vault role - withdraw should always return to Vault\r\n    function withdraw(uint256 amount) external override{\r\n        require(msg.sender == address(MyPool));\r\n        Coin.transfer(address(MyPool),  amount);\r\n    }\r\n\r\n    // Controller | Vault role - withdraw should always return to Vault\r\n    function withdrawAll() external override returns (uint256){\r\n        require(msg.sender == address(MyPool));\r\n        Coin.transfer(address(MyPool),  Coin.balanceOf(address(this)));\r\n    }\r\n\r\n    //returns total balance of all funds in the strategy in some number forms that corresponds to the underlying strategy\r\n    //should have the users balance in strategy be proportional to their ownership of the pool's liquidity\r\n    function totalBalance() external view override returns (uint256){\r\n        return Coin.balanceOf(address(this));\r\n    }\r\n\r\n}\r\n\r\n\r\n",
  "sourcePath": "/home/darkdark/block_projs/rome_stuff/Test-Ground.io/contracts/justStoreItStrategy.sol",
  "compiler": {
    "name": "solc",
    "version": "0.7.5+commit.eb77ed08.Emscripten.clang"
  },
  "schemaVersion": "3.3.2",
  "updatedAt": "2021-01-26T06:59:49.063Z",
  "devdoc": {
    "kind": "dev",
    "methods": {},
    "version": 1
  },
  "userdoc": {
    "kind": "user",
    "methods": {},
    "version": 1
  }
}