{
  "contractName": "justStoreItStrategy",
  "abi": [
    {
      "inputs": [
        {
          "internalType": "address",
          "name": "coin",
          "type": "address"
        },
        {
          "internalType": "address",
          "name": "pool",
          "type": "address"
        }
      ],
      "stateMutability": "nonpayable",
      "type": "constructor"
    },
    {
      "inputs": [
        {
          "internalType": "uint256",
          "name": "amount",
          "type": "uint256"
        }
      ],
      "name": "deposit",
      "outputs": [],
      "stateMutability": "nonpayable",
      "type": "function"
    },
    {
      "inputs": [
        {
          "internalType": "uint256",
          "name": "amount",
          "type": "uint256"
        }
      ],
      "name": "loseMoney",
      "outputs": [],
      "stateMutability": "nonpayable",
      "type": "function"
    },
    {
      "inputs": [
        {
          "internalType": "uint256",
          "name": "amount",
          "type": "uint256"
        }
      ],
      "name": "withdraw",
      "outputs": [],
      "stateMutability": "nonpayable",
      "type": "function"
    },
    {
      "inputs": [],
      "name": "withdrawAll",
      "outputs": [
        {
          "internalType": "uint256",
          "name": "",
          "type": "uint256"
        }
      ],
      "stateMutability": "nonpayable",
      "type": "function"
    },
    {
      "inputs": [],
      "name": "totalBalance",
      "outputs": [
        {
          "internalType": "uint256",
          "name": "",
          "type": "uint256"
        }
      ],
      "stateMutability": "view",
      "type": "function"
    }
  ],
  "bytecode": "0x608060405234801561001057600080fd5b506040516108023803806108028339818101604052604081101561003357600080fd5b810190808051906020019092919080519060200190929190505050816000806101000a81548173ffffffffffffffffffffffffffffffffffffffff021916908373ffffffffffffffffffffffffffffffffffffffff16021790555080600160006101000a81548173ffffffffffffffffffffffffffffffffffffffff021916908373ffffffffffffffffffffffffffffffffffffffff1602179055505050610722806100e06000396000f3fe608060405234801561001057600080fd5b50600436106100575760003560e01c80632e1a7d4d1461005c578063853828b61461008a578063ad7a672f146100a8578063b6b55f25146100c6578063cb34fe42146100f4575b600080fd5b6100886004803603602081101561007257600080fd5b8101908080359060200190929190505050610122565b005b6100926102d7565b6040518082815260200191505060405180910390f35b6100b061054f565b6040518082815260200191505060405180910390f35b6100f2600480360360208110156100dc57600080fd5b8101908080359060200190929190505050610619565b005b6101206004803603602081101561010a57600080fd5b810190808035906020019092919050505061061c565b005b600160009054906101000a900473ffffffffffffffffffffffffffffffffffffffff1673ffffffffffffffffffffffffffffffffffffffff163373ffffffffffffffffffffffffffffffffffffffff16146101e5576040517f08c379a000000000000000000000000000000000000000000000000000000000815260040180806020018281038252601c8152602001807f6f6e6c7920706f6f6c2063616e2077697468647261772066756e64730000000081525060200191505060405180910390fd5b60008054906101000a900473ffffffffffffffffffffffffffffffffffffffff1673ffffffffffffffffffffffffffffffffffffffff1663a9059cbb600160009054906101000a900473ffffffffffffffffffffffffffffffffffffffff16836040518363ffffffff1660e01b8152600401808373ffffffffffffffffffffffffffffffffffffffff16815260200182815260200192505050602060405180830381600087803b15801561029857600080fd5b505af11580156102ac573d6000803e3d6000fd5b505050506040513d60208110156102c257600080fd5b81019080805190602001909291905050505050565b6000600160009054906101000a900473ffffffffffffffffffffffffffffffffffffffff1673ffffffffffffffffffffffffffffffffffffffff163373ffffffffffffffffffffffffffffffffffffffff161461039c576040517f08c379a000000000000000000000000000000000000000000000000000000000815260040180806020018281038252601c8152602001807f6f6e6c7920706f6f6c2063616e2077697468647261772066756e64730000000081525060200191505060405180910390fd5b60008054906101000a900473ffffffffffffffffffffffffffffffffffffffff1673ffffffffffffffffffffffffffffffffffffffff1663a9059cbb600160009054906101000a900473ffffffffffffffffffffffffffffffffffffffff1660008054906101000a900473ffffffffffffffffffffffffffffffffffffffff1673ffffffffffffffffffffffffffffffffffffffff166370a08231306040518263ffffffff1660e01b8152600401808273ffffffffffffffffffffffffffffffffffffffff16815260200191505060206040518083038186803b15801561048257600080fd5b505afa158015610496573d6000803e3d6000fd5b505050506040513d60208110156104ac57600080fd5b81019080805190602001909291905050506040518363ffffffff1660e01b8152600401808373ffffffffffffffffffffffffffffffffffffffff16815260200182815260200192505050602060405180830381600087803b15801561051057600080fd5b505af1158015610524573d6000803e3d6000fd5b505050506040513d602081101561053a57600080fd5b81019080805190602001909291905050505090565b60008060009054906101000a900473ffffffffffffffffffffffffffffffffffffffff1673ffffffffffffffffffffffffffffffffffffffff166370a08231306040518263ffffffff1660e01b8152600401808273ffffffffffffffffffffffffffffffffffffffff16815260200191505060206040518083038186803b1580156105d957600080fd5b505afa1580156105ed573d6000803e3d6000fd5b505050506040513d602081101561060357600080fd5b8101908080519060200190929190505050905090565b50565b60008054906101000a900473ffffffffffffffffffffffffffffffffffffffff1673ffffffffffffffffffffffffffffffffffffffff1663a9059cbb33836040518363ffffffff1660e01b8152600401808373ffffffffffffffffffffffffffffffffffffffff16815260200182815260200192505050602060405180830381600087803b1580156106ad57600080fd5b505af11580156106c1573d6000803e3d6000fd5b505050506040513d60208110156106d757600080fd5b8101908080519060200190929190505050505056fea26469706673582212205ce1497e6e3a4011299ca431b24131f672d20b9c7aa0b8d0f6b5a7fb26295c7e64736f6c63430007050033",
  "immutableReferences": {},
  "source": "import \"./IStrategy.sol\";\r\nimport \"./Pool.sol\";\r\nimport \"./openzeppelin-contracts/contracts/token/ERC20/ERC20.sol\";\r\nimport \"./openzeppelin-contracts/contracts/token/ERC20/IERC20.sol\";\r\n\r\n\r\ncontract justStoreItStrategy is IStrategy{\r\n\r\n    IERC20 Coin;\r\n    Pool MyPool;\r\n\r\n    constructor(address coin, address pool) {\r\n        Coin = IERC20(coin);\r\n        MyPool = Pool(pool);\r\n    }\r\n\r\n\r\n\r\n\r\n\r\n\r\n\r\n\r\n\r\n    function deposit(uint256 amount) external override{\r\n\r\n    }\r\n\r\n    function loseMoney(uint256 amount) external{\r\n        Coin.transfer(msg.sender, amount);\r\n    }\r\n\r\n    // Controller | Vault role - withdraw should always return to Vault\r\n    function withdraw(uint256 amount) external override{\r\n        require(msg.sender == address(MyPool), \"only pool can withdraw funds\");\r\n        Coin.transfer(address(MyPool),  amount);\r\n    }\r\n\r\n    // Controller | Vault role - withdraw should always return to Vault\r\n    function withdrawAll() external override returns (uint256){\r\n        require(msg.sender == address(MyPool), \"only pool can withdraw funds\");\r\n        Coin.transfer(address(MyPool),  Coin.balanceOf(address(this)));\r\n    }\r\n\r\n    //returns total balance of all funds in the strategy in some number forms that corresponds to the underlying strategy\r\n    //should have the users balance in strategy be proportional to their ownership of the pool's liquidity\r\n    function totalBalance() external view override returns (uint256){\r\n        return Coin.balanceOf(address(this));\r\n    }\r\n\r\n}\r\n\r\n\r\n",
  "sourcePath": "/home/darkdark/block_projs/rome_stuff/Test-Ground.io/contracts/justStoreItStrategy.sol",
  "compiler": {
    "name": "solc",
    "version": "0.7.5+commit.eb77ed08.Emscripten.clang"
  },
  "schemaVersion": "3.3.2",
  "updatedAt": "2021-02-01T08:21:09.262Z",
  "devdoc": {
    "kind": "dev",
    "methods": {},
    "version": 1
  },
  "userdoc": {
    "kind": "user",
    "methods": {},
    "version": 1
  }
}