{
  "contractName": "MigratableMockV1",
  "abi": [
    {
      "inputs": [],
      "name": "x",
      "outputs": [
        {
          "internalType": "uint256",
          "name": "",
          "type": "uint256"
        }
      ],
      "stateMutability": "view",
      "type": "function"
    },
    {
      "inputs": [
        {
          "internalType": "uint256",
          "name": "value",
          "type": "uint256"
        }
      ],
      "name": "initialize",
      "outputs": [],
      "stateMutability": "payable",
      "type": "function"
    }
  ],
  "bytecode": "0x608060405234801561001057600080fd5b5061020e806100206000396000f3fe6080604052600436106100295760003560e01c80630c55699c1461002e578063fe4b84df14610059575b600080fd5b34801561003a57600080fd5b50610043610087565b6040518082815260200191505060405180910390f35b6100856004803603602081101561006f57600080fd5b810190808035906020019092919050505061008d565b005b60015481565b600060019054906101000a900460ff16806100ac57506100ab610193565b5b806100c2575060008054906101000a900460ff16155b610117576040517f08c379a000000000000000000000000000000000000000000000000000000000815260040180806020018281038252602e8152602001806101ab602e913960400191505060405180910390fd5b60008060019054906101000a900460ff161590508015610167576001600060016101000a81548160ff02191690831515021790555060016000806101000a81548160ff0219169083151502179055505b81600181905550801561018f5760008060016101000a81548160ff0219169083151502179055505b5050565b6000803090506000813b905060008114925050509056fe496e697469616c697a61626c653a20636f6e747261637420697320616c726561647920696e697469616c697a6564a264697066735822122029d42c6f51dccb268306001aa2091810c7a134832441d2cc85986bb1129f523d64736f6c63430007050033",
  "immutableReferences": {},
  "source": "// SPDX-License-Identifier: MIT\n\npragma solidity >=0.6.0 <0.8.0;\n\nimport \"../proxy/Initializable.sol\";\n\n/**\n * @title MigratableMockV1\n * @dev This contract is a mock to test initializable functionality through migrations\n */\ncontract MigratableMockV1 is Initializable {\n  uint256 public x;\n\n  function initialize(uint256 value) public payable initializer {\n    x = value;\n  }\n}\n\n/**\n * @title MigratableMockV2\n * @dev This contract is a mock to test migratable functionality with params\n */\ncontract MigratableMockV2 is MigratableMockV1 {\n  bool internal _migratedV2;\n  uint256 public y;\n\n  function migrate(uint256 value, uint256 anotherValue) public payable {\n    require(!_migratedV2);\n    x = value;\n    y = anotherValue;\n    _migratedV2 = true;\n  }\n}\n\n/**\n * @title MigratableMockV3\n * @dev This contract is a mock to test migratable functionality without params\n */\ncontract MigratableMockV3 is MigratableMockV2 {\n  bool internal _migratedV3;\n\n  function migrate() public payable {\n    require(!_migratedV3);\n    uint256 oldX = x;\n    x = y;\n    y = oldX;\n    _migratedV3 = true;\n  }\n}\n",
  "sourcePath": "/home/darkdark/block_projs/rome_stuff/Test-Ground.io/contracts/openzeppelin-contracts/contracts/mocks/SingleInheritanceInitializableMocks.sol",
  "compiler": {
    "name": "solc",
    "version": "0.7.5+commit.eb77ed08.Emscripten.clang"
  },
  "schemaVersion": "3.3.2",
  "updatedAt": "2021-01-25T23:00:30.135Z",
  "devdoc": {
    "details": "This contract is a mock to test initializable functionality through migrations",
    "kind": "dev",
    "methods": {},
    "title": "MigratableMockV1",
    "version": 1
  },
  "userdoc": {
    "kind": "user",
    "methods": {},
    "version": 1
  }
}