{
  "contractName": "PoolManager",
  "abi": [
    {
      "inputs": [
        {
          "internalType": "address",
          "name": "regOwn",
          "type": "address"
        },
        {
          "internalType": "string",
          "name": "regName",
          "type": "string"
        }
      ],
      "stateMutability": "nonpayable",
      "type": "constructor"
    },
    {
      "anonymous": false,
      "inputs": [
        {
          "indexed": true,
          "internalType": "address",
          "name": "previousOwner",
          "type": "address"
        },
        {
          "indexed": true,
          "internalType": "address",
          "name": "newOwner",
          "type": "address"
        }
      ],
      "name": "OwnershipTransferred",
      "type": "event"
    },
    {
      "inputs": [],
      "name": "owner",
      "outputs": [
        {
          "internalType": "address",
          "name": "",
          "type": "address"
        }
      ],
      "stateMutability": "view",
      "type": "function"
    },
    {
      "inputs": [],
      "name": "renounceOwnership",
      "outputs": [],
      "stateMutability": "nonpayable",
      "type": "function"
    },
    {
      "inputs": [
        {
          "internalType": "address",
          "name": "newOwner",
          "type": "address"
        }
      ],
      "name": "transferOwnership",
      "outputs": [],
      "stateMutability": "nonpayable",
      "type": "function"
    },
    {
      "inputs": [
        {
          "internalType": "address",
          "name": "newPool",
          "type": "address"
        }
      ],
      "name": "approvePool",
      "outputs": [],
      "stateMutability": "nonpayable",
      "type": "function"
    },
    {
      "inputs": [],
      "name": "deployPool",
      "outputs": [],
      "stateMutability": "nonpayable",
      "type": "function"
    },
    {
      "inputs": [
        {
          "internalType": "address",
          "name": "p",
          "type": "address"
        },
        {
          "internalType": "uint256",
          "name": "amount",
          "type": "uint256"
        }
      ],
      "name": "depositToPool",
      "outputs": [],
      "stateMutability": "nonpayable",
      "type": "function"
    },
    {
      "inputs": [
        {
          "internalType": "address",
          "name": "p",
          "type": "address"
        },
        {
          "internalType": "uint256",
          "name": "amount",
          "type": "uint256"
        }
      ],
      "name": "withdrawFromPool",
      "outputs": [],
      "stateMutability": "nonpayable",
      "type": "function"
    },
    {
      "inputs": [],
      "name": "getRegionOwner",
      "outputs": [
        {
          "internalType": "address",
          "name": "",
          "type": "address"
        }
      ],
      "stateMutability": "view",
      "type": "function"
    },
    {
      "inputs": [],
      "name": "getRegionName",
      "outputs": [
        {
          "internalType": "string",
          "name": "",
          "type": "string"
        }
      ],
      "stateMutability": "view",
      "type": "function"
    }
  ],
  "bytecode": "0x60806040523480156200001157600080fd5b5060405162000f5638038062000f56833981810160405260408110156200003757600080fd5b8101908080519060200190929190805160405193929190846401000000008211156200006257600080fd5b838201915060208201858111156200007957600080fd5b82518660018202830111640100000000821117156200009757600080fd5b8083526020830192505050908051906020019080838360005b83811015620000cd578082015181840152602081019050620000b0565b50505050905090810190601f168015620000fb5780820380516001836020036101000a031916815260200191505b506040525050506000620001146200021460201b60201c565b9050806000806101000a81548173ffffffffffffffffffffffffffffffffffffffff021916908373ffffffffffffffffffffffffffffffffffffffff1602179055508073ffffffffffffffffffffffffffffffffffffffff16600073ffffffffffffffffffffffffffffffffffffffff167f8be0079c531659141344cd1fd0a4f28419497f9722a3daafe3b4186f6b6457e060405160405180910390a3508060039080519060200190620001ca9291906200021c565b5081600260006101000a81548173ffffffffffffffffffffffffffffffffffffffff021916908373ffffffffffffffffffffffffffffffffffffffff1602179055505050620002d2565b600033905090565b828054600181600116156101000203166002900490600052602060002090601f016020900481019282620002545760008555620002a0565b82601f106200026f57805160ff1916838001178555620002a0565b82800160010185558215620002a0579182015b828111156200029f57825182559160200191906001019062000282565b5b509050620002af9190620002b3565b5090565b5b80821115620002ce576000816000905550600101620002b4565b5090565b610c7480620002e26000396000f3fe608060405234801561001057600080fd5b50600436106100935760003560e01c8063715018a611610066578063715018a6146101685780638da5cb5b14610172578063c092d99e146101a6578063c1bf9e5814610229578063f2fde38b1461027757610093565b806314d52751146100985780632f6d58dc146100a2578063424c265b146100f05780636025c08914610134575b600080fd5b6100a06102bb565b005b6100ee600480360360408110156100b857600080fd5b81019080803573ffffffffffffffffffffffffffffffffffffffff169060200190929190803590602001909291905050506102bd565b005b6101326004803603602081101561010657600080fd5b81019080803573ffffffffffffffffffffffffffffffffffffffff169060200190929190505050610551565b005b61013c610679565b604051808273ffffffffffffffffffffffffffffffffffffffff16815260200191505060405180910390f35b6101706106a3565b005b61017a610829565b604051808273ffffffffffffffffffffffffffffffffffffffff16815260200191505060405180910390f35b6101ae610852565b6040518080602001828103825283818151815260200191508051906020019080838360005b838110156101ee5780820151818401526020810190506101d3565b50505050905090810190601f16801561021b5780820380516001836020036101000a031916815260200191505b509250505060405180910390f35b6102756004803603604081101561023f57600080fd5b81019080803573ffffffffffffffffffffffffffffffffffffffff169060200190929190803590602001909291905050506108f4565b005b6102b96004803603602081101561028d57600080fd5b81019080803573ffffffffffffffffffffffffffffffffffffffff1690602001909291905050506109dd565b005b565b6000829050600160008273ffffffffffffffffffffffffffffffffffffffff1673ffffffffffffffffffffffffffffffffffffffff16815260200190815260200160002060009054906101000a900460ff1661031857600080fd5b60008173ffffffffffffffffffffffffffffffffffffffff166321df0da76040518163ffffffff1660e01b815260040160206040518083038186803b15801561036057600080fd5b505afa158015610374573d6000803e3d6000fd5b505050506040513d602081101561038a57600080fd5b8101908080519060200190929190505050905060008173ffffffffffffffffffffffffffffffffffffffff166323b872dd3387876040518463ffffffff1660e01b8152600401808473ffffffffffffffffffffffffffffffffffffffff1681526020018373ffffffffffffffffffffffffffffffffffffffff1681526020018281526020019350505050602060405180830381600087803b15801561042e57600080fd5b505af1158015610442573d6000803e3d6000fd5b505050506040513d602081101561045857600080fd5b81019080805190602001909291905050509050806104c1576040517f08c379a0000000000000000000000000000000000000000000000000000000008152600401808060200182810382526028815260200180610c176028913960400191505060405180910390fd5b8273ffffffffffffffffffffffffffffffffffffffff166347e7ef2433866040518363ffffffff1660e01b8152600401808373ffffffffffffffffffffffffffffffffffffffff16815260200182815260200192505050600060405180830381600087803b15801561053257600080fd5b505af1158015610546573d6000803e3d6000fd5b505050505050505050565b610559610be8565b73ffffffffffffffffffffffffffffffffffffffff1660008054906101000a900473ffffffffffffffffffffffffffffffffffffffff1673ffffffffffffffffffffffffffffffffffffffff1614610619576040517f08c379a00000000000000000000000000000000000000000000000000000000081526004018080602001828103825260208152602001807f4f776e61626c653a2063616c6c6572206973206e6f7420746865206f776e657281525060200191505060405180910390fd5b600081905060018060008373ffffffffffffffffffffffffffffffffffffffff1673ffffffffffffffffffffffffffffffffffffffff16815260200190815260200160002060006101000a81548160ff0219169083151502179055505050565b6000600260009054906101000a900473ffffffffffffffffffffffffffffffffffffffff16905090565b6106ab610be8565b73ffffffffffffffffffffffffffffffffffffffff1660008054906101000a900473ffffffffffffffffffffffffffffffffffffffff1673ffffffffffffffffffffffffffffffffffffffff161461076b576040517f08c379a00000000000000000000000000000000000000000000000000000000081526004018080602001828103825260208152602001807f4f776e61626c653a2063616c6c6572206973206e6f7420746865206f776e657281525060200191505060405180910390fd5b600073ffffffffffffffffffffffffffffffffffffffff1660008054906101000a900473ffffffffffffffffffffffffffffffffffffffff1673ffffffffffffffffffffffffffffffffffffffff167f8be0079c531659141344cd1fd0a4f28419497f9722a3daafe3b4186f6b6457e060405160405180910390a360008060006101000a81548173ffffffffffffffffffffffffffffffffffffffff021916908373ffffffffffffffffffffffffffffffffffffffff160217905550565b60008060009054906101000a900473ffffffffffffffffffffffffffffffffffffffff16905090565b606060038054600181600116156101000203166002900480601f0160208091040260200160405190810160405280929190818152602001828054600181600116156101000203166002900480156108ea5780601f106108bf576101008083540402835291602001916108ea565b820191906000526020600020905b8154815290600101906020018083116108cd57829003601f168201915b5050505050905090565b6000829050600160008273ffffffffffffffffffffffffffffffffffffffff1673ffffffffffffffffffffffffffffffffffffffff16815260200190815260200160002060009054906101000a900460ff1661094f57600080fd5b8073ffffffffffffffffffffffffffffffffffffffff1663f3fef3a333846040518363ffffffff1660e01b8152600401808373ffffffffffffffffffffffffffffffffffffffff16815260200182815260200192505050600060405180830381600087803b1580156109c057600080fd5b505af11580156109d4573d6000803e3d6000fd5b50505050505050565b6109e5610be8565b73ffffffffffffffffffffffffffffffffffffffff1660008054906101000a900473ffffffffffffffffffffffffffffffffffffffff1673ffffffffffffffffffffffffffffffffffffffff1614610aa5576040517f08c379a00000000000000000000000000000000000000000000000000000000081526004018080602001828103825260208152602001807f4f776e61626c653a2063616c6c6572206973206e6f7420746865206f776e657281525060200191505060405180910390fd5b600073ffffffffffffffffffffffffffffffffffffffff168173ffffffffffffffffffffffffffffffffffffffff161415610b2b576040517f08c379a0000000000000000000000000000000000000000000000000000000008152600401808060200182810382526026815260200180610bf16026913960400191505060405180910390fd5b8073ffffffffffffffffffffffffffffffffffffffff1660008054906101000a900473ffffffffffffffffffffffffffffffffffffffff1673ffffffffffffffffffffffffffffffffffffffff167f8be0079c531659141344cd1fd0a4f28419497f9722a3daafe3b4186f6b6457e060405160405180910390a3806000806101000a81548173ffffffffffffffffffffffffffffffffffffffff021916908373ffffffffffffffffffffffffffffffffffffffff16021790555050565b60003390509056fe4f776e61626c653a206e6577206f776e657220697320746865207a65726f20616464726573734661696c656420746f207472616e7366657220746f6b656e2c206e6565647320617070726f76616ca2646970667358221220c80c416f38b61bf74aecb4e58dcf70f8ae0a629e83dbd80688020bfa733fbab564736f6c63430007050033",
  "immutableReferences": {},
  "source": "pragma solidity =0.7.5;\r\n\r\n\r\nimport \"./openzeppelin-contracts/contracts/token/ERC20/ERC20.sol\";\r\nimport \"./openzeppelin-contracts/contracts/access/Ownable.sol\";\r\nimport \"./Pool.sol\";\r\n\r\ncontract PoolManager is Ownable{\r\n    using SafeMath for uint256;\r\n\r\n    mapping(Pool => bool) approvedPools;\r\n    address regionOwner;\r\n    string regionName;\r\n\r\n\r\n\r\n\r\n    constructor(address regOwn, string memory regName) public {\r\n        regionName = regName;\r\n        regionOwner = regOwn;\r\n    }\r\n\r\n\r\n    /*\r\n    should be safe for people because nobody has to invest into new pool we launch without looking at it\r\n    does not give us ability to modify or fuck with existing pools in any way, just add new ones\r\n    */\r\n    function approvePool(address newPool) external onlyOwner{\r\n        Pool np = Pool(newPool);\r\n        approvedPools[np] = true;\r\n    }\r\n\r\n    /*\r\n    @todo think about how this works, with modular yield/vault deployment for regions\r\n    */\r\n    function deployPool() external{\r\n        //make this take paramaters and stuff to deploy a custom pool, then add it to approved pools\r\n    }\r\n\r\n    function depositToPool(address p, uint256 amount ) external{ //p stands for pool\r\n        Pool pool = Pool(p); //cast address to pool\r\n        require(approvedPools[pool]); //make sure pool is approved in out system\r\n\r\n        IERC20 pToken = pool.getToken(); //get the contract of the pools staking token, and make it work like an erc20\r\n        bool success = pToken.transferFrom(msg.sender, p, amount); //transfer tokens from the user to the pool\r\n        require(success, \"Failed to transfer token, needs approval\"); //throw a fit if the transfer doesnt happen\r\n        pool.deposit(msg.sender, amount); //have the pool deposit the tokens into the strategy\r\n    }\r\n\r\n    function withdrawFromPool(address p, uint256 amount) external{\r\n        Pool pool = Pool(p); //cast address to pool\r\n        require(approvedPools[pool]); //make sure pool is approved in out system\r\n\r\n        pool.withdraw(msg.sender, amount);\r\n\r\n    }\r\n\r\n\r\n    function getRegionOwner() public view returns(address){\r\n        return regionOwner;\r\n    }\r\n\r\n    function getRegionName() external view returns(string memory){\r\n        return regionName;\r\n    }\r\n\r\n\r\n\r\n}\r\n",
  "sourcePath": "/home/darkdark/block_projs/rome_stuff/Test-Ground.io/contracts/PoolManager.sol",
  "compiler": {
    "name": "solc",
    "version": "0.7.5+commit.eb77ed08.Emscripten.clang"
  },
  "schemaVersion": "3.3.2",
  "updatedAt": "2021-01-11T01:25:05.995Z",
  "devdoc": {
    "kind": "dev",
    "methods": {
      "owner()": {
        "details": "Returns the address of the current owner."
      },
      "renounceOwnership()": {
        "details": "Leaves the contract without owner. It will not be possible to call `onlyOwner` functions anymore. Can only be called by the current owner. NOTE: Renouncing ownership will leave the contract without an owner, thereby removing any functionality that is only available to the owner."
      },
      "transferOwnership(address)": {
        "details": "Transfers ownership of the contract to a new account (`newOwner`). Can only be called by the current owner."
      }
    },
    "version": 1
  },
  "userdoc": {
    "kind": "user",
    "methods": {},
    "version": 1
  }
}