{
  "contractName": "Pool",
  "abi": [
    {
      "inputs": [
        {
          "internalType": "string",
          "name": "name",
          "type": "string"
        },
        {
          "internalType": "string",
          "name": "symbol",
          "type": "string"
        },
        {
          "internalType": "address",
          "name": "stakTok",
          "type": "address"
        },
        {
          "internalType": "address",
          "name": "SC",
          "type": "address"
        },
        {
          "internalType": "address",
          "name": "PM",
          "type": "address"
        }
      ],
      "stateMutability": "nonpayable",
      "type": "constructor"
    },
    {
      "anonymous": false,
      "inputs": [
        {
          "indexed": true,
          "internalType": "address",
          "name": "owner",
          "type": "address"
        },
        {
          "indexed": true,
          "internalType": "address",
          "name": "spender",
          "type": "address"
        },
        {
          "indexed": false,
          "internalType": "uint256",
          "name": "value",
          "type": "uint256"
        }
      ],
      "name": "Approval",
      "type": "event"
    },
    {
      "anonymous": false,
      "inputs": [
        {
          "indexed": true,
          "internalType": "address",
          "name": "from",
          "type": "address"
        },
        {
          "indexed": true,
          "internalType": "address",
          "name": "to",
          "type": "address"
        },
        {
          "indexed": false,
          "internalType": "uint256",
          "name": "value",
          "type": "uint256"
        }
      ],
      "name": "Transfer",
      "type": "event"
    },
    {
      "inputs": [
        {
          "internalType": "address",
          "name": "owner",
          "type": "address"
        },
        {
          "internalType": "address",
          "name": "spender",
          "type": "address"
        }
      ],
      "name": "allowance",
      "outputs": [
        {
          "internalType": "uint256",
          "name": "",
          "type": "uint256"
        }
      ],
      "stateMutability": "view",
      "type": "function"
    },
    {
      "inputs": [
        {
          "internalType": "address",
          "name": "spender",
          "type": "address"
        },
        {
          "internalType": "uint256",
          "name": "amount",
          "type": "uint256"
        }
      ],
      "name": "approve",
      "outputs": [
        {
          "internalType": "bool",
          "name": "",
          "type": "bool"
        }
      ],
      "stateMutability": "nonpayable",
      "type": "function"
    },
    {
      "inputs": [
        {
          "internalType": "address",
          "name": "account",
          "type": "address"
        }
      ],
      "name": "balanceOf",
      "outputs": [
        {
          "internalType": "uint256",
          "name": "",
          "type": "uint256"
        }
      ],
      "stateMutability": "view",
      "type": "function"
    },
    {
      "inputs": [],
      "name": "decimals",
      "outputs": [
        {
          "internalType": "uint8",
          "name": "",
          "type": "uint8"
        }
      ],
      "stateMutability": "view",
      "type": "function"
    },
    {
      "inputs": [
        {
          "internalType": "address",
          "name": "spender",
          "type": "address"
        },
        {
          "internalType": "uint256",
          "name": "subtractedValue",
          "type": "uint256"
        }
      ],
      "name": "decreaseAllowance",
      "outputs": [
        {
          "internalType": "bool",
          "name": "",
          "type": "bool"
        }
      ],
      "stateMutability": "nonpayable",
      "type": "function"
    },
    {
      "inputs": [
        {
          "internalType": "address",
          "name": "spender",
          "type": "address"
        },
        {
          "internalType": "uint256",
          "name": "addedValue",
          "type": "uint256"
        }
      ],
      "name": "increaseAllowance",
      "outputs": [
        {
          "internalType": "bool",
          "name": "",
          "type": "bool"
        }
      ],
      "stateMutability": "nonpayable",
      "type": "function"
    },
    {
      "inputs": [],
      "name": "name",
      "outputs": [
        {
          "internalType": "string",
          "name": "",
          "type": "string"
        }
      ],
      "stateMutability": "view",
      "type": "function"
    },
    {
      "inputs": [],
      "name": "symbol",
      "outputs": [
        {
          "internalType": "string",
          "name": "",
          "type": "string"
        }
      ],
      "stateMutability": "view",
      "type": "function"
    },
    {
      "inputs": [],
      "name": "totalSupply",
      "outputs": [
        {
          "internalType": "uint256",
          "name": "",
          "type": "uint256"
        }
      ],
      "stateMutability": "view",
      "type": "function"
    },
    {
      "inputs": [
        {
          "internalType": "address",
          "name": "recipient",
          "type": "address"
        },
        {
          "internalType": "uint256",
          "name": "amount",
          "type": "uint256"
        }
      ],
      "name": "transfer",
      "outputs": [
        {
          "internalType": "bool",
          "name": "",
          "type": "bool"
        }
      ],
      "stateMutability": "nonpayable",
      "type": "function"
    },
    {
      "inputs": [
        {
          "internalType": "address",
          "name": "sender",
          "type": "address"
        },
        {
          "internalType": "address",
          "name": "recipient",
          "type": "address"
        },
        {
          "internalType": "uint256",
          "name": "amount",
          "type": "uint256"
        }
      ],
      "name": "transferFrom",
      "outputs": [
        {
          "internalType": "bool",
          "name": "",
          "type": "bool"
        }
      ],
      "stateMutability": "nonpayable",
      "type": "function"
    },
    {
      "inputs": [
        {
          "internalType": "contract IStrategy",
          "name": "newStrategy",
          "type": "address"
        }
      ],
      "name": "setStrategy",
      "outputs": [],
      "stateMutability": "nonpayable",
      "type": "function"
    },
    {
      "inputs": [
        {
          "internalType": "uint256",
          "name": "amount",
          "type": "uint256"
        }
      ],
      "name": "moveToNewStrategy",
      "outputs": [],
      "stateMutability": "nonpayable",
      "type": "function"
    },
    {
      "inputs": [
        {
          "internalType": "address",
          "name": "user",
          "type": "address"
        },
        {
          "internalType": "uint256",
          "name": "amount",
          "type": "uint256"
        }
      ],
      "name": "deposit",
      "outputs": [],
      "stateMutability": "nonpayable",
      "type": "function"
    },
    {
      "inputs": [
        {
          "internalType": "address",
          "name": "user",
          "type": "address"
        },
        {
          "internalType": "uint256",
          "name": "amount",
          "type": "uint256"
        }
      ],
      "name": "withdraw",
      "outputs": [],
      "stateMutability": "nonpayable",
      "type": "function"
    },
    {
      "inputs": [],
      "name": "getToken",
      "outputs": [
        {
          "internalType": "contract IERC20",
          "name": "",
          "type": "address"
        }
      ],
      "stateMutability": "view",
      "type": "function"
    },
    {
      "inputs": [],
      "name": "getStrategyController",
      "outputs": [
        {
          "internalType": "address",
          "name": "",
          "type": "address"
        }
      ],
      "stateMutability": "view",
      "type": "function"
    },
    {
      "inputs": [],
      "name": "getPoolManager",
      "outputs": [
        {
          "internalType": "contract PoolManager",
          "name": "",
          "type": "address"
        }
      ],
      "stateMutability": "view",
      "type": "function"
    },
    {
      "inputs": [],
      "name": "getCurrentStrategy",
      "outputs": [
        {
          "internalType": "contract IStrategy",
          "name": "",
          "type": "address"
        }
      ],
      "stateMutability": "view",
      "type": "function"
    },
    {
      "inputs": [],
      "name": "getLastStrategy",
      "outputs": [
        {
          "internalType": "contract IStrategy",
          "name": "",
          "type": "address"
        }
      ],
      "stateMutability": "view",
      "type": "function"
    }
  ],
  "bytecode": "0x60806040523480156200001157600080fd5b50604051620033a7380380620033a7833981810160405260a08110156200003757600080fd5b81019080805160405193929190846401000000008211156200005857600080fd5b838201915060208201858111156200006f57600080fd5b82518660018202830111640100000000821117156200008d57600080fd5b8083526020830192505050908051906020019080838360005b83811015620000c3578082015181840152602081019050620000a6565b50505050905090810190601f168015620000f15780820380516001836020036101000a031916815260200191505b50604052602001805160405193929190846401000000008211156200011557600080fd5b838201915060208201858111156200012c57600080fd5b82518660018202830111640100000000821117156200014a57600080fd5b8083526020830192505050908051906020019080838360005b838110156200018057808201518184015260208101905062000163565b50505050905090810190601f168015620001ae5780820380516001836020036101000a031916815260200191505b5060405260200180519060200190929190805190602001909291908051906020019092919050505084848160039080519060200190620001f0929190620002f6565b50806004908051906020019062000209929190620002f6565b506012600560006101000a81548160ff021916908360ff160217905550505082600960006101000a81548173ffffffffffffffffffffffffffffffffffffffff021916908373ffffffffffffffffffffffffffffffffffffffff16021790555081600660006101000a81548173ffffffffffffffffffffffffffffffffffffffff021916908373ffffffffffffffffffffffffffffffffffffffff16021790555080600560016101000a81548173ffffffffffffffffffffffffffffffffffffffff021916908373ffffffffffffffffffffffffffffffffffffffff1602179055505050505050620003ac565b828054600181600116156101000203166002900490600052602060002090601f0160209004810192826200032e57600085556200037a565b82601f106200034957805160ff19168380011785556200037a565b828001600101855582156200037a579182015b82811115620003795782518255916020019190600101906200035c565b5b5090506200038991906200038d565b5090565b5b80821115620003a85760008160009055506001016200038e565b5090565b612feb80620003bc6000396000f3fe608060405234801561001057600080fd5b506004361061012c5760003560e01c80636e33bcc9116100ad57806395d89b411161007157806395d89b411461055b578063a457c2d7146105de578063a9059cbb14610642578063dd62ed3e146106a6578063f3fef3a31461071e5761012c565b80636e33bcc91461043957806370a082311461046d57806378d84da3146104c557806383249ef9146104f95780639153b2061461052d5761012c565b8063313ce567116100f4578063313ce567146102ee57806333a100ca1461030f578063395093511461035357806347e7ef24146103b757806350a93b6e146104055761012c565b806306fdde0314610131578063095ea7b3146101b457806318160ddd1461021857806321df0da71461023657806323b872dd1461026a575b600080fd5b61013961076c565b6040518080602001828103825283818151815260200191508051906020019080838360005b8381101561017957808201518184015260208101905061015e565b50505050905090810190601f1680156101a65780820380516001836020036101000a031916815260200191505b509250505060405180910390f35b610200600480360360408110156101ca57600080fd5b81019080803573ffffffffffffffffffffffffffffffffffffffff1690602001909291908035906020019092919050505061080e565b60405180821515815260200191505060405180910390f35b61022061082c565b6040518082815260200191505060405180910390f35b61023e610836565b604051808273ffffffffffffffffffffffffffffffffffffffff16815260200191505060405180910390f35b6102d66004803603606081101561028057600080fd5b81019080803573ffffffffffffffffffffffffffffffffffffffff169060200190929190803573ffffffffffffffffffffffffffffffffffffffff16906020019092919080359060200190929190505050610860565b60405180821515815260200191505060405180910390f35b6102f6610939565b604051808260ff16815260200191505060405180910390f35b6103516004803603602081101561032557600080fd5b81019080803573ffffffffffffffffffffffffffffffffffffffff169060200190929190505050610950565b005b61039f6004803603604081101561036957600080fd5b81019080803573ffffffffffffffffffffffffffffffffffffffff16906020019092919080359060200190929190505050610bbe565b60405180821515815260200191505060405180910390f35b610403600480360360408110156103cd57600080fd5b81019080803573ffffffffffffffffffffffffffffffffffffffff16906020019092919080359060200190929190505050610c71565b005b61040d611331565b604051808273ffffffffffffffffffffffffffffffffffffffff16815260200191505060405180910390f35b61044161135b565b604051808273ffffffffffffffffffffffffffffffffffffffff16815260200191505060405180910390f35b6104af6004803603602081101561048357600080fd5b81019080803573ffffffffffffffffffffffffffffffffffffffff169060200190929190505050611385565b6040518082815260200191505060405180910390f35b6104cd6113cd565b604051808273ffffffffffffffffffffffffffffffffffffffff16815260200191505060405180910390f35b6105016113f7565b604051808273ffffffffffffffffffffffffffffffffffffffff16815260200191505060405180910390f35b6105596004803603602081101561054357600080fd5b8101908080359060200190929190505050611421565b005b610563611a97565b6040518080602001828103825283818151815260200191508051906020019080838360005b838110156105a3578082015181840152602081019050610588565b50505050905090810190601f1680156105d05780820380516001836020036101000a031916815260200191505b509250505060405180910390f35b61062a600480360360408110156105f457600080fd5b81019080803573ffffffffffffffffffffffffffffffffffffffff16906020019092919080359060200190929190505050611b39565b60405180821515815260200191505060405180910390f35b61068e6004803603604081101561065857600080fd5b81019080803573ffffffffffffffffffffffffffffffffffffffff16906020019092919080359060200190929190505050611c06565b60405180821515815260200191505060405180910390f35b610708600480360360408110156106bc57600080fd5b81019080803573ffffffffffffffffffffffffffffffffffffffff169060200190929190803573ffffffffffffffffffffffffffffffffffffffff169060200190929190505050611c24565b6040518082815260200191505060405180910390f35b61076a6004803603604081101561073457600080fd5b81019080803573ffffffffffffffffffffffffffffffffffffffff16906020019092919080359060200190929190505050611cab565b005b606060038054600181600116156101000203166002900480601f0160208091040260200160405190810160405280929190818152602001828054600181600116156101000203166002900480156108045780601f106107d957610100808354040283529160200191610804565b820191906000526020600020905b8154815290600101906020018083116107e757829003601f168201915b5050505050905090565b600061082261081b6123a3565b84846123ab565b6001905092915050565b6000600254905090565b6000600960009054906101000a900473ffffffffffffffffffffffffffffffffffffffff16905090565b600061086d8484846125a2565b61092e846108796123a3565b61092985604051806060016040528060288152602001612e6b60289139600160008b73ffffffffffffffffffffffffffffffffffffffff1673ffffffffffffffffffffffffffffffffffffffff16815260200190815260200160002060006108df6123a3565b73ffffffffffffffffffffffffffffffffffffffff1673ffffffffffffffffffffffffffffffffffffffff168152602001908152602001600020546128639092919063ffffffff16565b6123ab565b600190509392505050565b6000600560009054906101000a900460ff16905090565b600660009054906101000a900473ffffffffffffffffffffffffffffffffffffffff1673ffffffffffffffffffffffffffffffffffffffff163373ffffffffffffffffffffffffffffffffffffffff16146109f6576040517f08c379a0000000000000000000000000000000000000000000000000000000008152600401808060200182810382526030815260200180612e156030913960400191505060405180910390fd5b600660009054906101000a900473ffffffffffffffffffffffffffffffffffffffff1673ffffffffffffffffffffffffffffffffffffffff163373ffffffffffffffffffffffffffffffffffffffff1614610a9c576040517f08c379a000000000000000000000000000000000000000000000000000000000815260040180806020018281038252603b815260200180612e93603b913960400191505060405180910390fd5b6000600a5414610aab57600080fd5b600760009054906101000a900473ffffffffffffffffffffffffffffffffffffffff1673ffffffffffffffffffffffffffffffffffffffff168173ffffffffffffffffffffffffffffffffffffffff161415610b0657600080fd5b600760009054906101000a900473ffffffffffffffffffffffffffffffffffffffff16600860006101000a81548173ffffffffffffffffffffffffffffffffffffffff021916908373ffffffffffffffffffffffffffffffffffffffff16021790555080600760006101000a81548173ffffffffffffffffffffffffffffffffffffffff021916908373ffffffffffffffffffffffffffffffffffffffff160217905550600b54600a819055506000600b8190555050565b6000610c67610bcb6123a3565b84610c628560016000610bdc6123a3565b73ffffffffffffffffffffffffffffffffffffffff1673ffffffffffffffffffffffffffffffffffffffff16815260200190815260200160002060008973ffffffffffffffffffffffffffffffffffffffff1673ffffffffffffffffffffffffffffffffffffffff1681526020019081526020016000205461292390919063ffffffff16565b6123ab565b6001905092915050565b600560019054906101000a900473ffffffffffffffffffffffffffffffffffffffff1673ffffffffffffffffffffffffffffffffffffffff163373ffffffffffffffffffffffffffffffffffffffff1614610d34576040517f08c379a000000000000000000000000000000000000000000000000000000000815260040180806020018281038252601f8152602001807f706f6f6c206d616e61676572206d757374206465706f7369742066756e64730081525060200191505060405180910390fd5b600073ffffffffffffffffffffffffffffffffffffffff16600760009054906101000a900473ffffffffffffffffffffffffffffffffffffffff1673ffffffffffffffffffffffffffffffffffffffff161415610ddc576040517f08c379a0000000000000000000000000000000000000000000000000000000008152600401808060200182810382526028815260200180612dcb6028913960400191505060405180910390fd5b6000806000600b54600a54011415610dfa5782905060009150610e2d565b6000600b54600a5401600a54850281610e0f57fe5b0490506000600b54600a5401600b54860281610e2757fe5b04905050505b600073ffffffffffffffffffffffffffffffffffffffff16600860009054906101000a900473ffffffffffffffffffffffffffffffffffffffff1673ffffffffffffffffffffffffffffffffffffffff161461102057600960009054906101000a900473ffffffffffffffffffffffffffffffffffffffff1673ffffffffffffffffffffffffffffffffffffffff166323b872dd85600860009054906101000a900473ffffffffffffffffffffffffffffffffffffffff16856040518463ffffffff1660e01b8152600401808473ffffffffffffffffffffffffffffffffffffffff1681526020018373ffffffffffffffffffffffffffffffffffffffff1681526020018281526020019350505050602060405180830381600087803b158015610f5657600080fd5b505af1158015610f6a573d6000803e3d6000fd5b505050506040513d6020811015610f8057600080fd5b810190808051906020019092919050505050600860009054906101000a900473ffffffffffffffffffffffffffffffffffffffff1673ffffffffffffffffffffffffffffffffffffffff1663b6b55f25836040518263ffffffff1660e01b815260040180828152602001915050600060405180830381600087803b15801561100757600080fd5b505af115801561101b573d6000803e3d6000fd5b505050505b6000600760009054906101000a900473ffffffffffffffffffffffffffffffffffffffff1673ffffffffffffffffffffffffffffffffffffffff1663ad7a672f6040518163ffffffff1660e01b815260040160206040518083038186803b15801561108a57600080fd5b505afa15801561109e573d6000803e3d6000fd5b505050506040513d60208110156110b457600080fd5b81019080805190602001909291905050509050600960009054906101000a900473ffffffffffffffffffffffffffffffffffffffff1673ffffffffffffffffffffffffffffffffffffffff1663a9059cbb600760009054906101000a900473ffffffffffffffffffffffffffffffffffffffff16846040518363ffffffff1660e01b8152600401808373ffffffffffffffffffffffffffffffffffffffff16815260200182815260200192505050602060405180830381600087803b15801561117c57600080fd5b505af1158015611190573d6000803e3d6000fd5b505050506040513d60208110156111a657600080fd5b810190808051906020019092919050505050600760009054906101000a900473ffffffffffffffffffffffffffffffffffffffff1673ffffffffffffffffffffffffffffffffffffffff1663b6b55f25836040518263ffffffff1660e01b815260040180828152602001915050600060405180830381600087803b15801561122d57600080fd5b505af1158015611241573d6000803e3d6000fd5b505050506000600760009054906101000a900473ffffffffffffffffffffffffffffffffffffffff1673ffffffffffffffffffffffffffffffffffffffff1663ad7a672f6040518163ffffffff1660e01b815260040160206040518083038186803b1580156112af57600080fd5b505afa1580156112c3573d6000803e3d6000fd5b505050506040513d60208110156112d957600080fd5b810190808051906020019092919050505090506000806112f761082c565b14611318578161130561082c565b848403028161131057fe5b04905061131e565b82820390505b61132887826129ab565b50505050505050565b6000600660009054906101000a900473ffffffffffffffffffffffffffffffffffffffff16905090565b6000600860009054906101000a900473ffffffffffffffffffffffffffffffffffffffff16905090565b60008060008373ffffffffffffffffffffffffffffffffffffffff1673ffffffffffffffffffffffffffffffffffffffff168152602001908152602001600020549050919050565b6000600560019054906101000a900473ffffffffffffffffffffffffffffffffffffffff16905090565b6000600760009054906101000a900473ffffffffffffffffffffffffffffffffffffffff16905090565b600560019054906101000a900473ffffffffffffffffffffffffffffffffffffffff1673ffffffffffffffffffffffffffffffffffffffff16636025c0896040518163ffffffff1660e01b815260040160206040518083038186803b15801561148957600080fd5b505afa15801561149d573d6000803e3d6000fd5b505050506040513d60208110156114b357600080fd5b810190808051906020019092919050505073ffffffffffffffffffffffffffffffffffffffff163373ffffffffffffffffffffffffffffffffffffffff1614611547576040517f08c379a0000000000000000000000000000000000000000000000000000000008152600401808060200182810382526029815260200180612ece6029913960400191505060405180910390fd5b6000600960009054906101000a900473ffffffffffffffffffffffffffffffffffffffff1673ffffffffffffffffffffffffffffffffffffffff166370a08231306040518263ffffffff1660e01b8152600401808273ffffffffffffffffffffffffffffffffffffffff16815260200191505060206040518083038186803b1580156115d257600080fd5b505afa1580156115e6573d6000803e3d6000fd5b505050506040513d60208110156115fc57600080fd5b81019080805190602001909291905050509050600860009054906101000a900473ffffffffffffffffffffffffffffffffffffffff1673ffffffffffffffffffffffffffffffffffffffff16632e1a7d4d836040518263ffffffff1660e01b815260040180828152602001915050600060405180830381600087803b15801561168457600080fd5b505af1158015611698573d6000803e3d6000fd5b505050506000600960009054906101000a900473ffffffffffffffffffffffffffffffffffffffff1673ffffffffffffffffffffffffffffffffffffffff166370a08231306040518263ffffffff1660e01b8152600401808273ffffffffffffffffffffffffffffffffffffffff16815260200191505060206040518083038186803b15801561172757600080fd5b505afa15801561173b573d6000803e3d6000fd5b505050506040513d602081101561175157600080fd5b81019080805190602001909291905050509050808203600a60008282540392505081905550600960009054906101000a900473ffffffffffffffffffffffffffffffffffffffff1673ffffffffffffffffffffffffffffffffffffffff166370a08231306040518263ffffffff1660e01b8152600401808273ffffffffffffffffffffffffffffffffffffffff16815260200191505060206040518083038186803b1580156117ff57600080fd5b505afa158015611813573d6000803e3d6000fd5b505050506040513d602081101561182957600080fd5b81019080805190602001909291905050509150600960009054906101000a900473ffffffffffffffffffffffffffffffffffffffff1673ffffffffffffffffffffffffffffffffffffffff1663a9059cbb600760009054906101000a900473ffffffffffffffffffffffffffffffffffffffff16856040518363ffffffff1660e01b8152600401808373ffffffffffffffffffffffffffffffffffffffff16815260200182815260200192505050602060405180830381600087803b1580156118f157600080fd5b505af1158015611905573d6000803e3d6000fd5b505050506040513d602081101561191b57600080fd5b810190808051906020019092919050505050600760009054906101000a900473ffffffffffffffffffffffffffffffffffffffff1673ffffffffffffffffffffffffffffffffffffffff1663b6b55f25846040518263ffffffff1660e01b815260040180828152602001915050600060405180830381600087803b1580156119a257600080fd5b505af11580156119b6573d6000803e3d6000fd5b50505050600960009054906101000a900473ffffffffffffffffffffffffffffffffffffffff1673ffffffffffffffffffffffffffffffffffffffff166370a08231306040518263ffffffff1660e01b8152600401808273ffffffffffffffffffffffffffffffffffffffff16815260200191505060206040518083038186803b158015611a4357600080fd5b505afa158015611a57573d6000803e3d6000fd5b505050506040513d6020811015611a6d57600080fd5b81019080805190602001909291905050509050818103600b60008282540192505081905550505050565b606060048054600181600116156101000203166002900480601f016020809104026020016040519081016040528092919081815260200182805460018160011615610100020316600290048015611b2f5780601f10611b0457610100808354040283529160200191611b2f565b820191906000526020600020905b815481529060010190602001808311611b1257829003601f168201915b5050505050905090565b6000611bfc611b466123a3565b84611bf785604051806060016040528060258152602001612f916025913960016000611b706123a3565b73ffffffffffffffffffffffffffffffffffffffff1673ffffffffffffffffffffffffffffffffffffffff16815260200190815260200160002060008a73ffffffffffffffffffffffffffffffffffffffff1673ffffffffffffffffffffffffffffffffffffffff168152602001908152602001600020546128639092919063ffffffff16565b6123ab565b6001905092915050565b6000611c1a611c136123a3565b84846125a2565b6001905092915050565b6000600160008473ffffffffffffffffffffffffffffffffffffffff1673ffffffffffffffffffffffffffffffffffffffff16815260200190815260200160002060008373ffffffffffffffffffffffffffffffffffffffff1673ffffffffffffffffffffffffffffffffffffffff16815260200190815260200160002054905092915050565b600560019054906101000a900473ffffffffffffffffffffffffffffffffffffffff1673ffffffffffffffffffffffffffffffffffffffff163373ffffffffffffffffffffffffffffffffffffffff1614611d51576040517f08c379a0000000000000000000000000000000000000000000000000000000008152600401808060200182810382526030815260200180612f186030913960400191505060405180910390fd5b80611d5b83611385565b1015611dcf576040517f08c379a00000000000000000000000000000000000000000000000000000000081526004018080602001828103825260148152602001807f757365722062616c616e636520746f6f206c6f7700000000000000000000000081525060200191505060405180910390fd5b6000600960009054906101000a900473ffffffffffffffffffffffffffffffffffffffff1673ffffffffffffffffffffffffffffffffffffffff166370a08231306040518263ffffffff1660e01b8152600401808273ffffffffffffffffffffffffffffffffffffffff16815260200191505060206040518083038186803b158015611e5a57600080fd5b505afa158015611e6e573d6000803e3d6000fd5b505050506040513d6020811015611e8457600080fd5b8101908080519060200190929190505050905060008073ffffffffffffffffffffffffffffffffffffffff16600860009054906101000a900473ffffffffffffffffffffffffffffffffffffffff1673ffffffffffffffffffffffffffffffffffffffff1614611fba57611ef784611385565b611eff61082c565b02611f0985611385565b84600860009054906101000a900473ffffffffffffffffffffffffffffffffffffffff1673ffffffffffffffffffffffffffffffffffffffff1663ad7a672f6040518163ffffffff1660e01b815260040160206040518083038186803b158015611f7257600080fd5b505afa158015611f86573d6000803e3d6000fd5b505050506040513d6020811015611f9c57600080fd5b8101908080519060200190929190505050020281611fb657fe5b0490505b6000611fc585611385565b611fcd61082c565b02611fd786611385565b85600760009054906101000a900473ffffffffffffffffffffffffffffffffffffffff1673ffffffffffffffffffffffffffffffffffffffff1663ad7a672f6040518163ffffffff1660e01b815260040160206040518083038186803b15801561204057600080fd5b505afa158015612054573d6000803e3d6000fd5b505050506040513d602081101561206a57600080fd5b810190808051906020019092919050505002028161208457fe5b049050600073ffffffffffffffffffffffffffffffffffffffff16600860009054906101000a900473ffffffffffffffffffffffffffffffffffffffff1673ffffffffffffffffffffffffffffffffffffffff161461216b57600860009054906101000a900473ffffffffffffffffffffffffffffffffffffffff1673ffffffffffffffffffffffffffffffffffffffff16632e1a7d4d836040518263ffffffff1660e01b815260040180828152602001915050600060405180830381600087803b15801561215257600080fd5b505af1158015612166573d6000803e3d6000fd5b505050505b600760009054906101000a900473ffffffffffffffffffffffffffffffffffffffff1673ffffffffffffffffffffffffffffffffffffffff16632e1a7d4d826040518263ffffffff1660e01b815260040180828152602001915050600060405180830381600087803b1580156121e057600080fd5b505af11580156121f4573d6000803e3d6000fd5b505050506000600960009054906101000a900473ffffffffffffffffffffffffffffffffffffffff1673ffffffffffffffffffffffffffffffffffffffff166370a08231306040518263ffffffff1660e01b8152600401808273ffffffffffffffffffffffffffffffffffffffff16815260200191505060206040518083038186803b15801561228357600080fd5b505afa158015612297573d6000803e3d6000fd5b505050506040513d60208110156122ad57600080fd5b810190808051906020019092919050505090506122ca8686612b72565b600960009054906101000a900473ffffffffffffffffffffffffffffffffffffffff1673ffffffffffffffffffffffffffffffffffffffff1663a9059cbb878684036040518363ffffffff1660e01b8152600401808373ffffffffffffffffffffffffffffffffffffffff16815260200182815260200192505050602060405180830381600087803b15801561235f57600080fd5b505af1158015612373573d6000803e3d6000fd5b505050506040513d602081101561238957600080fd5b810190808051906020019092919050505050505050505050565b600033905090565b600073ffffffffffffffffffffffffffffffffffffffff168373ffffffffffffffffffffffffffffffffffffffff161415612431576040517f08c379a0000000000000000000000000000000000000000000000000000000008152600401808060200182810382526024815260200180612f6d6024913960400191505060405180910390fd5b600073ffffffffffffffffffffffffffffffffffffffff168273ffffffffffffffffffffffffffffffffffffffff1614156124b7576040517f08c379a0000000000000000000000000000000000000000000000000000000008152600401808060200182810382526022815260200180612df36022913960400191505060405180910390fd5b80600160008573ffffffffffffffffffffffffffffffffffffffff1673ffffffffffffffffffffffffffffffffffffffff16815260200190815260200160002060008473ffffffffffffffffffffffffffffffffffffffff1673ffffffffffffffffffffffffffffffffffffffff168152602001908152602001600020819055508173ffffffffffffffffffffffffffffffffffffffff168373ffffffffffffffffffffffffffffffffffffffff167f8c5be1e5ebec7d5bd14f71427d1e84f3dd0314c0f7b2291e5b200ac8c7c3b925836040518082815260200191505060405180910390a3505050565b600073ffffffffffffffffffffffffffffffffffffffff168373ffffffffffffffffffffffffffffffffffffffff161415612628576040517f08c379a0000000000000000000000000000000000000000000000000000000008152600401808060200182810382526025815260200180612f486025913960400191505060405180910390fd5b600073ffffffffffffffffffffffffffffffffffffffff168273ffffffffffffffffffffffffffffffffffffffff1614156126ae576040517f08c379a0000000000000000000000000000000000000000000000000000000008152600401808060200182810382526023815260200180612d866023913960400191505060405180910390fd5b6126b9838383612d36565b61272481604051806060016040528060268152602001612e45602691396000808773ffffffffffffffffffffffffffffffffffffffff1673ffffffffffffffffffffffffffffffffffffffff168152602001908152602001600020546128639092919063ffffffff16565b6000808573ffffffffffffffffffffffffffffffffffffffff1673ffffffffffffffffffffffffffffffffffffffff168152602001908152602001600020819055506127b7816000808573ffffffffffffffffffffffffffffffffffffffff1673ffffffffffffffffffffffffffffffffffffffff1681526020019081526020016000205461292390919063ffffffff16565b6000808473ffffffffffffffffffffffffffffffffffffffff1673ffffffffffffffffffffffffffffffffffffffff168152602001908152602001600020819055508173ffffffffffffffffffffffffffffffffffffffff168373ffffffffffffffffffffffffffffffffffffffff167fddf252ad1be2c89b69c2b068fc378daa952ba7f163c4a11628f55a4df523b3ef836040518082815260200191505060405180910390a3505050565b6000838311158290612910576040517f08c379a00000000000000000000000000000000000000000000000000000000081526004018080602001828103825283818151815260200191508051906020019080838360005b838110156128d55780820151818401526020810190506128ba565b50505050905090810190601f1680156129025780820380516001836020036101000a031916815260200191505b509250505060405180910390fd5b5060008385039050809150509392505050565b6000808284019050838110156129a1576040517f08c379a000000000000000000000000000000000000000000000000000000000815260040180806020018281038252601b8152602001807f536166654d6174683a206164646974696f6e206f766572666c6f77000000000081525060200191505060405180910390fd5b8091505092915050565b600073ffffffffffffffffffffffffffffffffffffffff168273ffffffffffffffffffffffffffffffffffffffff161415612a4e576040517f08c379a000000000000000000000000000000000000000000000000000000000815260040180806020018281038252601f8152602001807f45524332303a206d696e7420746f20746865207a65726f20616464726573730081525060200191505060405180910390fd5b612a5a60008383612d36565b612a6f8160025461292390919063ffffffff16565b600281905550612ac6816000808573ffffffffffffffffffffffffffffffffffffffff1673ffffffffffffffffffffffffffffffffffffffff1681526020019081526020016000205461292390919063ffffffff16565b6000808473ffffffffffffffffffffffffffffffffffffffff1673ffffffffffffffffffffffffffffffffffffffff168152602001908152602001600020819055508173ffffffffffffffffffffffffffffffffffffffff16600073ffffffffffffffffffffffffffffffffffffffff167fddf252ad1be2c89b69c2b068fc378daa952ba7f163c4a11628f55a4df523b3ef836040518082815260200191505060405180910390a35050565b600073ffffffffffffffffffffffffffffffffffffffff168273ffffffffffffffffffffffffffffffffffffffff161415612bf8576040517f08c379a0000000000000000000000000000000000000000000000000000000008152600401808060200182810382526021815260200180612ef76021913960400191505060405180910390fd5b612c0482600083612d36565b612c6f81604051806060016040528060228152602001612da9602291396000808673ffffffffffffffffffffffffffffffffffffffff1673ffffffffffffffffffffffffffffffffffffffff168152602001908152602001600020546128639092919063ffffffff16565b6000808473ffffffffffffffffffffffffffffffffffffffff1673ffffffffffffffffffffffffffffffffffffffff16815260200190815260200160002081905550612cc681600254612d3b90919063ffffffff16565b600281905550600073ffffffffffffffffffffffffffffffffffffffff168273ffffffffffffffffffffffffffffffffffffffff167fddf252ad1be2c89b69c2b068fc378daa952ba7f163c4a11628f55a4df523b3ef836040518082815260200191505060405180910390a35050565b505050565b6000612d7d83836040518060400160405280601e81526020017f536166654d6174683a207375627472616374696f6e206f766572666c6f770000815250612863565b90509291505056fe45524332303a207472616e7366657220746f20746865207a65726f206164647265737345524332303a206275726e20616d6f756e7420657863656564732062616c616e636563757272656e742061646472657373206d757374206e6f74206265207a65726f206164647265737345524332303a20617070726f766520746f20746865207a65726f20616464726573734f6e6c7920737472617465677920636f6e74726f6c6c65722063616e2063616c6c20746869732066756e6374696f6e2e45524332303a207472616e7366657220616d6f756e7420657863656564732062616c616e636545524332303a207472616e7366657220616d6f756e74206578636565647320616c6c6f77616e63654f6e6c7920746865205374726174656779436f6e74726f6c657220636f6e74726163742063616e206368616e6765207468652073747261746567794f6e6c7920726567696f6e206f776e65722063616e2063616c6c20746869732066756e6374696f6e2e45524332303a206275726e2066726f6d20746865207a65726f206164647265737377697468647261772063616e206f6e6c792062652063616c6c6564207468726f75676820706f6f6c206d616e6167657245524332303a207472616e736665722066726f6d20746865207a65726f206164647265737345524332303a20617070726f76652066726f6d20746865207a65726f206164647265737345524332303a2064656372656173656420616c6c6f77616e63652062656c6f77207a65726fa264697066735822122066cf54b4083fd8148e9a1aeb66ab3dbb3396672d3674673fb1b2445f3c94979f64736f6c63430007050033",
  "immutableReferences": {},
  "source": "pragma solidity =0.7.5;\r\n\r\n\r\nimport \"./openzeppelin-contracts/contracts/token/ERC20/ERC20.sol\";\r\nimport \"./openzeppelin-contracts/contracts/token/ERC20/IERC20.sol\";\r\nimport \"./PoolManager.sol\";\r\nimport \"./IStrategy.sol\";\r\n\r\n\r\ncontract Pool is ERC20 {\r\n    using SafeMath for uint256;\r\n\r\n    PoolManager poolMAN;\r\n    address StrategyControler;\r\n\r\n\r\n    IStrategy currentStrategy;\r\n    IStrategy oldStrategy;\r\n    IERC20 stakingToken;\r\n\r\n    //modifer that requires caller to be region owner. Each region will have its own poolmanager. Change name of pool manager to region?\r\n    modifier onlyRegionOwner {\r\n        require(\r\n            msg.sender == poolMAN.getRegionOwner(),\r\n            \"Only region owner can call this function.\"\r\n        );\r\n        _;\r\n    }\r\n\r\n    modifier onlyStrategyController {\r\n        require(\r\n            msg.sender == StrategyControler,\r\n            \"Only strategy controller can call this function.\"\r\n        );\r\n        _;\r\n    }\r\n\r\n    /*\r\n    some sort of control mechanism to remember whether a user should withdraw from strategy itself, or from balance of this contract\r\n    when a strategy changes, the withdrawAll function should be called to return all funds to this pool.\r\n    */\r\n\r\n    /*\r\n    pools should be deployed after pool manager and StrategyControler already exist (deployed on chain so can pass address to constructor)\r\n    */\r\n\r\n\r\n    /*\r\n    use this to keep track of which strategy the user last invested into. Dont let them deposit into a new strategy until they have\r\n    withdrawn from the old strategy\r\n    */\r\n\r\n    uint256 staking_token_in_old_strategy;\r\n    uint256 staking_token_in_current_strategy;\r\n\r\n\r\n\r\n    constructor(string memory name, string memory symbol, address stakTok, address SC, address PM)\r\n    ERC20(name, symbol) {\r\n        stakingToken = IERC20(stakTok);\r\n        StrategyControler = SC;\r\n        poolMAN = PoolManager(PM);\r\n    }\r\n\r\n\r\n    function setStrategy(IStrategy newStrategy) external onlyStrategyController{\r\n        require(msg.sender == StrategyControler, \"Only the StrategyControler contract can change the strategy\");\r\n        require(staking_token_in_old_strategy == 0); //make sure strategy 2 before this new one that is about to go into effect is empty of money because it will be forgotten\r\n        require(address(newStrategy) != address(currentStrategy)); //dont let the user set the same strategy that is already in effect\r\n        //set new strategy. This will change what happens when users deposit into this pool, the new strategy will be called to deposit into new strategy's logic\r\n        oldStrategy = currentStrategy;\r\n        currentStrategy = newStrategy;\r\n        staking_token_in_old_strategy = staking_token_in_current_strategy;\r\n        staking_token_in_current_strategy = 0;\r\n    }\r\n\r\n    function moveToNewStrategy(uint256 amount) external onlyRegionOwner{\r\n\r\n        //@todo check this logic I wrote at 2 am sometime to make sure its right\r\n        //should move money from old strategy to new, and update the money in each with the balanceOf this contract from stakingToken\r\n        uint256 bal1 = stakingToken.balanceOf(address(this));\r\n\r\n        //require(false, \"fails here?\");\r\n\r\n        oldStrategy.withdraw(amount);\r\n\r\n        //require(false, \"made it into move\");\r\n\r\n        uint256 bal2 = stakingToken.balanceOf(address(this));\r\n        staking_token_in_old_strategy -= bal1 - bal2;\r\n\r\n\r\n\r\n        bal1 = stakingToken.balanceOf(address(this));\r\n        stakingToken.transfer(address(currentStrategy), amount); //transfer happens outside deposit to make writing the strategy contracts easier\r\n        currentStrategy.deposit(amount); //deposit actually moves the money into whereever the strategy wants it to go\r\n        bal2 = stakingToken.balanceOf(address(this));\r\n        staking_token_in_current_strategy += bal2 - bal1;\r\n    }\r\n\r\n\r\n\r\n\r\n    /*\r\n    maybe keep running ratio of funds withdawn and put into new strategy\r\n    then when user tries to stake more, let them stake proportionally in both, or prevent it alltogether\r\n    */\r\n\r\n    // function withdraw in pieces. Maybe execute ahead of strategy change? Users can get their money out based on ratio withdramn, know how\r\n    //to withdraw proportionally?\r\n\r\n    /*\r\n    it seems that the yearn and harvest people might have the deposit and withdraw in an amount to slowly put things into new strategy\r\n    manually to really manage the funds more like micromanagy. Letting them get around slippage by withdrawing and depositing\r\n    parts of the funds slowly. Some strategies might involve going though swap pools to add liquidity in equal amounts or something,\r\n    which would cause significant slippage in a pool if the fund size is big enough and done all at once.\r\n\r\n\r\n\r\n    */\r\n\r\n\r\n\r\n    function deposit(address user, uint256 amount) public{ //amount here is in staking token. DIFFERENT BETWEEN WITHDRAW AND STAKE\r\n        //@todo make this function actually transfer the tokens to this contract\r\n\r\n\r\n        require(msg.sender == address(poolMAN), \"pool manager must deposit funds\");\r\n        require(address(currentStrategy) != 0x0000000000000000000000000000000000000000, \"current address must not be zero address\");\r\n\r\n        //@todo make this scale to the users share of the pool, then mint tokens equal to user share of pool\r\n\r\n        uint256 fundsToOldStrat;\r\n        uint256 fundsToCurrentStrat;\r\n\r\n        //make sure the first deposit happens without a divide by zero\r\n        if((staking_token_in_old_strategy + staking_token_in_current_strategy) == 0){\r\n            fundsToCurrentStrat = amount;\r\n            fundsToOldStrat = 0;\r\n        }\r\n        else{\r\n            uint256 fundsToOldStrat = (amount * staking_token_in_old_strategy) / (staking_token_in_old_strategy + staking_token_in_current_strategy);\r\n            uint256 fundsToCurrentStrat = (amount * staking_token_in_current_strategy) / (staking_token_in_old_strategy + staking_token_in_current_strategy);\r\n        }\r\n        //require(false, \"got to here boiiii\");\r\n\r\n        //dont try to put stuff into old strategy if there is no old strategy\r\n        if(address(oldStrategy) != 0x0000000000000000000000000000000000000000){\r\n            stakingToken.transferFrom(user, address(oldStrategy), fundsToOldStrat);\r\n            oldStrategy.deposit(fundsToOldStrat);\r\n        }\r\n\r\n\r\n        uint256 balBefore = currentStrategy.totalBalance();\r\n        stakingToken.transfer(address(currentStrategy), fundsToCurrentStrat);\r\n        currentStrategy.deposit(fundsToCurrentStrat);\r\n        uint256 balAfter = currentStrategy.totalBalance();\r\n\r\n        uint256 tokensToMint;\r\n        //make sure that tokens still get minted if totalSupply is 0\r\n        if(totalSupply() != 0){\r\n            tokensToMint = ( (balAfter - balBefore) * totalSupply() ) / balAfter;\r\n        }\r\n        else{\r\n            tokensToMint=(balAfter - balBefore);\r\n        }\r\n\r\n\r\n        _mint(user, tokensToMint);\r\n    }\r\n\r\n    function withdraw(address user, uint256 amount) public{//amount here is in pool token. DIFFERENT BETWEEN WITHDRAW AND STAKE\r\n        //@to done make this scale to users share of the pool\r\n\r\n\r\n\r\n        require(msg.sender == address(poolMAN), \"withdraw can only be called through pool manager\");\r\n\r\n        require(balanceOf(user) >= amount, \"user balance too low\"); // make sure user owns as much as they want to withdraw\r\n\r\n        /*\r\n        make this withdraw some funds from old strategy and some from new strategy depending on migration state of\r\n        funds by regionmanager from one strategy to another, in case someone withdraws while funds are moving\r\n                    ratio of funds in old to new    *   share of users stake to withdraw    *      ratio of users investment to total pool value\r\n        (ratio of funds in old/ total Funds in both) * ( amount / balanceOf(user) ) *    (balanceOf(user) / totalSupply())  -- how much to deposit into old. replace old with new for new in first funds ratio\r\n        */\r\n\r\n\r\n        //------------------------------------------------------------------------------------------------------------------------------------------------\r\n\r\n        //uint oldToWithdraw = oldstrat.balanceOf() * ( amount / balanceOf(user) ) * (balanceOf(user) / totalSupply())\r\n        //uint newToWithdraw = newstrat.balanceOf() * ( amount / balanceOf(user) ) * (balanceOf(user) / totalSupply())\r\n        //the above two should work because you take the same ratio out of each equal to useres share, and the other two, even though it is in two parts, represent the money of everyone so user should get user share\r\n\r\n        //------------------------------------------------------------------------------------------------------------------------------------------------\r\n\r\n        uint256 starting_funds = stakingToken.balanceOf(address(this));\r\n\r\n        uint256 oldToWithdraw;\r\n\r\n        if(address(oldStrategy) != 0x0000000000000000000000000000000000000000){\r\n            oldToWithdraw = (oldStrategy.totalBalance() *  amount * balanceOf(user)) / (totalSupply() * balanceOf(user));\r\n        }\r\n        uint256 newToWithdraw = (currentStrategy.totalBalance() *  amount * balanceOf(user)) / (totalSupply() * balanceOf(user));\r\n\r\n\r\n        if(address(oldStrategy) != 0x0000000000000000000000000000000000000000){\r\n            oldStrategy.withdraw(oldToWithdraw);\r\n        }\r\n        currentStrategy.withdraw(newToWithdraw);\r\n        uint256 finish_funds = stakingToken.balanceOf(address(this));\r\n        _burn(user, amount);\r\n        stakingToken.transfer(user, finish_funds - starting_funds);\r\n\r\n\r\n    }\r\n\r\n    function getToken() public view returns (IERC20){\r\n        return stakingToken;\r\n    }\r\n\r\n\r\n    //view function to get address of strategy manager contract\r\n    function getStrategyController() public view returns (address){\r\n        return StrategyControler;\r\n    }\r\n\r\n    //view function to get address of pool manager contract\r\n    function getPoolManager() public view returns (PoolManager){\r\n        return poolMAN;\r\n    }\r\n\r\n    function getCurrentStrategy() public view returns (IStrategy){\r\n        return currentStrategy;\r\n    }\r\n\r\n    function getLastStrategy() public view returns (IStrategy){\r\n        return oldStrategy;\r\n    }\r\n\r\n\r\n\r\n\r\n}\r\n",
  "sourcePath": "/home/darkdark/block_projs/rome_stuff/Test-Ground.io/contracts/Pool.sol",
  "compiler": {
    "name": "solc",
    "version": "0.7.5+commit.eb77ed08.Emscripten.clang"
  },
  "schemaVersion": "3.3.2",
  "updatedAt": "2021-01-26T08:52:41.674Z",
  "devdoc": {
    "kind": "dev",
    "methods": {
      "allowance(address,address)": {
        "details": "See {IERC20-allowance}."
      },
      "approve(address,uint256)": {
        "details": "See {IERC20-approve}. Requirements: - `spender` cannot be the zero address."
      },
      "balanceOf(address)": {
        "details": "See {IERC20-balanceOf}."
      },
      "decimals()": {
        "details": "Returns the number of decimals used to get its user representation. For example, if `decimals` equals `2`, a balance of `505` tokens should be displayed to a user as `5,05` (`505 / 10 ** 2`). Tokens usually opt for a value of 18, imitating the relationship between Ether and Wei. This is the value {ERC20} uses, unless {_setupDecimals} is called. NOTE: This information is only used for _display_ purposes: it in no way affects any of the arithmetic of the contract, including {IERC20-balanceOf} and {IERC20-transfer}."
      },
      "decreaseAllowance(address,uint256)": {
        "details": "Atomically decreases the allowance granted to `spender` by the caller. This is an alternative to {approve} that can be used as a mitigation for problems described in {IERC20-approve}. Emits an {Approval} event indicating the updated allowance. Requirements: - `spender` cannot be the zero address. - `spender` must have allowance for the caller of at least `subtractedValue`."
      },
      "increaseAllowance(address,uint256)": {
        "details": "Atomically increases the allowance granted to `spender` by the caller. This is an alternative to {approve} that can be used as a mitigation for problems described in {IERC20-approve}. Emits an {Approval} event indicating the updated allowance. Requirements: - `spender` cannot be the zero address."
      },
      "name()": {
        "details": "Returns the name of the token."
      },
      "symbol()": {
        "details": "Returns the symbol of the token, usually a shorter version of the name."
      },
      "totalSupply()": {
        "details": "See {IERC20-totalSupply}."
      },
      "transfer(address,uint256)": {
        "details": "See {IERC20-transfer}. Requirements: - `recipient` cannot be the zero address. - the caller must have a balance of at least `amount`."
      },
      "transferFrom(address,address,uint256)": {
        "details": "See {IERC20-transferFrom}. Emits an {Approval} event indicating the updated allowance. This is not required by the EIP. See the note at the beginning of {ERC20}. Requirements: - `sender` and `recipient` cannot be the zero address. - `sender` must have a balance of at least `amount`. - the caller must have allowance for ``sender``'s tokens of at least `amount`."
      }
    },
    "version": 1
  },
  "userdoc": {
    "kind": "user",
    "methods": {},
    "version": 1
  }
}