{
  "contractName": "Rome",
  "abi": [
    {
      "inputs": [],
      "stateMutability": "nonpayable",
      "type": "constructor"
    },
    {
      "anonymous": false,
      "inputs": [
        {
          "indexed": true,
          "internalType": "address",
          "name": "owner",
          "type": "address"
        },
        {
          "indexed": true,
          "internalType": "address",
          "name": "spender",
          "type": "address"
        },
        {
          "indexed": false,
          "internalType": "uint256",
          "name": "value",
          "type": "uint256"
        }
      ],
      "name": "Approval",
      "type": "event"
    },
    {
      "anonymous": false,
      "inputs": [
        {
          "indexed": true,
          "internalType": "address",
          "name": "from",
          "type": "address"
        },
        {
          "indexed": true,
          "internalType": "address",
          "name": "to",
          "type": "address"
        },
        {
          "indexed": false,
          "internalType": "uint256",
          "name": "value",
          "type": "uint256"
        }
      ],
      "name": "Transfer",
      "type": "event"
    },
    {
      "inputs": [
        {
          "internalType": "address",
          "name": "owner",
          "type": "address"
        },
        {
          "internalType": "address",
          "name": "spender",
          "type": "address"
        }
      ],
      "name": "allowance",
      "outputs": [
        {
          "internalType": "uint256",
          "name": "",
          "type": "uint256"
        }
      ],
      "stateMutability": "view",
      "type": "function"
    },
    {
      "inputs": [
        {
          "internalType": "address",
          "name": "spender",
          "type": "address"
        },
        {
          "internalType": "uint256",
          "name": "amount",
          "type": "uint256"
        }
      ],
      "name": "approve",
      "outputs": [
        {
          "internalType": "bool",
          "name": "",
          "type": "bool"
        }
      ],
      "stateMutability": "nonpayable",
      "type": "function"
    },
    {
      "inputs": [
        {
          "internalType": "address",
          "name": "account",
          "type": "address"
        }
      ],
      "name": "balanceOf",
      "outputs": [
        {
          "internalType": "uint256",
          "name": "",
          "type": "uint256"
        }
      ],
      "stateMutability": "view",
      "type": "function"
    },
    {
      "inputs": [],
      "name": "decimals",
      "outputs": [
        {
          "internalType": "uint8",
          "name": "",
          "type": "uint8"
        }
      ],
      "stateMutability": "view",
      "type": "function"
    },
    {
      "inputs": [
        {
          "internalType": "address",
          "name": "spender",
          "type": "address"
        },
        {
          "internalType": "uint256",
          "name": "subtractedValue",
          "type": "uint256"
        }
      ],
      "name": "decreaseAllowance",
      "outputs": [
        {
          "internalType": "bool",
          "name": "",
          "type": "bool"
        }
      ],
      "stateMutability": "nonpayable",
      "type": "function"
    },
    {
      "inputs": [
        {
          "internalType": "address",
          "name": "spender",
          "type": "address"
        },
        {
          "internalType": "uint256",
          "name": "addedValue",
          "type": "uint256"
        }
      ],
      "name": "increaseAllowance",
      "outputs": [
        {
          "internalType": "bool",
          "name": "",
          "type": "bool"
        }
      ],
      "stateMutability": "nonpayable",
      "type": "function"
    },
    {
      "inputs": [],
      "name": "name",
      "outputs": [
        {
          "internalType": "string",
          "name": "",
          "type": "string"
        }
      ],
      "stateMutability": "view",
      "type": "function"
    },
    {
      "inputs": [],
      "name": "symbol",
      "outputs": [
        {
          "internalType": "string",
          "name": "",
          "type": "string"
        }
      ],
      "stateMutability": "view",
      "type": "function"
    },
    {
      "inputs": [],
      "name": "totalSupply",
      "outputs": [
        {
          "internalType": "uint256",
          "name": "",
          "type": "uint256"
        }
      ],
      "stateMutability": "view",
      "type": "function"
    },
    {
      "inputs": [
        {
          "internalType": "address",
          "name": "recipient",
          "type": "address"
        },
        {
          "internalType": "uint256",
          "name": "amount",
          "type": "uint256"
        }
      ],
      "name": "transfer",
      "outputs": [
        {
          "internalType": "bool",
          "name": "",
          "type": "bool"
        }
      ],
      "stateMutability": "nonpayable",
      "type": "function"
    },
    {
      "inputs": [
        {
          "internalType": "address",
          "name": "sender",
          "type": "address"
        },
        {
          "internalType": "address",
          "name": "recipient",
          "type": "address"
        },
        {
          "internalType": "uint256",
          "name": "amount",
          "type": "uint256"
        }
      ],
      "name": "transferFrom",
      "outputs": [
        {
          "internalType": "bool",
          "name": "",
          "type": "bool"
        }
      ],
      "stateMutability": "nonpayable",
      "type": "function"
    },
    {
      "inputs": [
        {
          "internalType": "uint256",
          "name": "amount",
          "type": "uint256"
        }
      ],
      "name": "buyRome",
      "outputs": [],
      "stateMutability": "payable",
      "type": "function"
    },
    {
      "inputs": [
        {
          "internalType": "uint256",
          "name": "romeToBurn",
          "type": "uint256"
        }
      ],
      "name": "prepareUnstake",
      "outputs": [],
      "stateMutability": "nonpayable",
      "type": "function"
    },
    {
      "inputs": [
        {
          "internalType": "uint256",
          "name": "etherToTakeOut",
          "type": "uint256"
        }
      ],
      "name": "unstake",
      "outputs": [],
      "stateMutability": "nonpayable",
      "type": "function"
    },
    {
      "inputs": [
        {
          "internalType": "uint256",
          "name": "amount",
          "type": "uint256"
        }
      ],
      "name": "mint",
      "outputs": [],
      "stateMutability": "nonpayable",
      "type": "function"
    }
  ],
  "bytecode": "0x608060405267016345785d8a00006007553480156200001d57600080fd5b506040518060400160405280600481526020017f526f6d65000000000000000000000000000000000000000000000000000000008152506040518060400160405280600481526020017f524f4d45000000000000000000000000000000000000000000000000000000008152508160039080519060200190620000a2929190620000e0565b508060049080519060200190620000bb929190620000e0565b506012600560006101000a81548160ff021916908360ff160217905550505062000196565b828054600181600116156101000203166002900490600052602060002090601f01602090048101928262000118576000855562000164565b82601f106200013357805160ff191683800117855562000164565b8280016001018555821562000164579182015b828111156200016357825182559160200191906001019062000146565b5b50905062000173919062000177565b5090565b5b808211156200019257600081600090555060010162000178565b5090565b611aa580620001a66000396000f3fe6080604052600436106100e85760003560e01c8063395093511161008a578063a0712d6811610059578063a0712d68146104e2578063a457c2d71461051d578063a9059cbb1461058e578063dd62ed3e146105ff576100e8565b8063395093511461034e57806370a08231146103bf57806395d89b41146104245780639ba0dcb5146104b4576100e8565b806323b872dd116100c657806323b872dd14610219578063265c7760146102aa5780632e17de78146102e5578063313ce56714610320576100e8565b806306fdde03146100ed578063095ea7b31461017d57806318160ddd146101ee575b600080fd5b3480156100f957600080fd5b50610102610684565b6040518080602001828103825283818151815260200191508051906020019080838360005b83811015610142578082015181840152602081019050610127565b50505050905090810190601f16801561016f5780820380516001836020036101000a031916815260200191505b509250505060405180910390f35b34801561018957600080fd5b506101d6600480360360408110156101a057600080fd5b81019080803573ffffffffffffffffffffffffffffffffffffffff16906020019092919080359060200190929190505050610726565b60405180821515815260200191505060405180910390f35b3480156101fa57600080fd5b50610203610744565b6040518082815260200191505060405180910390f35b34801561022557600080fd5b506102926004803603606081101561023c57600080fd5b81019080803573ffffffffffffffffffffffffffffffffffffffff169060200190929190803573ffffffffffffffffffffffffffffffffffffffff1690602001909291908035906020019092919050505061074e565b60405180821515815260200191505060405180910390f35b3480156102b657600080fd5b506102e3600480360360208110156102cd57600080fd5b8101908080359060200190929190505050610827565b005b3480156102f157600080fd5b5061031e6004803603602081101561030857600080fd5b81019080803590602001909291905050506108e4565b005b34801561032c57600080fd5b50610335610ab3565b604051808260ff16815260200191505060405180910390f35b34801561035a57600080fd5b506103a76004803603604081101561037157600080fd5b81019080803573ffffffffffffffffffffffffffffffffffffffff16906020019092919080359060200190929190505050610aca565b60405180821515815260200191505060405180910390f35b3480156103cb57600080fd5b5061040e600480360360208110156103e257600080fd5b81019080803573ffffffffffffffffffffffffffffffffffffffff169060200190929190505050610b7d565b6040518082815260200191505060405180910390f35b34801561043057600080fd5b50610439610bc5565b6040518080602001828103825283818151815260200191508051906020019080838360005b8381101561047957808201518184015260208101905061045e565b50505050905090810190601f1680156104a65780820380516001836020036101000a031916815260200191505b509250505060405180910390f35b6104e0600480360360208110156104ca57600080fd5b8101908080359060200190929190505050610c67565b005b3480156104ee57600080fd5b5061051b6004803603602081101561050557600080fd5b8101908080359060200190929190505050610cd6565b005b34801561052957600080fd5b506105766004803603604081101561054057600080fd5b81019080803573ffffffffffffffffffffffffffffffffffffffff16906020019092919080359060200190929190505050610ce3565b60405180821515815260200191505060405180910390f35b34801561059a57600080fd5b506105e7600480360360408110156105b157600080fd5b81019080803573ffffffffffffffffffffffffffffffffffffffff16906020019092919080359060200190929190505050610db0565b60405180821515815260200191505060405180910390f35b34801561060b57600080fd5b5061066e6004803603604081101561062257600080fd5b81019080803573ffffffffffffffffffffffffffffffffffffffff169060200190929190803573ffffffffffffffffffffffffffffffffffffffff169060200190929190505050610dce565b6040518082815260200191505060405180910390f35b606060038054600181600116156101000203166002900480601f01602080910402602001604051908101604052809291908181526020018280546001816001161561010002031660029004801561071c5780601f106106f15761010080835404028352916020019161071c565b820191906000526020600020905b8154815290600101906020018083116106ff57829003601f168201915b5050505050905090565b600061073a610733610e55565b8484610e5d565b6001905092915050565b6000600254905090565b600061075b848484611054565b61081c84610767610e55565b6108178560405180606001604052806028815260200161197760289139600160008b73ffffffffffffffffffffffffffffffffffffffff1673ffffffffffffffffffffffffffffffffffffffff16815260200190815260200160002060006107cd610e55565b73ffffffffffffffffffffffffffffffffffffffff1673ffffffffffffffffffffffffffffffffffffffff168152602001908152602001600020546113159092919063ffffffff16565b610e5d565b600190509392505050565b8061083133610b7d565b101561083c57600080fd5b61084633826113d5565b43600660003373ffffffffffffffffffffffffffffffffffffffff1673ffffffffffffffffffffffffffffffffffffffff168152602001908152602001600020600001819055506007548102600660003373ffffffffffffffffffffffffffffffffffffffff1673ffffffffffffffffffffffffffffffffffffffff1681526020019081526020016000206001016000828254019250508190555050565b80600660003373ffffffffffffffffffffffffffffffffffffffff1673ffffffffffffffffffffffffffffffffffffffff16815260200190815260200160002060010154101561097f576040517f08c379a000000000000000000000000000000000000000000000000000000000815260040180806020018281038252603e8152602001806118cf603e913960400191505060405180910390fd5b43600660003373ffffffffffffffffffffffffffffffffffffffff1673ffffffffffffffffffffffffffffffffffffffff1681526020019081526020016000206000015410610a19576040517f08c379a000000000000000000000000000000000000000000000000000000000815260040180806020018281038252607481526020018061185b6074913960800191505060405180910390fd5b80600660003373ffffffffffffffffffffffffffffffffffffffff1673ffffffffffffffffffffffffffffffffffffffff168152602001908152602001600020600101600082825403925050819055503373ffffffffffffffffffffffffffffffffffffffff166108fc829081150290604051600060405180830381858888f19350505050158015610aaf573d6000803e3d6000fd5b5050565b6000600560009054906101000a900460ff16905090565b6000610b73610ad7610e55565b84610b6e8560016000610ae8610e55565b73ffffffffffffffffffffffffffffffffffffffff1673ffffffffffffffffffffffffffffffffffffffff16815260200190815260200160002060008973ffffffffffffffffffffffffffffffffffffffff1673ffffffffffffffffffffffffffffffffffffffff1681526020019081526020016000205461159990919063ffffffff16565b610e5d565b6001905092915050565b60008060008373ffffffffffffffffffffffffffffffffffffffff1673ffffffffffffffffffffffffffffffffffffffff168152602001908152602001600020549050919050565b606060048054600181600116156101000203166002900480601f016020809104026020016040519081016040528092919081815260200182805460018160011615610100020316600290048015610c5d5780601f10610c3257610100808354040283529160200191610c5d565b820191906000526020600020905b815481529060010190602001808311610c4057829003601f168201915b5050505050905090565b600060075482029050803414610cc8576040517f08c379a0000000000000000000000000000000000000000000000000000000008152600401808060200182810382526042815260200180611a2e6042913960600191505060405180910390fd5b610cd23383611621565b5050565b610ce03382611621565b50565b6000610da6610cf0610e55565b84610da185604051806060016040528060258152602001611a096025913960016000610d1a610e55565b73ffffffffffffffffffffffffffffffffffffffff1673ffffffffffffffffffffffffffffffffffffffff16815260200190815260200160002060008a73ffffffffffffffffffffffffffffffffffffffff1673ffffffffffffffffffffffffffffffffffffffff168152602001908152602001600020546113159092919063ffffffff16565b610e5d565b6001905092915050565b6000610dc4610dbd610e55565b8484611054565b6001905092915050565b6000600160008473ffffffffffffffffffffffffffffffffffffffff1673ffffffffffffffffffffffffffffffffffffffff16815260200190815260200160002060008373ffffffffffffffffffffffffffffffffffffffff1673ffffffffffffffffffffffffffffffffffffffff16815260200190815260200160002054905092915050565b600033905090565b600073ffffffffffffffffffffffffffffffffffffffff168373ffffffffffffffffffffffffffffffffffffffff161415610ee3576040517f08c379a00000000000000000000000000000000000000000000000000000000081526004018080602001828103825260248152602001806119e56024913960400191505060405180910390fd5b600073ffffffffffffffffffffffffffffffffffffffff168273ffffffffffffffffffffffffffffffffffffffff161415610f69576040517f08c379a000000000000000000000000000000000000000000000000000000000815260040180806020018281038252602281526020018061192f6022913960400191505060405180910390fd5b80600160008573ffffffffffffffffffffffffffffffffffffffff1673ffffffffffffffffffffffffffffffffffffffff16815260200190815260200160002060008473ffffffffffffffffffffffffffffffffffffffff1673ffffffffffffffffffffffffffffffffffffffff168152602001908152602001600020819055508173ffffffffffffffffffffffffffffffffffffffff168373ffffffffffffffffffffffffffffffffffffffff167f8c5be1e5ebec7d5bd14f71427d1e84f3dd0314c0f7b2291e5b200ac8c7c3b925836040518082815260200191505060405180910390a3505050565b600073ffffffffffffffffffffffffffffffffffffffff168373ffffffffffffffffffffffffffffffffffffffff1614156110da576040517f08c379a00000000000000000000000000000000000000000000000000000000081526004018080602001828103825260258152602001806119c06025913960400191505060405180910390fd5b600073ffffffffffffffffffffffffffffffffffffffff168273ffffffffffffffffffffffffffffffffffffffff161415611160576040517f08c379a00000000000000000000000000000000000000000000000000000000081526004018080602001828103825260238152602001806118386023913960400191505060405180910390fd5b61116b8383836117e8565b6111d681604051806060016040528060268152602001611951602691396000808773ffffffffffffffffffffffffffffffffffffffff1673ffffffffffffffffffffffffffffffffffffffff168152602001908152602001600020546113159092919063ffffffff16565b6000808573ffffffffffffffffffffffffffffffffffffffff1673ffffffffffffffffffffffffffffffffffffffff16815260200190815260200160002081905550611269816000808573ffffffffffffffffffffffffffffffffffffffff1673ffffffffffffffffffffffffffffffffffffffff1681526020019081526020016000205461159990919063ffffffff16565b6000808473ffffffffffffffffffffffffffffffffffffffff1673ffffffffffffffffffffffffffffffffffffffff168152602001908152602001600020819055508173ffffffffffffffffffffffffffffffffffffffff168373ffffffffffffffffffffffffffffffffffffffff167fddf252ad1be2c89b69c2b068fc378daa952ba7f163c4a11628f55a4df523b3ef836040518082815260200191505060405180910390a3505050565b60008383111582906113c2576040517f08c379a00000000000000000000000000000000000000000000000000000000081526004018080602001828103825283818151815260200191508051906020019080838360005b8381101561138757808201518184015260208101905061136c565b50505050905090810190601f1680156113b45780820380516001836020036101000a031916815260200191505b509250505060405180910390fd5b5060008385039050809150509392505050565b600073ffffffffffffffffffffffffffffffffffffffff168273ffffffffffffffffffffffffffffffffffffffff16141561145b576040517f08c379a000000000000000000000000000000000000000000000000000000000815260040180806020018281038252602181526020018061199f6021913960400191505060405180910390fd5b611467826000836117e8565b6114d28160405180606001604052806022815260200161190d602291396000808673ffffffffffffffffffffffffffffffffffffffff1673ffffffffffffffffffffffffffffffffffffffff168152602001908152602001600020546113159092919063ffffffff16565b6000808473ffffffffffffffffffffffffffffffffffffffff1673ffffffffffffffffffffffffffffffffffffffff16815260200190815260200160002081905550611529816002546117ed90919063ffffffff16565b600281905550600073ffffffffffffffffffffffffffffffffffffffff168273ffffffffffffffffffffffffffffffffffffffff167fddf252ad1be2c89b69c2b068fc378daa952ba7f163c4a11628f55a4df523b3ef836040518082815260200191505060405180910390a35050565b600080828401905083811015611617576040517f08c379a000000000000000000000000000000000000000000000000000000000815260040180806020018281038252601b8152602001807f536166654d6174683a206164646974696f6e206f766572666c6f77000000000081525060200191505060405180910390fd5b8091505092915050565b600073ffffffffffffffffffffffffffffffffffffffff168273ffffffffffffffffffffffffffffffffffffffff1614156116c4576040517f08c379a000000000000000000000000000000000000000000000000000000000815260040180806020018281038252601f8152602001807f45524332303a206d696e7420746f20746865207a65726f20616464726573730081525060200191505060405180910390fd5b6116d0600083836117e8565b6116e58160025461159990919063ffffffff16565b60028190555061173c816000808573ffffffffffffffffffffffffffffffffffffffff1673ffffffffffffffffffffffffffffffffffffffff1681526020019081526020016000205461159990919063ffffffff16565b6000808473ffffffffffffffffffffffffffffffffffffffff1673ffffffffffffffffffffffffffffffffffffffff168152602001908152602001600020819055508173ffffffffffffffffffffffffffffffffffffffff16600073ffffffffffffffffffffffffffffffffffffffff167fddf252ad1be2c89b69c2b068fc378daa952ba7f163c4a11628f55a4df523b3ef836040518082815260200191505060405180910390a35050565b505050565b600061182f83836040518060400160405280601e81526020017f536166654d6174683a207375627472616374696f6e206f766572666c6f770000815250611315565b90509291505056fe45524332303a207472616e7366657220746f20746865207a65726f2061646472657373796f75206d7573742077616974206174206c65617374203120626c6f636b206265666f72652063617368696e67206f75742e20536f72727920666f722074686520696e636f6e76656e69656e63652c207468697320697320746f20677561726420616761696e737420666c617368206c6f616e73747279696e6720746f207769746864726177206d6f726520657468207468616e20796f75206861766520707265706172656420746f2063617368206f757445524332303a206275726e20616d6f756e7420657863656564732062616c616e636545524332303a20617070726f766520746f20746865207a65726f206164647265737345524332303a207472616e7366657220616d6f756e7420657863656564732062616c616e636545524332303a207472616e7366657220616d6f756e74206578636565647320616c6c6f77616e636545524332303a206275726e2066726f6d20746865207a65726f206164647265737345524332303a207472616e736665722066726f6d20746865207a65726f206164647265737345524332303a20617070726f76652066726f6d20746865207a65726f206164647265737345524332303a2064656372656173656420616c6c6f77616e63652062656c6f77207a65726f53656e7420657468657220646f6573206e6f74206d617463682062757920707269636520666f72207468652072657175657374656420746f6b656e20616d6f756e74a2646970667358221220edbfac4e3a2a8e79e806ad525acf5dc572d2eb611616146ba36892239c1379f064736f6c63430007050033",
  "immutableReferences": {},
  "source": "pragma solidity =0.7.5;\r\n\r\n\r\nimport \"./openzeppelin-contracts/contracts/token/ERC20/ERC20.sol\";\r\n\r\n\r\n\r\ncontract Rome is ERC20 {\r\n    using SafeMath for uint256;\r\n\r\n\r\n    struct User{\r\n        //the last block that the user burned rome to prepare to cash out\r\n        uint256 lastBlock;\r\n        //ether a user has burned rome tokens to gain, but has not yet claimed from the contract\r\n        uint256 redeemedEther;\r\n    }\r\n\r\n    //stores all the info of users in order to cash out\r\n     mapping(address => User) users;\r\n\r\n    // .1 eth\r\n    uint256 romePrice = 100000000000000000;\r\n\r\n    constructor() ERC20(\"Rome\", \"ROME\") public {\r\n\r\n    }\r\n\r\n\r\n    function buyRome(uint256 amount) public payable{\r\n        uint256 cost = amount * romePrice; //each rome token costs .1 eth\r\n        require(msg.value == cost, \"Sent ether does not match buy price for the requested token amount\");\r\n        _mint(msg.sender, amount);\r\n    }\r\n\r\n    //\r\n    function prepareUnstake(uint256 romeToBurn) public{\r\n        // make sure the sender actually at least as much rome as they want to burn\r\n        require(balanceOf(msg.sender) >= romeToBurn);\r\n        //destroy the rome tokens\r\n        _burn(msg.sender, romeToBurn);\r\n        //set the data in the user struct so they can take out the eth during another block after this one.\r\n        //this helps guard against flashloan attacks\r\n        users[msg.sender].lastBlock = block.number;\r\n        users[msg.sender].redeemedEther += romeToBurn * romePrice;\r\n    }\r\n\r\n    //must be executed at least one block later than prepareCashOut\r\n    function unstake(uint256 etherToTakeOut) public{\r\n        //must have enough eth ready to cash out for argument passed in\r\n        require(users[msg.sender].redeemedEther >= etherToTakeOut, \"trying to withdraw more eth than you have prepared to cash out\");\r\n        //must have passed one block at least since burning rome to convert to eth\r\n        require(users[msg.sender].lastBlock < block.number, \"you must wait at least 1 block before cashing out. Sorry for the inconvenience, this is to guard against flash loans\");\r\n        //subtract the ether this user has requested to take out of the contract from their allowance to take out of the contract\r\n        //always subtract balance before transfering money, reentrancy attacks\r\n        users[msg.sender].redeemedEther -= etherToTakeOut;\r\n        //send em their eth!\r\n        msg.sender.transfer(etherToTakeOut);\r\n    }\r\n\r\n    function mint(uint256 amount) public{\r\n        _mint(msg.sender, amount);\r\n    }\r\n\r\n\r\n}\r\n",
  "sourcePath": "/home/darkdark/block_projs/rome_stuff/Test-Ground.io/contracts/Rome.sol",
  "compiler": {
    "name": "solc",
    "version": "0.7.5+commit.eb77ed08.Emscripten.clang"
  },
  "schemaVersion": "3.3.2",
  "updatedAt": "2021-02-01T08:21:09.249Z",
  "devdoc": {
    "kind": "dev",
    "methods": {
      "allowance(address,address)": {
        "details": "See {IERC20-allowance}."
      },
      "approve(address,uint256)": {
        "details": "See {IERC20-approve}. Requirements: - `spender` cannot be the zero address."
      },
      "balanceOf(address)": {
        "details": "See {IERC20-balanceOf}."
      },
      "decimals()": {
        "details": "Returns the number of decimals used to get its user representation. For example, if `decimals` equals `2`, a balance of `505` tokens should be displayed to a user as `5,05` (`505 / 10 ** 2`). Tokens usually opt for a value of 18, imitating the relationship between Ether and Wei. This is the value {ERC20} uses, unless {_setupDecimals} is called. NOTE: This information is only used for _display_ purposes: it in no way affects any of the arithmetic of the contract, including {IERC20-balanceOf} and {IERC20-transfer}."
      },
      "decreaseAllowance(address,uint256)": {
        "details": "Atomically decreases the allowance granted to `spender` by the caller. This is an alternative to {approve} that can be used as a mitigation for problems described in {IERC20-approve}. Emits an {Approval} event indicating the updated allowance. Requirements: - `spender` cannot be the zero address. - `spender` must have allowance for the caller of at least `subtractedValue`."
      },
      "increaseAllowance(address,uint256)": {
        "details": "Atomically increases the allowance granted to `spender` by the caller. This is an alternative to {approve} that can be used as a mitigation for problems described in {IERC20-approve}. Emits an {Approval} event indicating the updated allowance. Requirements: - `spender` cannot be the zero address."
      },
      "name()": {
        "details": "Returns the name of the token."
      },
      "symbol()": {
        "details": "Returns the symbol of the token, usually a shorter version of the name."
      },
      "totalSupply()": {
        "details": "See {IERC20-totalSupply}."
      },
      "transfer(address,uint256)": {
        "details": "See {IERC20-transfer}. Requirements: - `recipient` cannot be the zero address. - the caller must have a balance of at least `amount`."
      },
      "transferFrom(address,address,uint256)": {
        "details": "See {IERC20-transferFrom}. Emits an {Approval} event indicating the updated allowance. This is not required by the EIP. See the note at the beginning of {ERC20}. Requirements: - `sender` and `recipient` cannot be the zero address. - `sender` must have a balance of at least `amount`. - the caller must have allowance for ``sender``'s tokens of at least `amount`."
      }
    },
    "version": 1
  },
  "userdoc": {
    "kind": "user",
    "methods": {},
    "version": 1
  }
}