{
  "contractName": "Rome",
  "abi": [
    {
      "inputs": [],
      "stateMutability": "nonpayable",
      "type": "constructor"
    },
    {
      "anonymous": false,
      "inputs": [
        {
          "indexed": true,
          "internalType": "address",
          "name": "owner",
          "type": "address"
        },
        {
          "indexed": true,
          "internalType": "address",
          "name": "spender",
          "type": "address"
        },
        {
          "indexed": false,
          "internalType": "uint256",
          "name": "value",
          "type": "uint256"
        }
      ],
      "name": "Approval",
      "type": "event"
    },
    {
      "anonymous": false,
      "inputs": [
        {
          "indexed": true,
          "internalType": "address",
          "name": "from",
          "type": "address"
        },
        {
          "indexed": true,
          "internalType": "address",
          "name": "to",
          "type": "address"
        },
        {
          "indexed": false,
          "internalType": "uint256",
          "name": "value",
          "type": "uint256"
        }
      ],
      "name": "Transfer",
      "type": "event"
    },
    {
      "inputs": [
        {
          "internalType": "address",
          "name": "owner",
          "type": "address"
        },
        {
          "internalType": "address",
          "name": "spender",
          "type": "address"
        }
      ],
      "name": "allowance",
      "outputs": [
        {
          "internalType": "uint256",
          "name": "",
          "type": "uint256"
        }
      ],
      "stateMutability": "view",
      "type": "function"
    },
    {
      "inputs": [
        {
          "internalType": "address",
          "name": "spender",
          "type": "address"
        },
        {
          "internalType": "uint256",
          "name": "amount",
          "type": "uint256"
        }
      ],
      "name": "approve",
      "outputs": [
        {
          "internalType": "bool",
          "name": "",
          "type": "bool"
        }
      ],
      "stateMutability": "nonpayable",
      "type": "function"
    },
    {
      "inputs": [
        {
          "internalType": "address",
          "name": "account",
          "type": "address"
        }
      ],
      "name": "balanceOf",
      "outputs": [
        {
          "internalType": "uint256",
          "name": "",
          "type": "uint256"
        }
      ],
      "stateMutability": "view",
      "type": "function"
    },
    {
      "inputs": [],
      "name": "decimals",
      "outputs": [
        {
          "internalType": "uint8",
          "name": "",
          "type": "uint8"
        }
      ],
      "stateMutability": "view",
      "type": "function"
    },
    {
      "inputs": [
        {
          "internalType": "address",
          "name": "spender",
          "type": "address"
        },
        {
          "internalType": "uint256",
          "name": "subtractedValue",
          "type": "uint256"
        }
      ],
      "name": "decreaseAllowance",
      "outputs": [
        {
          "internalType": "bool",
          "name": "",
          "type": "bool"
        }
      ],
      "stateMutability": "nonpayable",
      "type": "function"
    },
    {
      "inputs": [
        {
          "internalType": "address",
          "name": "spender",
          "type": "address"
        },
        {
          "internalType": "uint256",
          "name": "addedValue",
          "type": "uint256"
        }
      ],
      "name": "increaseAllowance",
      "outputs": [
        {
          "internalType": "bool",
          "name": "",
          "type": "bool"
        }
      ],
      "stateMutability": "nonpayable",
      "type": "function"
    },
    {
      "inputs": [],
      "name": "name",
      "outputs": [
        {
          "internalType": "string",
          "name": "",
          "type": "string"
        }
      ],
      "stateMutability": "view",
      "type": "function"
    },
    {
      "inputs": [],
      "name": "symbol",
      "outputs": [
        {
          "internalType": "string",
          "name": "",
          "type": "string"
        }
      ],
      "stateMutability": "view",
      "type": "function"
    },
    {
      "inputs": [],
      "name": "totalSupply",
      "outputs": [
        {
          "internalType": "uint256",
          "name": "",
          "type": "uint256"
        }
      ],
      "stateMutability": "view",
      "type": "function"
    },
    {
      "inputs": [
        {
          "internalType": "address",
          "name": "recipient",
          "type": "address"
        },
        {
          "internalType": "uint256",
          "name": "amount",
          "type": "uint256"
        }
      ],
      "name": "transfer",
      "outputs": [
        {
          "internalType": "bool",
          "name": "",
          "type": "bool"
        }
      ],
      "stateMutability": "nonpayable",
      "type": "function"
    },
    {
      "inputs": [
        {
          "internalType": "address",
          "name": "sender",
          "type": "address"
        },
        {
          "internalType": "address",
          "name": "recipient",
          "type": "address"
        },
        {
          "internalType": "uint256",
          "name": "amount",
          "type": "uint256"
        }
      ],
      "name": "transferFrom",
      "outputs": [
        {
          "internalType": "bool",
          "name": "",
          "type": "bool"
        }
      ],
      "stateMutability": "nonpayable",
      "type": "function"
    },
    {
      "inputs": [
        {
          "internalType": "uint256",
          "name": "amount",
          "type": "uint256"
        }
      ],
      "name": "buyRome",
      "outputs": [],
      "stateMutability": "payable",
      "type": "function"
    },
    {
      "inputs": [
        {
          "internalType": "uint256",
          "name": "romeToBurn",
          "type": "uint256"
        }
      ],
      "name": "prepareUnstake",
      "outputs": [],
      "stateMutability": "nonpayable",
      "type": "function"
    },
    {
      "inputs": [
        {
          "internalType": "uint256",
          "name": "etherToTakeOut",
          "type": "uint256"
        }
      ],
      "name": "unstake",
      "outputs": [],
      "stateMutability": "nonpayable",
      "type": "function"
    }
  ],
  "bytecode": "0x608060405267016345785d8a00006007553480156200001d57600080fd5b506040518060400160405280600481526020017f526f6d65000000000000000000000000000000000000000000000000000000008152506040518060400160405280600481526020017f524f4d45000000000000000000000000000000000000000000000000000000008152508160039080519060200190620000a2929190620000e0565b508060049080519060200190620000bb929190620000e0565b506012600560006101000a81548160ff021916908360ff160217905550505062000196565b828054600181600116156101000203166002900490600052602060002090601f01602090048101928262000118576000855562000164565b82601f106200013357805160ff191683800117855562000164565b8280016001018555821562000164579182015b828111156200016357825182559160200191906001019062000146565b5b50905062000173919062000177565b5090565b5b808211156200019257600081600090555060010162000178565b5090565b611a5280620001a66000396000f3fe6080604052600436106100dd5760003560e01c8063395093511161007f5780639ba0dcb5116100595780639ba0dcb5146104a9578063a457c2d7146104d7578063a9059cbb14610548578063dd62ed3e146105b9576100dd565b8063395093511461034357806370a08231146103b457806395d89b4114610419576100dd565b806323b872dd116100bb57806323b872dd1461020e578063265c77601461029f5780632e17de78146102da578063313ce56714610315576100dd565b806306fdde03146100e2578063095ea7b31461017257806318160ddd146101e3575b600080fd5b3480156100ee57600080fd5b506100f761063e565b6040518080602001828103825283818151815260200191508051906020019080838360005b8381101561013757808201518184015260208101905061011c565b50505050905090810190601f1680156101645780820380516001836020036101000a031916815260200191505b509250505060405180910390f35b34801561017e57600080fd5b506101cb6004803603604081101561019557600080fd5b81019080803573ffffffffffffffffffffffffffffffffffffffff169060200190929190803590602001909291905050506106e0565b60405180821515815260200191505060405180910390f35b3480156101ef57600080fd5b506101f86106fe565b6040518082815260200191505060405180910390f35b34801561021a57600080fd5b506102876004803603606081101561023157600080fd5b81019080803573ffffffffffffffffffffffffffffffffffffffff169060200190929190803573ffffffffffffffffffffffffffffffffffffffff16906020019092919080359060200190929190505050610708565b60405180821515815260200191505060405180910390f35b3480156102ab57600080fd5b506102d8600480360360208110156102c257600080fd5b81019080803590602001909291905050506107e1565b005b3480156102e657600080fd5b50610313600480360360208110156102fd57600080fd5b810190808035906020019092919050505061089e565b005b34801561032157600080fd5b5061032a610a6d565b604051808260ff16815260200191505060405180910390f35b34801561034f57600080fd5b5061039c6004803603604081101561036657600080fd5b81019080803573ffffffffffffffffffffffffffffffffffffffff16906020019092919080359060200190929190505050610a84565b60405180821515815260200191505060405180910390f35b3480156103c057600080fd5b50610403600480360360208110156103d757600080fd5b81019080803573ffffffffffffffffffffffffffffffffffffffff169060200190929190505050610b37565b6040518082815260200191505060405180910390f35b34801561042557600080fd5b5061042e610b7f565b6040518080602001828103825283818151815260200191508051906020019080838360005b8381101561046e578082015181840152602081019050610453565b50505050905090810190601f16801561049b5780820380516001836020036101000a031916815260200191505b509250505060405180910390f35b6104d5600480360360208110156104bf57600080fd5b8101908080359060200190929190505050610c21565b005b3480156104e357600080fd5b50610530600480360360408110156104fa57600080fd5b81019080803573ffffffffffffffffffffffffffffffffffffffff16906020019092919080359060200190929190505050610c90565b60405180821515815260200191505060405180910390f35b34801561055457600080fd5b506105a16004803603604081101561056b57600080fd5b81019080803573ffffffffffffffffffffffffffffffffffffffff16906020019092919080359060200190929190505050610d5d565b60405180821515815260200191505060405180910390f35b3480156105c557600080fd5b50610628600480360360408110156105dc57600080fd5b81019080803573ffffffffffffffffffffffffffffffffffffffff169060200190929190803573ffffffffffffffffffffffffffffffffffffffff169060200190929190505050610d7b565b6040518082815260200191505060405180910390f35b606060038054600181600116156101000203166002900480601f0160208091040260200160405190810160405280929190818152602001828054600181600116156101000203166002900480156106d65780601f106106ab576101008083540402835291602001916106d6565b820191906000526020600020905b8154815290600101906020018083116106b957829003601f168201915b5050505050905090565b60006106f46106ed610e02565b8484610e0a565b6001905092915050565b6000600254905090565b6000610715848484611001565b6107d684610721610e02565b6107d18560405180606001604052806028815260200161192460289139600160008b73ffffffffffffffffffffffffffffffffffffffff1673ffffffffffffffffffffffffffffffffffffffff1681526020019081526020016000206000610787610e02565b73ffffffffffffffffffffffffffffffffffffffff1673ffffffffffffffffffffffffffffffffffffffff168152602001908152602001600020546112c29092919063ffffffff16565b610e0a565b600190509392505050565b806107eb33610b37565b10156107f657600080fd5b6108003382611382565b43600660003373ffffffffffffffffffffffffffffffffffffffff1673ffffffffffffffffffffffffffffffffffffffff168152602001908152602001600020600001819055506007548102600660003373ffffffffffffffffffffffffffffffffffffffff1673ffffffffffffffffffffffffffffffffffffffff1681526020019081526020016000206001016000828254019250508190555050565b80600660003373ffffffffffffffffffffffffffffffffffffffff1673ffffffffffffffffffffffffffffffffffffffff168152602001908152602001600020600101541015610939576040517f08c379a000000000000000000000000000000000000000000000000000000000815260040180806020018281038252603e81526020018061187c603e913960400191505060405180910390fd5b43600660003373ffffffffffffffffffffffffffffffffffffffff1673ffffffffffffffffffffffffffffffffffffffff16815260200190815260200160002060000154106109d3576040517f08c379a00000000000000000000000000000000000000000000000000000000081526004018080602001828103825260748152602001806118086074913960800191505060405180910390fd5b80600660003373ffffffffffffffffffffffffffffffffffffffff1673ffffffffffffffffffffffffffffffffffffffff168152602001908152602001600020600101600082825403925050819055503373ffffffffffffffffffffffffffffffffffffffff166108fc829081150290604051600060405180830381858888f19350505050158015610a69573d6000803e3d6000fd5b5050565b6000600560009054906101000a900460ff16905090565b6000610b2d610a91610e02565b84610b288560016000610aa2610e02565b73ffffffffffffffffffffffffffffffffffffffff1673ffffffffffffffffffffffffffffffffffffffff16815260200190815260200160002060008973ffffffffffffffffffffffffffffffffffffffff1673ffffffffffffffffffffffffffffffffffffffff1681526020019081526020016000205461154690919063ffffffff16565b610e0a565b6001905092915050565b60008060008373ffffffffffffffffffffffffffffffffffffffff1673ffffffffffffffffffffffffffffffffffffffff168152602001908152602001600020549050919050565b606060048054600181600116156101000203166002900480601f016020809104026020016040519081016040528092919081815260200182805460018160011615610100020316600290048015610c175780601f10610bec57610100808354040283529160200191610c17565b820191906000526020600020905b815481529060010190602001808311610bfa57829003601f168201915b5050505050905090565b600060075482029050803414610c82576040517f08c379a00000000000000000000000000000000000000000000000000000000081526004018080602001828103825260428152602001806119db6042913960600191505060405180910390fd5b610c8c33836115ce565b5050565b6000610d53610c9d610e02565b84610d4e856040518060600160405280602581526020016119b66025913960016000610cc7610e02565b73ffffffffffffffffffffffffffffffffffffffff1673ffffffffffffffffffffffffffffffffffffffff16815260200190815260200160002060008a73ffffffffffffffffffffffffffffffffffffffff1673ffffffffffffffffffffffffffffffffffffffff168152602001908152602001600020546112c29092919063ffffffff16565b610e0a565b6001905092915050565b6000610d71610d6a610e02565b8484611001565b6001905092915050565b6000600160008473ffffffffffffffffffffffffffffffffffffffff1673ffffffffffffffffffffffffffffffffffffffff16815260200190815260200160002060008373ffffffffffffffffffffffffffffffffffffffff1673ffffffffffffffffffffffffffffffffffffffff16815260200190815260200160002054905092915050565b600033905090565b600073ffffffffffffffffffffffffffffffffffffffff168373ffffffffffffffffffffffffffffffffffffffff161415610e90576040517f08c379a00000000000000000000000000000000000000000000000000000000081526004018080602001828103825260248152602001806119926024913960400191505060405180910390fd5b600073ffffffffffffffffffffffffffffffffffffffff168273ffffffffffffffffffffffffffffffffffffffff161415610f16576040517f08c379a00000000000000000000000000000000000000000000000000000000081526004018080602001828103825260228152602001806118dc6022913960400191505060405180910390fd5b80600160008573ffffffffffffffffffffffffffffffffffffffff1673ffffffffffffffffffffffffffffffffffffffff16815260200190815260200160002060008473ffffffffffffffffffffffffffffffffffffffff1673ffffffffffffffffffffffffffffffffffffffff168152602001908152602001600020819055508173ffffffffffffffffffffffffffffffffffffffff168373ffffffffffffffffffffffffffffffffffffffff167f8c5be1e5ebec7d5bd14f71427d1e84f3dd0314c0f7b2291e5b200ac8c7c3b925836040518082815260200191505060405180910390a3505050565b600073ffffffffffffffffffffffffffffffffffffffff168373ffffffffffffffffffffffffffffffffffffffff161415611087576040517f08c379a000000000000000000000000000000000000000000000000000000000815260040180806020018281038252602581526020018061196d6025913960400191505060405180910390fd5b600073ffffffffffffffffffffffffffffffffffffffff168273ffffffffffffffffffffffffffffffffffffffff16141561110d576040517f08c379a00000000000000000000000000000000000000000000000000000000081526004018080602001828103825260238152602001806117e56023913960400191505060405180910390fd5b611118838383611795565b611183816040518060600160405280602681526020016118fe602691396000808773ffffffffffffffffffffffffffffffffffffffff1673ffffffffffffffffffffffffffffffffffffffff168152602001908152602001600020546112c29092919063ffffffff16565b6000808573ffffffffffffffffffffffffffffffffffffffff1673ffffffffffffffffffffffffffffffffffffffff16815260200190815260200160002081905550611216816000808573ffffffffffffffffffffffffffffffffffffffff1673ffffffffffffffffffffffffffffffffffffffff1681526020019081526020016000205461154690919063ffffffff16565b6000808473ffffffffffffffffffffffffffffffffffffffff1673ffffffffffffffffffffffffffffffffffffffff168152602001908152602001600020819055508173ffffffffffffffffffffffffffffffffffffffff168373ffffffffffffffffffffffffffffffffffffffff167fddf252ad1be2c89b69c2b068fc378daa952ba7f163c4a11628f55a4df523b3ef836040518082815260200191505060405180910390a3505050565b600083831115829061136f576040517f08c379a00000000000000000000000000000000000000000000000000000000081526004018080602001828103825283818151815260200191508051906020019080838360005b83811015611334578082015181840152602081019050611319565b50505050905090810190601f1680156113615780820380516001836020036101000a031916815260200191505b509250505060405180910390fd5b5060008385039050809150509392505050565b600073ffffffffffffffffffffffffffffffffffffffff168273ffffffffffffffffffffffffffffffffffffffff161415611408576040517f08c379a000000000000000000000000000000000000000000000000000000000815260040180806020018281038252602181526020018061194c6021913960400191505060405180910390fd5b61141482600083611795565b61147f816040518060600160405280602281526020016118ba602291396000808673ffffffffffffffffffffffffffffffffffffffff1673ffffffffffffffffffffffffffffffffffffffff168152602001908152602001600020546112c29092919063ffffffff16565b6000808473ffffffffffffffffffffffffffffffffffffffff1673ffffffffffffffffffffffffffffffffffffffff168152602001908152602001600020819055506114d68160025461179a90919063ffffffff16565b600281905550600073ffffffffffffffffffffffffffffffffffffffff168273ffffffffffffffffffffffffffffffffffffffff167fddf252ad1be2c89b69c2b068fc378daa952ba7f163c4a11628f55a4df523b3ef836040518082815260200191505060405180910390a35050565b6000808284019050838110156115c4576040517f08c379a000000000000000000000000000000000000000000000000000000000815260040180806020018281038252601b8152602001807f536166654d6174683a206164646974696f6e206f766572666c6f77000000000081525060200191505060405180910390fd5b8091505092915050565b600073ffffffffffffffffffffffffffffffffffffffff168273ffffffffffffffffffffffffffffffffffffffff161415611671576040517f08c379a000000000000000000000000000000000000000000000000000000000815260040180806020018281038252601f8152602001807f45524332303a206d696e7420746f20746865207a65726f20616464726573730081525060200191505060405180910390fd5b61167d60008383611795565b6116928160025461154690919063ffffffff16565b6002819055506116e9816000808573ffffffffffffffffffffffffffffffffffffffff1673ffffffffffffffffffffffffffffffffffffffff1681526020019081526020016000205461154690919063ffffffff16565b6000808473ffffffffffffffffffffffffffffffffffffffff1673ffffffffffffffffffffffffffffffffffffffff168152602001908152602001600020819055508173ffffffffffffffffffffffffffffffffffffffff16600073ffffffffffffffffffffffffffffffffffffffff167fddf252ad1be2c89b69c2b068fc378daa952ba7f163c4a11628f55a4df523b3ef836040518082815260200191505060405180910390a35050565b505050565b60006117dc83836040518060400160405280601e81526020017f536166654d6174683a207375627472616374696f6e206f766572666c6f7700008152506112c2565b90509291505056fe45524332303a207472616e7366657220746f20746865207a65726f2061646472657373796f75206d7573742077616974206174206c65617374203120626c6f636b206265666f72652063617368696e67206f75742e20536f72727920666f722074686520696e636f6e76656e69656e63652c207468697320697320746f20677561726420616761696e737420666c617368206c6f616e73747279696e6720746f207769746864726177206d6f726520657468207468616e20796f75206861766520707265706172656420746f2063617368206f757445524332303a206275726e20616d6f756e7420657863656564732062616c616e636545524332303a20617070726f766520746f20746865207a65726f206164647265737345524332303a207472616e7366657220616d6f756e7420657863656564732062616c616e636545524332303a207472616e7366657220616d6f756e74206578636565647320616c6c6f77616e636545524332303a206275726e2066726f6d20746865207a65726f206164647265737345524332303a207472616e736665722066726f6d20746865207a65726f206164647265737345524332303a20617070726f76652066726f6d20746865207a65726f206164647265737345524332303a2064656372656173656420616c6c6f77616e63652062656c6f77207a65726f53656e7420657468657220646f6573206e6f74206d617463682062757920707269636520666f72207468652072657175657374656420746f6b656e20616d6f756e74a26469706673582212202766270bc68c69c2ee0e7643afefa42cfe6d9dbd31fb7b7c11c7c1868053170764736f6c63430007050033",
  "immutableReferences": {},
  "source": "pragma solidity =0.7.5;\r\n\r\n\r\nimport \"./openzeppelin-contracts/contracts/token/ERC20/ERC20.sol\";\r\n\r\n\r\n\r\ncontract Rome is ERC20 {\r\n    using SafeMath for uint256;\r\n\r\n\r\n    struct User{\r\n        //the last block that the user burned rome to prepare to cash out\r\n        uint256 lastBlock;\r\n        //ether a user has burned rome tokens to gain, but has not yet claimed from the contract\r\n        uint256 redeemedEther;\r\n    }\r\n\r\n    //stores all the info of users in order to cash out\r\n     mapping(address => User) users;\r\n\r\n    // .1 eth\r\n    uint256 romePrice = 100000000000000000;\r\n\r\n    constructor() ERC20(\"Rome\", \"ROME\") public {\r\n\r\n    }\r\n\r\n\r\n    function buyRome(uint256 amount) public payable{\r\n        uint256 cost = amount * romePrice; //each rome token costs .1 eth\r\n        require(msg.value == cost, \"Sent ether does not match buy price for the requested token amount\");\r\n        _mint(msg.sender, amount);\r\n    }\r\n\r\n    //\r\n    function prepareUnstake(uint256 romeToBurn) public{\r\n        // make sure the sender actually at least as much rome as they want to burn\r\n        require(balanceOf(msg.sender) >= romeToBurn);\r\n        //destroy the rome tokens\r\n        _burn(msg.sender, romeToBurn);\r\n        //set the data in the user struct so they can take out the eth during another block after this one.\r\n        //this helps guard against flashloan attacks\r\n        users[msg.sender].lastBlock = block.number;\r\n        users[msg.sender].redeemedEther += romeToBurn * romePrice;\r\n    }\r\n\r\n    //must be executed at least one block later than prepareCashOut\r\n    function unstake(uint256 etherToTakeOut) public{\r\n        //must have enough eth ready to cash out for argument passed in\r\n        require(users[msg.sender].redeemedEther >= etherToTakeOut, \"trying to withdraw more eth than you have prepared to cash out\");\r\n        //must have passed one block at least since burning rome to convert to eth\r\n        require(users[msg.sender].lastBlock < block.number, \"you must wait at least 1 block before cashing out. Sorry for the inconvenience, this is to guard against flash loans\");\r\n        //subtract the ether this user has requested to take out of the contract from their allowance to take out of the contract\r\n        //always subtract balance before transfering money, reentrancy attacks\r\n        users[msg.sender].redeemedEther -= etherToTakeOut;\r\n        //send em their eth!\r\n        msg.sender.transfer(etherToTakeOut);\r\n    }\r\n\r\n\r\n}\r\n",
  "sourcePath": "/home/darkdark/block_projs/rome_stuff/Test-Ground.io/contracts/Rome.sol",
  "compiler": {
    "name": "solc",
    "version": "0.7.5+commit.eb77ed08.Emscripten.clang"
  },
  "schemaVersion": "3.3.2",
  "updatedAt": "2021-01-13T02:19:17.823Z",
  "devdoc": {
    "kind": "dev",
    "methods": {
      "allowance(address,address)": {
        "details": "See {IERC20-allowance}."
      },
      "approve(address,uint256)": {
        "details": "See {IERC20-approve}. Requirements: - `spender` cannot be the zero address."
      },
      "balanceOf(address)": {
        "details": "See {IERC20-balanceOf}."
      },
      "decimals()": {
        "details": "Returns the number of decimals used to get its user representation. For example, if `decimals` equals `2`, a balance of `505` tokens should be displayed to a user as `5,05` (`505 / 10 ** 2`). Tokens usually opt for a value of 18, imitating the relationship between Ether and Wei. This is the value {ERC20} uses, unless {_setupDecimals} is called. NOTE: This information is only used for _display_ purposes: it in no way affects any of the arithmetic of the contract, including {IERC20-balanceOf} and {IERC20-transfer}."
      },
      "decreaseAllowance(address,uint256)": {
        "details": "Atomically decreases the allowance granted to `spender` by the caller. This is an alternative to {approve} that can be used as a mitigation for problems described in {IERC20-approve}. Emits an {Approval} event indicating the updated allowance. Requirements: - `spender` cannot be the zero address. - `spender` must have allowance for the caller of at least `subtractedValue`."
      },
      "increaseAllowance(address,uint256)": {
        "details": "Atomically increases the allowance granted to `spender` by the caller. This is an alternative to {approve} that can be used as a mitigation for problems described in {IERC20-approve}. Emits an {Approval} event indicating the updated allowance. Requirements: - `spender` cannot be the zero address."
      },
      "name()": {
        "details": "Returns the name of the token."
      },
      "symbol()": {
        "details": "Returns the symbol of the token, usually a shorter version of the name."
      },
      "totalSupply()": {
        "details": "See {IERC20-totalSupply}."
      },
      "transfer(address,uint256)": {
        "details": "See {IERC20-transfer}. Requirements: - `recipient` cannot be the zero address. - the caller must have a balance of at least `amount`."
      },
      "transferFrom(address,address,uint256)": {
        "details": "See {IERC20-transferFrom}. Emits an {Approval} event indicating the updated allowance. This is not required by the EIP. See the note at the beginning of {ERC20}. Requirements: - `sender` and `recipient` cannot be the zero address. - `sender` must have a balance of at least `amount`. - the caller must have allowance for ``sender``'s tokens of at least `amount`."
      }
    },
    "version": 1
  },
  "userdoc": {
    "kind": "user",
    "methods": {},
    "version": 1
  }
}