{
  "contractName": "StrategyControler",
  "abi": [
    {
      "inputs": [
        {
          "internalType": "uint256",
          "name": "time",
          "type": "uint256"
        }
      ],
      "stateMutability": "nonpayable",
      "type": "constructor"
    },
    {
      "anonymous": false,
      "inputs": [
        {
          "indexed": true,
          "internalType": "address",
          "name": "previousOwner",
          "type": "address"
        },
        {
          "indexed": true,
          "internalType": "address",
          "name": "newOwner",
          "type": "address"
        }
      ],
      "name": "OwnershipTransferred",
      "type": "event"
    },
    {
      "inputs": [],
      "name": "owner",
      "outputs": [
        {
          "internalType": "address",
          "name": "",
          "type": "address"
        }
      ],
      "stateMutability": "view",
      "type": "function"
    },
    {
      "inputs": [],
      "name": "renounceOwnership",
      "outputs": [],
      "stateMutability": "nonpayable",
      "type": "function"
    },
    {
      "inputs": [
        {
          "internalType": "address",
          "name": "newOwner",
          "type": "address"
        }
      ],
      "name": "transferOwnership",
      "outputs": [],
      "stateMutability": "nonpayable",
      "type": "function"
    },
    {
      "inputs": [
        {
          "internalType": "address",
          "name": "poolToChange",
          "type": "address"
        },
        {
          "internalType": "address",
          "name": "nStrategy",
          "type": "address"
        }
      ],
      "name": "startTimelock",
      "outputs": [],
      "stateMutability": "nonpayable",
      "type": "function"
    },
    {
      "inputs": [
        {
          "internalType": "address",
          "name": "poolToChange",
          "type": "address"
        }
      ],
      "name": "deployAfterTimelock",
      "outputs": [],
      "stateMutability": "nonpayable",
      "type": "function"
    }
  ],
  "bytecode": "0x608060405234801561001057600080fd5b50604051610b55380380610b558339818101604052602081101561003357600080fd5b810190808051906020019092919050505060006100546100ff60201b60201c565b9050806000806101000a81548173ffffffffffffffffffffffffffffffffffffffff021916908373ffffffffffffffffffffffffffffffffffffffff1602179055508073ffffffffffffffffffffffffffffffffffffffff16600073ffffffffffffffffffffffffffffffffffffffff167f8be0079c531659141344cd1fd0a4f28419497f9722a3daafe3b4186f6b6457e060405160405180910390a3508060048190555050610107565b600033905090565b610a3f806101166000396000f3fe608060405234801561001057600080fd5b50600436106100575760003560e01c8063715018a61461005c5780638da5cb5b1461006657806394b3d7241461009a578063c5f11b3a146100fe578063f2fde38b14610142575b600080fd5b610064610186565b005b61006e61030c565b604051808273ffffffffffffffffffffffffffffffffffffffff16815260200191505060405180910390f35b6100fc600480360360408110156100b057600080fd5b81019080803573ffffffffffffffffffffffffffffffffffffffff169060200190929190803573ffffffffffffffffffffffffffffffffffffffff169060200190929190505050610335565b005b6101406004803603602081101561011457600080fd5b81019080803573ffffffffffffffffffffffffffffffffffffffff1690602001909291905050506104e3565b005b6101846004803603602081101561015857600080fd5b81019080803573ffffffffffffffffffffffffffffffffffffffff169060200190929190505050610748565b005b61018e610953565b73ffffffffffffffffffffffffffffffffffffffff1660008054906101000a900473ffffffffffffffffffffffffffffffffffffffff1673ffffffffffffffffffffffffffffffffffffffff161461024e576040517f08c379a00000000000000000000000000000000000000000000000000000000081526004018080602001828103825260208152602001807f4f776e61626c653a2063616c6c6572206973206e6f7420746865206f776e657281525060200191505060405180910390fd5b600073ffffffffffffffffffffffffffffffffffffffff1660008054906101000a900473ffffffffffffffffffffffffffffffffffffffff1673ffffffffffffffffffffffffffffffffffffffff167f8be0079c531659141344cd1fd0a4f28419497f9722a3daafe3b4186f6b6457e060405160405180910390a360008060006101000a81548173ffffffffffffffffffffffffffffffffffffffff021916908373ffffffffffffffffffffffffffffffffffffffff160217905550565b60008060009054906101000a900473ffffffffffffffffffffffffffffffffffffffff16905090565b61033d610953565b73ffffffffffffffffffffffffffffffffffffffff1660008054906101000a900473ffffffffffffffffffffffffffffffffffffffff1673ffffffffffffffffffffffffffffffffffffffff16146103fd576040517f08c379a00000000000000000000000000000000000000000000000000000000081526004018080602001828103825260208152602001807f4f776e61626c653a2063616c6c6572206973206e6f7420746865206f776e657281525060200191505060405180910390fd5b6000829050600082905080600260008473ffffffffffffffffffffffffffffffffffffffff1673ffffffffffffffffffffffffffffffffffffffff16815260200190815260200160002060006101000a81548173ffffffffffffffffffffffffffffffffffffffff021916908373ffffffffffffffffffffffffffffffffffffffff16021790555061049a6004544261095b90919063ffffffff16565b600360008473ffffffffffffffffffffffffffffffffffffffff1673ffffffffffffffffffffffffffffffffffffffff1681526020019081526020016000208190555050505050565b6104eb610953565b73ffffffffffffffffffffffffffffffffffffffff1660008054906101000a900473ffffffffffffffffffffffffffffffffffffffff1673ffffffffffffffffffffffffffffffffffffffff16146105ab576040517f08c379a00000000000000000000000000000000000000000000000000000000081526004018080602001828103825260208152602001807f4f776e61626c653a2063616c6c6572206973206e6f7420746865206f776e657281525060200191505060405180910390fd5b600081905042600360008373ffffffffffffffffffffffffffffffffffffffff1673ffffffffffffffffffffffffffffffffffffffff1681526020019081526020016000205410610664576040517f08c379a00000000000000000000000000000000000000000000000000000000081526004018080602001828103825260188152602001807f74696d656c6f636b20686173206e6f742065787069726564000000000000000081525060200191505060405180910390fd5b8073ffffffffffffffffffffffffffffffffffffffff166333a100ca600260008473ffffffffffffffffffffffffffffffffffffffff1673ffffffffffffffffffffffffffffffffffffffff16815260200190815260200160002060009054906101000a900473ffffffffffffffffffffffffffffffffffffffff166040518263ffffffff1660e01b8152600401808273ffffffffffffffffffffffffffffffffffffffff168152602001915050600060405180830381600087803b15801561072c57600080fd5b505af1158015610740573d6000803e3d6000fd5b505050505050565b610750610953565b73ffffffffffffffffffffffffffffffffffffffff1660008054906101000a900473ffffffffffffffffffffffffffffffffffffffff1673ffffffffffffffffffffffffffffffffffffffff1614610810576040517f08c379a00000000000000000000000000000000000000000000000000000000081526004018080602001828103825260208152602001807f4f776e61626c653a2063616c6c6572206973206e6f7420746865206f776e657281525060200191505060405180910390fd5b600073ffffffffffffffffffffffffffffffffffffffff168173ffffffffffffffffffffffffffffffffffffffff161415610896576040517f08c379a00000000000000000000000000000000000000000000000000000000081526004018080602001828103825260268152602001806109e46026913960400191505060405180910390fd5b8073ffffffffffffffffffffffffffffffffffffffff1660008054906101000a900473ffffffffffffffffffffffffffffffffffffffff1673ffffffffffffffffffffffffffffffffffffffff167f8be0079c531659141344cd1fd0a4f28419497f9722a3daafe3b4186f6b6457e060405160405180910390a3806000806101000a81548173ffffffffffffffffffffffffffffffffffffffff021916908373ffffffffffffffffffffffffffffffffffffffff16021790555050565b600033905090565b6000808284019050838110156109d9576040517f08c379a000000000000000000000000000000000000000000000000000000000815260040180806020018281038252601b8152602001807f536166654d6174683a206164646974696f6e206f766572666c6f77000000000081525060200191505060405180910390fd5b809150509291505056fe4f776e61626c653a206e6577206f776e657220697320746865207a65726f2061646472657373a264697066735822122024a8b9b0b493b661cfa54bc777f548abfe2efad3124a8fca95bdba6501e8575864736f6c63430007050033",
  "immutableReferences": {},
  "source": "pragma solidity =0.7.5;\r\n\r\n\r\nimport \"./openzeppelin-contracts/contracts/token/ERC20/ERC20.sol\";\r\nimport \"./openzeppelin-contracts/contracts/token/ERC20/IERC20.sol\";\r\nimport \"./openzeppelin-contracts/contracts/access/Ownable.sol\";\r\nimport \"./PoolManager.sol\";\r\nimport \"./IStrategy.sol\";\r\nimport \"./Pool.sol\";\r\n\r\ncontract StrategyControler is Ownable{\r\n    using SafeMath for uint256;\r\n\r\n    address PoolManager;\r\n\r\n    mapping(Pool => IStrategy) nextStrategies;\r\n    mapping(Pool => uint256) nextStrategyUnlockTimes;\r\n\r\n    uint256 timeToLock;\r\n\r\n    constructor(uint256 time) public {\r\n        timeToLock = time;\r\n    }\r\n\r\n\r\n    function startTimelock(address poolToChange, address nStrategy) external onlyOwner{\r\n        Pool sPool = Pool(poolToChange); //cast\r\n        IStrategy nextStrategy = IStrategy(nStrategy); //cast\r\n        nextStrategies[sPool] = nextStrategy; //set the strategy that can be deployed after timelock\r\n        nextStrategyUnlockTimes[sPool] = block.timestamp.add(timeToLock); //add 1 day of seconds onto the current time to allow unlock in 1 day\r\n    }\r\n\r\n    function deployAfterTimelock(address poolToChange) external onlyOwner{\r\n        Pool sPool = Pool(poolToChange); //cast\r\n        require(nextStrategyUnlockTimes[sPool] < block.timestamp, \"timelock has not expired\"); // require that 24 hours have passed since calling start time lock\r\n        sPool.setStrategy(nextStrategies[sPool]); // call the setStrategy method of the pool, replaces strategy pool uses. Causes unstake and stake of pool to do different stuff\r\n\r\n    }\r\n\r\n\r\n\r\n\r\n}",
  "sourcePath": "/home/darkdark/block_projs/rome_stuff/Test-Ground.io/contracts/StrategyController.sol",
  "compiler": {
    "name": "solc",
    "version": "0.7.5+commit.eb77ed08.Emscripten.clang"
  },
  "schemaVersion": "3.3.2",
  "updatedAt": "2021-01-25T23:00:29.791Z",
  "devdoc": {
    "kind": "dev",
    "methods": {
      "owner()": {
        "details": "Returns the address of the current owner."
      },
      "renounceOwnership()": {
        "details": "Leaves the contract without owner. It will not be possible to call `onlyOwner` functions anymore. Can only be called by the current owner. NOTE: Renouncing ownership will leave the contract without an owner, thereby removing any functionality that is only available to the owner."
      },
      "transferOwnership(address)": {
        "details": "Transfers ownership of the contract to a new account (`newOwner`). Can only be called by the current owner."
      }
    },
    "version": 1
  },
  "userdoc": {
    "kind": "user",
    "methods": {},
    "version": 1
  }
}